:020000040800F2
:1000000000400020D53F00086D3B00086F3B000812
:1000100000000000000000000000000000000000E0
:10002000000000000000000000000000713B00081C
:100030000000000000000000733B0008753B000852
:1000400025400008254000082540000825400008FC
:10005000254000087D3B0008254000082540000899
:100060002540000825400008953B0008AD3B0008EE
:1000700025400008254000082540000825400008CC
:1000800025400008254000082540000825400008BC
:100090002540000825400008BD3B00082540000819
:1000A00025400008CD3B000825400008DD3B000846
:1000B000F13B00082540000825400008013C0008ED
:1000C00010B5064C2378002B07D1054B002B02D02E
:1000D000044800E000BF0123237010BD740A002013
:1000E00000000000383E0108044B10B5002B03D07F
:1000F0000349044800E000BF10BDC04600000000F6
:10010000780A0020383E01080023C25C0133002A2F
:10011000FBD1581E7047000002B4714649084900DF
:10012000095649008E4402BC7047C04602B471466D
:1001300049084900095C49008E4402BC7047C0462A
:1001400003B47146490840004900095E49008E44E5
:1001500003BC704703B47146490840004900095A7E
:1001600049008E4403BC7047002243088B4274D37D
:1001700003098B425FD3030A8B4244D3030B8B42A8
:1001800028D3030C8B420DD3FF22090212BA030CB1
:100190008B4202D31212090265D0030B8B4219D392
:1001A00000E0090AC30B8B4201D3CB03C01A5241B2
:1001B000830B8B4201D38B03C01A5241430B8B42FA
:1001C00001D34B03C01A5241030B8B4201D30B03E3
:1001D000C01A5241C30A8B4201D3CB02C01A52410A
:1001E000830A8B4201D38B02C01A5241430A8B42CD
:1001F00001D34B02C01A5241030A8B4201D30B02B6
:10020000C01A5241CDD2C3098B4201D3CB01C01ACF
:10021000524183098B4201D38B01C01A52414309D9
:100220008B4201D34B01C01A524103098B4201D3C7
:100230000B01C01A5241C3088B4201D3CB00C01A34
:10024000524183088B4201D38B00C01A52414308AC
:100250008B4201D34B00C01A5241411A00D20146D1
:10026000524110467047FFE701B5002000F0F0F85A
:1002700002BDC0460029F7D076E7704703460B431E
:100280007FD4002243088B4274D303098B425FD38F
:10029000030A8B4244D3030B8B4228D3030C8B42BB
:1002A0000DD3FF22090212BA030C8B4202D31212A1
:1002B000090265D0030B8B4219D300E0090AC30B76
:1002C0008B4201D3CB03C01A5241830B8B4201D323
:1002D0008B03C01A5241430B8B4201D34B03C01A0C
:1002E0005241030B8B4201D30B03C01A5241C30A84
:1002F0008B4201D3CB02C01A5241830A8B4201D3F5
:100300008B02C01A5241430A8B4201D34B02C01ADE
:100310005241030A8B4201D30B02C01A5241CDD283
:10032000C3098B4201D3CB01C01A524183098B42CE
:1003300001D38B01C01A524143098B4201D34B01B7
:10034000C01A524103098B4201D30B01C01A52411A
:10035000C3088B4201D3CB00C01A524183088B42A1
:1003600001D38B00C01A524143088B4201D34B008A
:10037000C01A5241411A00D20146524110467047FC
:100380005DE0CA0F00D04942031000D34042534001
:1003900000229C4603098B422DD3030A8B4212D3C1
:1003A000FC22890112BA030A8B420CD389019211F3
:1003B0008B4208D3890192118B4204D389013AD030
:1003C000921100E08909C3098B4201D3CB01C01A05
:1003D000524183098B4201D38B01C01A5241430918
:1003E0008B4201D34B01C01A524103098B4201D306
:1003F0000B01C01A5241C3088B4201D3CB00C01A73
:10040000524183088B4201D38B00C01A5241D9D28A
:1004100043088B4201D34B00C01A5241411A00D20B
:100420000146634652415B10104601D34042002B07
:1004300000D54942704763465B1000D3404201B586
:10044000002000F005F802BD0029F8D016E770473B
:100450007047C046D0400B00D1409C46203AD34064
:10046000184352426346934018437047914003003B
:1004700090409C46203A9340194352426346D340F1
:100480001943704770B500220C4B04000D0000F0BA
:10049000A5FF002804D12000290000F001FF70BD55
:1004A000064B00222000290000F0F0FA00F0F8FED0
:1004B00080231B069C466044F1E7C0460000E041F3
:1004C000F0B557464E46DE464546E0B51F000B03E5
:1004D0001B0B16009A46CA0F4B000400914685B0CC
:1004E0005B0D00D1CFE1CD4A934255D05146420F2A
:1004F000C9000A43802109041143C2009046C84A3A
:100500008A4693469B440023002502933C037B00CC
:10051000FA0F0196240B5B0D009200D188E1BF4ACF
:10052000934200D192E0BE4A944663449B440A2D14
:1005300042DCE400730F23438024494624041C4317
:10054000F3000193009B00205940CBB20393022D8E
:1005500000DC94E00123AB401D00A6232A00DB0051
:100560001A401D4200D029E290239B001D4200D179
:100570004DE20023802499462403A84B10004A46EC
:100580001B052343D2071343190005B0F0BCBB463B
:10059000B246A946A046F0BD52460243904600D05E
:1005A000ACE19B460223924608250293AEE7009BEE
:1005B000A2469946019B9846029B022B00D1CAE1B4
:1005C000032B00D192E1012B10D100230024002243
:1005D000D4E701227B083A4013435246D207134323
:1005E000984653465B089A46039B99465B46581CBF
:1005F0008023DB005B44002B00DCB1E14246520764
:100600000BD00F2241460A40042A06D04246111D53
:10061000414592418846524292445246D20106D503
:100620005246804B1A4080239246DB00C3187E4A14
:10063000934200DD8FE14246D108524652070A43F9
:1006400051465B054C02240B5B0D97E7734B264329
:100650009C46E344002E00D16FE1032349461D432D
:10066000009B5940CBB203930A2D00DD33E10123F7
:10067000AB401D000323029388222A4297D14246B1
:1006800043461204120C160001981D0C030C0004C2
:10069000000C4643B4461E006E4300961600070049
:1006A0005E436146B0466F430E0CB8444644B742C1
:1006B00005D9802149028846009F4744009761463A
:1006C0000904090C370C36048C4631006144019151
:1006D0001100260C2404240C61438C46210069433C
:1006E00089466146090C884672434A444244754330
:1006F000914503D98021490288464544110C88461A
:1007000061460904090C8C4612046244B91802912E
:100710005146090C8C4651460F043F0C39004143A9
:1007200045448846614641438A4641466046090C35
:10073000894658437B4353444B449A4503D980210F
:10074000490289464844190C894641460904090C66
:100750008846390061431B044344884661464C4344
:1007600071438C46414677430E0C3F19F6194844B5
:10077000B44203D9802149028946CC440299009FA2
:10078000894631044F4489464146974292410C04C0
:10079000240C4C44FF1852426419A1189F429B41FB
:1007A000884682465B42994690459241AC42A441BC
:1007B000C244D14452426442144399459B4182450C
:1007C00092415B42524213434A46360CA419E31845
:1007D00063445B02D20D1A43019992467A020A439E
:1007E000501E8241FF0D17434A4652021743B84636
:1007F000DB0100D5EDE60D4B039A5B449146002BDF
:1008000000DCACE03A00520700D110E70F22584656
:100810003A40042A00D0F9E609E7C046FF07000085
:1008200001FCFFFFFFFFFFFEFE070000FF030000CB
:10083000220032436FD0002C00D1C2E0200000F033
:10084000D7FD020003000B3A1D20821A3000190068
:10085000D04008398C400200224334008C40594675
:10086000CB1A86498B469B440A2D00DDA4E64946F7
:10087000009B01945940CBB2140000200393022D39
:1008800000DD67E6FBE65346034398463CD05346FB
:10089000002B00D1A3E0504600F0AAFD0B235B42E1
:1008A0009C460200844411005046083988401D23AC
:1008B000804660461B1A2000D84003004046034390
:1008C0009A4623008B4098466C4B00259B1A9B460A
:1008D000002302931AE60F2D00D0C9E08023524670
:1008E0001B031A4202D01C4200D192E080245346DE
:1008F00024031C4324034246240B3EE69B46032369
:1009000080460C25029301E600239A469B4601335C
:1009100004250293FAE501210D430A2D00DD4BE683
:10092000494600984140C9B20391022D00DC96E08F
:1009300000230024012001930CE649460223009A7B
:100940002B435140CAB203920A2B00DD34E6002D3E
:1009500057D1039B994600240022494B0EE6584686
:100960000121C91A382900DD2FE61F2956DD1F2273
:1009700054465242D31ADC40202907D0414B42460C
:100980009C465346604483401A43904642460721A2
:10099000531E9A410B00224313400024114209D0F8
:1009A0000F231340042B5DD0111D91429B410A007F
:1009B0005B425B07D2081A430023DFE5039B99469D
:1009C000FAE5019800F014FD02000300153220330F
:1009D0001C2A00DC38E7019A083882403FE700F023
:1009E00007FD15239C4684440200634620321C2BDD
:1009F00000DC58E7002398462300083883409A46D5
:100A000062E71D000023002402200193A2E502906A
:100A100032E61C43009B019A9946AEE51A4B5246BA
:100A2000C31840469A40C8400243404698400300DD
:100A3000581E834154461A43CC40530709D00F2314
:100A40001340042B05D0131D934292415242A41827
:100A50001A00230208D50123002400228EE58946CE
:100A600000248BE50023A5E763076402240BA1E7BC
:100A7000009BA2469946019B984637E70DFCFFFF75
:100A8000FF0700003E0400001E040000F0B55746BA
:100A90004E464546DE46E0B583B0009001910C031A
:100AA0004D00CE0F610A009C5F00640F0C4300995B
:100AB00000920193C80019037B0D9946019BCC4F0E
:100AC000DB0F9C464B0A00998046490F1943009B57
:100AD0008B46DA0092466D0DB94500D1BFE0012387
:100AE000614659404B468C46EB1A8E4275D0002B1E
:100AF00000DCA3E24946002900D1CEE0BD4200D18E
:100B000000E20127382B19DC802759463F0439437E
:100B10008B461F2B00DDFAE12027F91A8C46594637
:100B20006746B9400F001100D9400F4361468A4023
:100B3000511E8A415946D9401743641AC71BB8420F
:100B400080414042241A230200D440E16402640A36
:100B5000002C00D154E1200000F04AFC0300083BC7
:100B600020213800CA1AD0409C4002009F402243F6
:100B70009D4200DDA6E1581B0130091A3C008F4060
:100B8000C4407B1E9F4113008B4027431F43C2403C
:100B90003B0014000025134300D1F7E17B0700D18F
:100BA00077E30F2338003B40042B04D0381DB842B4
:100BB000BF417F42E419230200D468E38C4B013526
:100BC0009D4200D1F4E08B4B6D051C406D0D670715
:100BD000C00864020743240BECE0002B00DC29E38F
:100BE0004946002900D0D6E05946114300D12EE1F4
:100BF000591E012B00D1E6E1BB4200D182E1012761
:100C00000B00382914DC1F2B00DD3CE22027F91AE9
:100C10008C4659466746B9400F001100D9400F4332
:100C200061468A40511E8A415946D940174364188B
:100C30003F188742804140422418230200D4C6E076
:100C40006B4B01359D4200D1B2E00121694B7A081E
:100C50001C4039400A43E707174364089EE7664B88
:100C600011438A46EB18002928D066452CD0002B6A
:100C70005BD0002D00D12CE15B4666465F07D208B1
:100C80001743DD083B002B4300D1E2E0802424031E
:100C90002C432403564D240B8CE05946114300D1BC
:100CA000D5E0591E012B00D1B9E1BB4200D1B1E121
:100CB00001270B00382900DD40E72AE761460127BC
:100CC00079408C466645D2D1002B00D1C5E0002D7D
:100CD00000D055E14B462500054300D112E2591ED4
:100CE0008C46012B00D149E2414DAB4200D18FE24D
:100CF0000127382911DC63461F2B00DD5BE26146CA
:100D0000202327005B1A050098409F40CD40431EDA
:100D10009841CC402F430743A344BF1897429241C8
:100D200052425A4414004D4687E7344F6B1C3B42F5
:100D300000D0B6E05946230011430F000343002DB5
:100D400000D026E1002B00D1C0E1002900D1A1E0B4
:100D5000831A98465B464045AD41E31A6D425B1BE2
:100D600080252D042B4200D14BE15B46101A8242B4
:100D700092411C1B0700012663465242A41A2743D6
:100D80001E40002F00D142E12C4200D16DE2194BF0
:100D900001251C401BE7BD4200D13BE10127382B58
:100DA00000DD45E7802759463F0439438B462AE753
:100DB000002400272D052543F60735433800290078
:100DC00003B0F0BCBB46B246A946A046F0BD7B07C7
:100DD00004D00F233B40042B00D0E7E62B00F8089B
:100DE000034A67070743E508934200D14AE7A5E0B5
:100DF000FF070000FFFF7FFF01F8FFFFFE07000075
:100E0000380000F0F5FA030018331F2B00DCA7E6CA
:100E10003A00083882409D4200DD8AE05B1B581C86
:100E20001F2800DCD8E117001F3BDF40202805D039
:100E300040231B1A9A40531E9A4117430025002F46
:100E400000D1E5E07B0700D0ABE62C00C6E7C00888
:100E5000C6E700270024D14DACE7D14F6B1C3B42C5
:100E600071D123000343002D00D04EE15746002BE3
:100E700000D1B5E1002F0DD08318834280415C443E
:100E800040422418220200D5C8E11F00984627439B
:100E900000D1BCE043466707DB081F43E508002399
:100EA0004CE0831A98465B464045BF41E31A7F42B7
:100EB000DB1B1F027CD447461F4300D1A6E01C0069
:100EC000474645E6B74CED1A14407B0700D080E753
:100ED00084E74B462500054366D05F1E012B00D1F9
:100EE000FCE0AE4DAB4200D15EE16646382F00DC3F
:100EF000B4E00120171ABA4292415B4652424D4675
:100F00009C1A20E66707C0080743E508BAE61F00F9
:100F10005946203FF9400F00202B05D04021CB1A25
:100F2000594699400A43924653465A1E93411F43DD
:100F300004E6EB1A9B4D15406F07ED082C035D0589
:100F4000240B6D0D36E7954DAB4200D1D6E08218EB
:100F5000210082428041594440420818C707520884
:100F600017434408520700D485E10F221D003A4080
:100F7000042A00D01AE6FF08640727430509DDE7C5
:100F80005B46D2085F071743DD087BE60027002495
:100F900010E7002B00D0D6E0002900D02FE18024FC
:100FA00000267E4D240305E766465C46D00817E719
:100FB0005B46171ABA4292411C1B012663465242F5
:100FC000A41A1E40C4E58318834280415C44404219
:100FD00025182A0200D4DAE0724A5B081540EA07B5
:100FE0001A4369085B0700D44AE10F231340042B1E
:100FF00000D1FCE0171D9742A44164420225641809
:10100000ECE647461C001F4300D043E700260025BE
:101010000024CFE6C00867070743E50832E6871AD1
:101020005B46B8428041E41A4042241A230228D485
:101030006307FF081F43E50801237FE7002B00D16A
:1010400073E64B465F1B3B00002D00D142E7382F73
:1010500000DDECE080230E001B041C431F2F25DC69
:1010600020252300ED1B0100A840AB40F940451EA0
:10107000A8410B43FC4018435B461B1B9B4639E7CA
:101080006646012562E51F005946203FF9408C461F
:10109000202B05D040275946FB1A99400A43924617
:1010A00057467B1E9F4163461F43C1E53B00250019
:1010B000203BDD40202F04D04023DB1B9C402043FD
:1010C00080464046431E9841284313E700299DD09F
:1010D000012663465C4690461E40DBE6171A5B46D7
:1010E000BA4292411C1B5242A41A2302C8D463077D
:1010F000FF081F4366460123E5081FE71D00002483
:10110000002757E65C46D0086AE6002B00D137E797
:101110005346C00867070743E508002B00D1B1E537
:1011200080231B031D4208D05946C808184204D129
:10113000D20849070A43170005007B0FFF00FF088C
:101140005B071F439EE5C00863071843E5080029B5
:1011500053D080231B031D420AD05946CC081C42A1
:1011600006D1012663462500D008490708431E40E2
:10117000470FC000C0087F07074383E583189342E9
:1011800092415C445242A5182A0200D524E76F0719
:10119000DB081F43ED080123D0E6C046FF0700002F
:1011A000FE070000FFFF7FFF5B46D2085F07664631
:1011B0001743DD0866E52500203BDD406346202B14
:1011C00005D0402361465B1A9C4020438046474639
:1011D0007B1E9F412F43A0E520210027091AD2E45E
:1011E000002F00D113E75C4617000025F6E5D7086D
:1011F000490702230F432D09A0E6070042E55B469D
:1012000001265F07DD086346D20817431E4039E513
:101210005B46D2085F071743DD0833E51E4ADB084B
:1012200022405707520201251F43140BC2E50E004E
:1012300001205FE6002B0DD04B465B1B9C46002D2A
:1012400000D148E50127382B00DD66E580231B042B
:101250001C4350E56B1C114D2B4200D073E65946E0
:10126000230011438A46034300E66707C0080023B2
:101270000743E50862E66407FF08274305095DE6C2
:10128000D208490711430F0002232D0956E6070033
:10129000A4E538008FE4C046FFFF7FFFFE07000093
:1012A0000B00020070B5164D0C0382B049000020FF
:1012B00000920193240B490DDE0FA94204DD114871
:1012C000814203DD104BF01802B070BD8020400356
:1012D00020430E4C641A1F2C08DD0D4B5B1AD840BE
:1012E00003005842002EEFD11800EDE7094B009A99
:1012F0009C46030061448B40E2401343F1E7C04643
:10130000FE0300001D040000FFFFFF7F3304000008
:1013100013040000EDFBFFFF70B5002816D0C317C3
:10132000C5185D40C40F280000F062F8104B1B1A6E
:101330005B055B0D0A2814DC02002E001532964076
:101340000B22121AD5402D032D0B03E0002400239D
:10135000002500261B052B43E4072343300019001A
:1013600070BD0B3885402D0300262D0BF2E7C046DB
:101370001E0400008446100062468C461900634635
:1013800000E0C0461FB500F005F9002801D4002197
:10139000C8421FBD10B500F049F84042013010BDF1
:1013A00010B500F0F7F8002801DB002010BD012087
:1013B00010BDC04610B500F0EDF8002801DD00209A
:1013C00010BD012010BDC04610B500F073F8002814
:1013D00001DC002010BD012010BDC04610B500F09A
:1013E00069F8002801DA002010BD012010BDC046B8
:1013F0001C2101231B04984201D3000C10391B0A45
:10140000984201D3000A08391B09984201D3000908
:10141000043902A2105C40187047C046040302025F
:10142000010101010000000000000000F0B5574676
:10143000DE464E464546E0B50D000400E80F834603
:101440000903D80F090B824619488C461F0369000F
:101450005E00490D3F0B760D814218D086420FD0B9
:101460000120B1420DD1BC450BD1944209D1D345E5
:101470001CD0002905D160462043431E984100E05E
:101480000120F0BCBB46B246A946A046F0BD0120F3
:101490008E42F6D1614639430F0017432743F0D1FE
:1014A0005B465246981A431E9841EAE70020E8E757
:1014B000FF070000F0B557464E464546DE46E0B50C
:1014C0000D000E034900490D8A46DF0FE90FBC46A7
:1014D00083B02F4F040080460191580019039146B4
:1014E000360B090B400DBA451DD0B8420DD05746FA
:1014F000002F2AD13443002824D10A4336D0002CAF
:1015000041D163465800013815E0114338D15346A4
:10151000002B01D12643F4D0019B634507D1019BE9
:101520005800013807E026432AD1504521D0012038
:10153000019B5F42384303B0F0BCBB46B246A946AC
:10154000A046F0BD002CDCD0E6E70028EFD0019BE0
:101550006345ECD18245EADCE1DB8E42E7D8DED19F
:10156000C845E4D80020C845E5D2D8E7002CE2D031
:10157000DDE7114304D1019B6345D8D10020DAE7B0
:1015800002204042D7E7019B6345E6D0CFE7C04643
:10159000FF070000F0B557464E464546DE46E0B52B
:1015A0000D000E034900490D8A46DF0FE90FBC46C6
:1015B00083B02E4F040080460191580019039146D4
:1015C000360B090B400DBA451ED0B8420DD0574618
:1015D000002F27D13443002833D10A4334D0002CC4
:1015E00040D163465800013815E0114312D15346EB
:1015F000002B01D12643F4D0019B63451DD001206F
:10160000019B5F42384306E0264303D15045F6D1A3
:1016100011431CD0022003B0F0BCBB46B246A94621
:10162000A046F0BD0028EAD0019B6345E7D1824582
:10163000E5DC02DB8E42E2D80ED0019B5800013877
:10164000E9E7002CCDD0D7E7002CE4D0D7E7019B09
:1016500000206345DFD0D2E7C845D0D80020C84578
:10166000D9D2EAE7019B6345E4D0C8E7FF07000051
:1016700037B56B4600220B4C0B4D627206331A8055
:1016800029000520103201F011FA002808D12B5C46
:10169000303B092B04D801301028F8D101236372A4
:1016A00037BDC0469A0D0020A40D002041188B1EA6
:1016B0001B780220612B07D00020902B04D1013928
:1016C000087843425841C0B27047000013B5044C3B
:1016D000DBB20194049C009400F088FE80B216BD39
:1016E0009271859430B587B06D4680000918697590
:1016F000302400212C750291323101911C3969444A
:10170000009105A8022100F085FE80B207B030BD2F
:10171000F0B58BB000F0A0FD0021494F494C3D7859
:10172000494EA1708D4251D1484B32000393009332
:10173000290004236020FFF7C9FF002809D12000F9
:1017400006224349333011F041FF0123A2781343AD
:10175000A370039B32000093002104236120FFF754
:10176000B5FF002809D1200039493D30062211F08B
:101770002DFF0223A2781343A3703B780133DBB221
:101780003B70A378032B17D10F33012105AA00204A
:10179000FFF7A8FF2000102205A9133011F016FF53
:1017A000022105AA12230020FFF79CFF200010222F
:1017B000233005A911F00AFFA378002B01D1803353
:1017C000A370012000F020FD0BB0F0BD012D1FD152
:1017D000204B3200009360200423FFF777FF00289E
:1017E00008D1200006221C49333011F0EFFEA37807
:1017F0001D43A570194B3200009300210423612082
:10180000FFF764FF0028B8D1200015493D30ADE74F
:10181000144B3200009360200423FFF757FF002889
:101820000CD1200006221049333011F0CFFE0622E1
:10183000FF210E4811F096FE0323A37000239FE7BB
:10184000990D00209A0D00209D0D002041450108B2
:101850006E4001083B450108754001083545010807
:101860007C4001082F45010883400108D70D002066
:10187000F0B51500334A93B009920200079318ABF4
:101880001B884A32069309AB9D800E0011781D22F9
:1018900002AC1219D177026B04300E92026B0F92D8
:1018A000C28F9A83FF22DA838023199A5B000C92FD
:1018B000254A0D922A1C9D4200D91A1C310092B271
:1018C000224811F03DFE6946214A0DAB0B9291CBA7
:1018D00091C111CB11C109980A990C9B0BF0A2F987
:1018E00003F04EFC0BF010FA04000228F8D0194F58
:1018F000002800D0184F2900300011F067FD174B69
:101900000500002C05D1199B1548198811F05EFDC2
:101910000300144E2A003900300011F03DFD002C68
:101920000CD1199B06991B881A1C8B4201D96B4656
:101930001A8B0B49079892B211F002FE200013B0E7
:10194000F0BDC046960C0020900A0020990C0020A3
:10195000930B00204F400108354001082F42010839
:10196000960B00208A400108F0B5ADB00AF0EAF904
:101970002C4E02223300002108200BF07DF8051EBA
:1019800002D000202DB0F0BD274C1322210007A863
:1019900011F01CFE210080270A240E22133103A817
:1019A00011F014FE6C443A0029000CA811F0DAFD85
:1019B000258013223000019400970CAB07A9FFF794
:1019C00057FF0028DDD121880CA8FFF76FFE002803
:1019D000D7D00E223000019400970CAB03A9FFF77B
:1019E00047FF0028CDD125880CA82900FFF75EFE0F
:1019F0000028C6D00D4C0AAB591904220C4811F02E
:101A0000E5FD200009AB59190422083011F0DEFD74
:101A10001A2320006B440A225919103011F0D6FD08
:101A20000120AFE79C0E0020503E01089A0D0020D7
:101A3000A60D0020F0B595B06B460026DC1D0EAD5E
:101A400026700DF01BFF02F0C7FE23002A000121C3
:101A500030000EF0B5FAB04200D0D3E02378B342A4
:101A600000D1CFE001220421BA4805F0A3FE2E796F
:101A7000B94C042E59D13D236B4432001900B748AC
:101A800011F050FD002808D1A378032B05D10123C4
:101A9000637002F0F9FE15B0F0BD2378062B08D173
:101AA00037336B4404221900AD4811F03BFD002888
:101AB000EDD0012363706B7D002B0DD039215220B6
:101AC00069440DF0F7FE002806D13B223D3029790C
:101AD0006A4468440EF0A4F92E78002E63D13923AD
:101AE0006B441A785B781B0213431AB2042B03D0A1
:101AF000442A32D0022ACCD13D2198482A7969441F
:101B000011F064FD2378012B04D080223100944829
:101B100011F028FD01232370FFF7FAFD914B1B788C
:101B2000002B3CD0022B2CD0B3E7072EC1D13D2394
:101B30008B4F6B4432001900380011F0F3FC002881
:101B400003D1637A012BB4D1A1E73D236B4432006A
:101B50001900380011F03AFDABE72B79072B98D12B
:101B60002378022B10D0802231007D4811F0FAFC3E
:101B7000022323707B4B1A78002A0BD0022A00D054
:101B800087E701F083FE84E7637A012BF2D0FFF749
:101B90006FFDEFE78021080000F08AF979E7002265
:101BA000FF211000F8E7012E08D13D216B482A796A
:101BB000694411F00BFDFF2323706AE720233200F4
:101BC0009A43402AF1D0202E00D062E7FFF7CCFEE6
:101BD000002811D00623237037336B4419000422E8
:101BE000A01C11F0F3FC5F4B1978002902D00229E8
:101BF000C7D04EE7FF22D4E73D236B441900574876
:101C00002A79D6E701200EF0B5FC02F0E5FD0EF0D2
:101C1000E7FC00284CD12300012109AA0EF074FD35
:101C2000051E45D12378002B42D0012249481100DE
:101C300005F0C0FD484C2378032B04D06E22290008
:101C4000494811F08FFC262103230126A51C0822F8
:101C5000694428002370667011F0B8FC20002E2122
:101C6000082269440A3011F0B1FC2000362102221A
:101C70001230694411F0AAFC3A4B1878002805D0BC
:101C8000022800D005E701F071FE02E7FF22010003
:101C900000F00EF9152005AC0822290026706844D2
:101CA00011F094FC0922210030480FF093FFF0E678
:101CB0000EF0B2FD02F090FD01212300080005AAFC
:101CC0000EF01CFE002855D12378002B52D005AB16
:101CD0001A000525013D013B002D23D18021012261
:101CE0001C48C90005F066FD1B4C2378052B04D069
:101CF000782229001E4811F035FC05230127162102
:101D000023706770023408222000694411F05EFCE1
:101D1000144B1D78002D0BD0022D00D0B9E601F038
:101D200055FEB6E69178987A013250709972D1E7F3
:101D300009200822210002AE6844377011F046FCE9
:101D400080222800110000F0B3F809223100074872
:101D5000ABE7C046000400489A0D00209D0D00200E
:101D60009C0D002042100020AE0D0020B82900205C
:101D7000A40D002000220421184805F01BFD0022BC
:101D80000221164805F016FD00220121134805F036
:101D900011FD802100221148C90005F00BFD8021B2
:101DA00000220E48090105F005FD802100220B48A4
:101DB000490105F0FFFC0022094B1A705A70094BCB
:101DC0001878904203D10200010000F071F88022DF
:101DD0000021054811F0C6FB5BE6C0460004004840
:101DE0009A0D0020421000209C0D002010B50928FB
:101DF00006D80324444303480155001942708370F8
:101E000010BDC046C0050020F7B510222349244B61
:101E1000019224484A781F00825C403F9446072282
:101E20006546012415411426254200D0B6199500B7
:101E30006D427E51013AF3D20A781F00825C203F46
:101E4000944607226546012415411426254200D0F8
:101E5000B61995006D427E51013AF3D28A78865CBC
:101E600007223000012410411425204200D06D19B2
:101E7000900040421D50013AF3D28020019A033174
:101E800018320192603340008242C2D1982300216F
:101E9000054A9B00054807F0BBFFF7BDC0050020C1
:101EA0005C0100204745010800000020E4130020E9
:101EB000F8B505000E0017000024200001343B0097
:101EC00032002900E4B2FFF791FF0A2CF5D1FFF7A9
:101ED0009BFFF8BD10B505F029FA10BDE022D20035
:101EE00010B5C26001220E4B426103608223802242
:101EF0005B004360002392008261D93AFF3AC261DD
:101F0000213A836003610362436283620363436334
:101F1000C26206F0B7FF431E9841C0B210BDC04672
:101F200000300140F0B52C4B2C4A2D4D89B02B6070
:101F30001368591C1160002B02D0002009B0F0BDBD
:101F4000280007F03BFB041EF7D18021254B4901F7
:101F50009A6902270A439A619A6903260A408021F6
:101F60000192019A5A6989020A435A615B69059094
:101F70000B40029307909020029B202303A9C005E9
:101F800003930497069605F051FB9020402303A984
:101F9000C0050393049705940696079405F046FB45
:101FA0009020802303A9C005039304970594069607
:101FB000079405F03BFB22002100192005F0CEF923
:101FC000192005F0F5F92800FFF788FF0028B4D0A4
:101FD00008204042B2E7C04600300140F40E002025
:101FE000F80E00200010024007B501210C4B0A201A
:101FF0005A690A435A6100225B690B400193110040
:10200000019B05F0ABF90A2005F0D2F900220B2064
:10201000110005F0A3F90B2005F0CAF907BDC04671
:102020000010024010B51022014911F0CFFA10BD86
:10203000F0FF0008F0B589B01422002103A811F0C8
:1020400091FA8021224B89025A6990250A435A61EC
:102050005A69ED050A4080210192019A5A69C90224
:102060000A435A615B691B4E0B4028000293002211
:102070001021029B05F09EFB00223100164805F05E
:1020800099FB022303938823002428005B0303A900
:1020900001270493059405F0C9FA1023280003A929
:1020A000039304970594069405F0C0FA03A90A481F
:1020B000039604970594069405F0B8FA22002100CF
:1020C000052005F04BF9052005F072F909B0F0BDC7
:1020D00000100240071C00000004004810B598B032
:1020E000302200210CA811F03DFA10220021684690
:1020F00011F038FA1C22002104A811F033FA01244F
:1021000020230BA80B93139406F0CEF9002801D0DE
:1021100072B6FEE70723029000930390043B210070
:102120006846019306F046FC002801D072B6FEE72F
:10213000064B069007900A9004A8049306F0D4FC7E
:10214000002801D072B6FEE718B010BD03000200EF
:1021500010B505F0CFF8FFF7C1FFFFF76BFFFFF7F2
:1021600043FF01F013FE01F06BFE01F0FFFE01F0F2
:1021700071FD10F035FB0EF0F7FE114C2000FFF75B
:1021800051FF23781B090F2B04D0052220000D4995
:1021900011F01CFAFF2211001000FFF789FE10F069
:1021A00080FA00F019FDFA200022074B40005A7017
:1021B0001A7005F0C1F8FFF73DFC00F0CBFCFAE720
:1021C0005C0F0020474601084210002072B6FEE76F
:1021D000F8B5802705000026094C7F00208800F014
:1021E000BCFB2388012807D13B43013623800234FE
:1021F000AE42F3D10020F8BD024A1340F5E7C046D5
:10220000780F0020FFFEFFFF00207047F8B5061E84
:1022100014D0002427002500EA005242705D0021FE
:102220002832FEF723F9013504430F43062DF3D17D
:10223000034922003B00086800F0F9F9F8BDC046E8
:10224000E005002010B5034B0021186800F012FAD9
:1022500010BDC046E005002010B5FFF7F3FF0020D9
:1022600010BD0000F0B58BB015000593042B58D1BC
:10227000002A56D0109B002B53D007AC2070617001
:1022800002222100284809F013F9284E23786080A3
:10229000338063787380C3B2000AF0800598B380FE
:1022A000FFF796FFC4B2002C39D1214F386800F0F7
:1022B00067FA012805D123003100059A386800F03B
:1022C000F3F90023122402930A33019302ABE418BA
:1022D000042105233000009408AA00F04BFB23885A
:1022E000042B04D0FFF7AEFF16200BB0F0BD012188
:1022F000C4B2386800F0BEF91098FFF787FF6A781B
:102300002B7812021A43AB78E9781B0413430906B1
:10231000089A1943386809BA12BA00F035FA60B25F
:10232000E3E70724FBE7C04663630000780F002063
:10233000E0050020F0B5FF2706003E408DB0040008
:10234000300000F00AFB000208AD0643EE80260ACA
:102350003E40300000F001FB00020643AE80260C38
:102360003E40300000F0F9FA240E0002064320003F
:102370006E8000F0F2FA1B4E0002204329002880F4
:102380000AAA306800F00AFA0023E93F029306AC7B
:1023900014336F44280001932200082100970F3B5B
:1023A00000F0E8FA051E05D13B88042B05D0FFF7A5
:1023B00049FF162528000DB0F0BD0B492378306881
:1023C0000B8063784B80A3788B80E378CB80237974
:1023D0000B8100F073FA41B20129E8D1306800F0B6
:1023E000D1F9E7E7E0050020780F002037B5069D1A
:1023F00004000720002A0CD0042B0AD1002D08D09D
:1024000020000095FFF72EFF002802D10798FFF764
:1024100091FF3EBDF0B58BB0079310AB069204CB95
:102420000C001B880592089312AB1B78324A099363
:1024300000239C424FD822000100304809F038F8B0
:102440002D4E6300C2B29A53631C5B00000A023433
:1024500098532000FFF7BCFE051E39D1284FA4B2C7
:10246000386800F08DF9002805D02B0022003100DB
:10247000386800F019F9099B21000293089B30008D
:102480000193059B069A0093079B00F073FA051EC3
:102490001ED19620400004F04FFF2B00059A1288B1
:1024A0009A421DD8386800F06BF900280BD0059BC4
:1024B0001A880023012A01D8002204233100386839
:1024C000DBB200F0F1F80023059A12889A420DD889
:1024D00028000BB0F0BDC55C590055520133A8E788
:1024E00006995A00C95C0133B152D7E75A00B25A73
:1024F0000699CA540133E7E7780F002063630000B0
:10250000E0050020F8B5050046680F2033091C4C93
:1025100003401C410823370A1C401A4B07403B412B
:1025200004273B4037002343174C07403C4110270A
:102530003C402343370B154C07403C4102273C40AD
:102540002343340C04401248013F2041114C3840D1
:102550000343DC401048AB683C4003400F48224036
:102560000640100073404B40584000F0E9F9AB685A
:102570006A68BB400343AA606B60E0B2F8BDC04626
:10258000C0C90600B0C80300C0220F0058E4010013
:1025900038D900000AE857EC040887005CCE29000F
:1025A000F7B500250E002C000127009001923100A4
:1025B0002141019A00983940FFF7A4FFA04001345F
:1025C0000543EDB2082CF2D12800FEBDF7B50F008F
:1025D00016001824002501903900E14032000198CE
:1025E000C9B2FFF7DDFFA040034B083CA4B205438E
:1025F0009C42F1D12800FEBDF8FF000070B50088B4
:102600000C0000F079F900220121A24202D100F071
:1026100073F970BD460BC30B7340060B4500734046
:10262000800A434028000B4018430132EDE7F7B51C
:102630000024050026002F27009201930480072321
:102640007A1E5A4000980199FDF704FF01230722E2
:102650009E4018407A40019906430098FDF7FAFE23
:1026600001239C401840023F04437B1CE7D16E606D
:10267000AC60F7BD0023038043608360012900D074
:102680008370704710B5514002800022FFF79EFF13
:1026900010BD70B55140140001220500FFF796FFF0
:1026A00044402C8070BD0000F0B505000C000E0009
:1026B0000F2785B0029353000093CB180193019B21
:1026C0009E4207D10026009BE418029BB3423FDCE8
:1026D00005B0F0BD002228001100FFF761FF6A6815
:1026E000214B110939400B4108210B40110A394097
:1026F0008C46039060461D490141042001400B4374
:10270000110039408C4660461949014110200140B2
:102710000B43110B39408C4660461649120C01419F
:10272000022001400B4314493A4011410A000121A3
:102730000A401A43114B8446D34080221B025200A8
:102740001340328803985340584030806644B6E7BF
:10275000002228001100FFF7D5FE0300B3402088B7
:10276000013658402080B0E7C0C90600B0C8030059
:10277000C0220F0058E4010038D900000AE857ECE5
:102780008078704781707047837810B5002B02D035
:10279000FFF77FFF10BDFFF775FFFBE7F0B585B0D2
:1027A0000290FF200D0018260F240B8801928A79D1
:1027B0001B061A438B8800041B061B0C1A434B880C
:1027C0001B0403401A43039203990022F14002982C
:1027D000C9B2FFF7E5FE029B083E5A68314B11096A
:1027E00021400B410821170A0B402F49274039414E
:1027F0000427394017000B432C4927403941102743
:1028000039400B43170B2A492740394102273940E9
:102810000B43120C2749224011410A00013F3A4064
:102820001A43254BD34080221B02520013405840CC
:102830002B8858403300288002350833C4D140210A
:102840000298FFF7DBFEFF26050035400400280054
:1028500000F083F8019B00020543DD80250A354026
:10286000280000F07AF8019B000205439D80250CAA
:102870003540280000F071F8019B00020543240E4A
:102880005D80200000F069F8019B00022043188061
:102890000422029800230199FFF706FF380005B0D3
:1028A000F0BDC046C0C90600B0C80300C0220F007A
:1028B00058E4010038D900000AE857ECFF220B88E1
:1028C00070B58D791B061D438B8812041B061B0CEB
:1028D0001D434B8860211B0413401D430600FFF776
:1028E0008DFE0022040011003000FFF76FFE6040F3
:1028F000401B4342584170BD03000B4A4008104042
:102900000A4A5B0013401843094A83081340094AE6
:10291000800010400343084A18091040074A1B0171
:10292000134018437047C04655555555AAAAAAAA40
:1029300033333333CCCCCCCC0F0F0F0FF0F0F0F09F
:10294000030C5840030A4340180958408308434089
:1029500058085840012318407047030C4340180A98
:102960005840030943409808584043084340012019
:1029700098437047F0B58FB0039314AB029204CB29
:10298000484C1B88049001910092002148222000AD
:10299000059310F0E7FD00220123110010009C4672
:1029A000019B984240DB0923019A3E4D534306AAFE
:1029B000138190239B001382009B059A0B93332372
:1029C0000C93394B07A85343079509950D9301F0D4
:1029D0006FFF040002F0D4FB02F04AF80228F9D09D
:1029E000283880B2072800D8002463B20193009BE6
:1029F00009211888FDF7B8FB039B80B2984206D9DD
:102A00000923039A5343009A138001230193009BE7
:102A100018882B78082822D80120029A1370009B6E
:102A2000188001980FB0F0BD049D4300ED5A0823B3
:102A30009E1A6346B340013B2B4093403541675C8F
:102A40003B4363544B1CE65C2E43551CE654072D58
:102A500001DDD51F8B1C2A0019000130A0E70921D8
:102A6000FDF782FB0022110015000E4E80B26C1C97
:102A7000335D9C46082367465B1A9F403B00775DA9
:102A80000F413B434F1CDBB2072F07DD07390235EF
:102A9000029CA35401329042E9DCC0E739002500D2
:102AA000F6E7C046F80F0020F8340000F0B51F002C
:102AB00000238DB004001600072505913B700F28F8
:102AC00031D8302207AB1A70194B07A84470029313
:102AD000002302AA019316339B18009302211023AE
:102AE00008AA03F093FA051E1DD102ABDB8A102B56
:102AF0001CD1331C102E00D21023103B102205983D
:102B000008A9DEB210F062FD059B103305933B78F7
:102B100010333B70231DDBB20C3CE4B20F2B00D80A
:102B20001C00002ED0D128000DB0F0BD0625FAE71C
:102B3000D8080100054B026810B59A4205D1044B34
:102B40001B78022B01D100F071FF10BD004801403D
:102B50004210002070B50C4C23786278134305D1E5
:102B60000A4D2B78002B02D0012B05D070BD012619
:102B7000667000F05BFF2E700223637000F056FF5A
:102B8000002363702B70F1E74210002040100020FA
:102B900070B504000D0000F011FB002803D000F018
:102BA000D7FD012070BD2900200000F047FFC0B212
:102BB000002804D0074806F0BBFD0220F2E72900F8
:102BC000200000F009F9C0B20028EBD000F024F991
:102BD000F3E7C0469C130020224B13B51B78224C10
:102BE000002B25D001212268200013688B4313603D
:102BF00096231B02636007F0B1FE002801D0FFF7A7
:102C0000E5FA0121236820001A680A431A601A684D
:102C10008A431A6096239B01636007F09FFE002899
:102C200001D0FFF7D3FA0123226811680B43136028
:102C300010232268200011680B43136080220B4987
:102C4000520007F011FF0421094B20001A68136895
:102C50008B4313606B460122D91D0A7007F070F98F
:102C600013BDC0465C0F0020B414002044100020A7
:102C700070140020102270B5244E3368D9691142B7
:102C80001BD01A62300007F0A9F9214C214D63785E
:102C9000002B0AD1023363702078032815D81E4B0D
:102CA0001B68FDF743FA0B172028022BF4D0802273
:102CB00029003000520007F0D7FE70BD5968280087
:102CC0004942C9B2FFF764FF20702378002BEED190
:102CD0006370ECE7596828004942C9B200F06EFA07
:102CE00000F036FDF1E780215B6849002800C91A31
:102CF00000F0A4FEE9E780215B684900C91A2800BA
:102D000000F06AF800F088F8DFE7C046B41400204D
:102D100042100020441000207014002010B5154C03
:102D200003006278002A08D10132627020780328FB
:102D300005D8FDF7FBF9090E1418012AF6D02378FF
:102D4000002B00D1637010BD1800FFF721FF207029
:102D5000F5E7180000F032FA00F0FAFCEFE718008F
:102D600000F06CFEEBE7180000F036F800F054F8C5
:102D7000E5E7C0464210002010B5034B0A000100F1
:102D8000180007F0DDF810BDB414002010B50A00DB
:102D9000010000200EF0B0F910BD000010B50C4B82
:102DA0005B78022B09D0032B0AD00022012B02D121
:102DB000FFF7ECFF0122100010BDFFF7DDFFF9E780
:102DC000044B0100092218000EF004FFF2E7C04690
:102DD00042100020B829002010B50400037800201C
:102DE0000A00834213D16078002811D1A378FF2B09
:102DF0000DD1E178D31D994209DC23795B18002BB2
:102E000005D1044B2100186810F0E0FBA07910BD3B
:102E10001800FCE7E4050020F0B58DB0322800D1A1
:102E200067E133D8122813D8052814D906380C289E
:102E300011D8FDF78FF96601100085011000100010
:102E400010007C011000A40010001000100083018D
:102E5000182800D145E11122C54901A810F0B6FBA0
:102E6000C44D11222C6801A92000A67910F0AEFBF8
:102E700022000023617A0136F6B2267309198A42CC
:102E800000D06FE15B421121A3703BE04A2817D0CC
:102E90000AD8402868D0B6494428DCD1112201A8BC
:102EA00010F094FB112178E0522800D158E1A028BD
:102EB000D1D1B14B1B78032B00D196E0AF4945E14E
:102EC000AC4D2C68267A002E23D1AB4F3B78012BDA
:102ED00000D08AE01922AA4901A810F077FB192234
:102EE00001A9200010F072FB20000422F91C13300D
:102EF00010F06CFB2300627A1219934204D17642DF
:102F0000A6700421286849E0D97A01337618F6B210
:102F1000F3E7012E69D1984E3378032B65D129222E
:102F2000984901A810F052FB292201A9200010F0B5
:102F30004DFB20000822B11C173010F047FB310078
:102F4000200008220A31153010F040FB2200002337
:102F5000617A09198A4202D15B42A370D1E7D07A23
:102F600001321B18DBB2F5E7824D854E2C68237ABF
:102F7000602B16D0612B4CD0302B00D179E07D4BEB
:102F80001A68D379012B02D17F4B127A1A707F49CC
:102F90000F2201A810F01AFB0F2101A8FFF7FEFE77
:102FA00023E031001022423101A810F00FFBE37B37
:102FB000002B1CD0210004227548163110F0B2FA03
:102FC000002814D06C4B9B78DB0710D4210006221C
:102FD0007048103110F0A6FA002808D01022200006
:102FE00001A910F0F3FA142363730DB0F0BD1022A1
:102FF00001A9200010F0EAFA00232200617A63732D
:1030000009198A4255D15B42A37010212868FFF745
:10301000C5FE31001022423101A810F0D7FA2C6809
:10302000E37B002B13D0210004225948163110F005
:1030300079FA00280BD0504B9B789B0707D42100CE
:1030400006225548103110F06DFA0028C6D1102222
:1030500001A9200010F0BAFA00232200617A6373FC
:1030600009198A422AD15B42A37010212868FFF710
:1030700095FE31002C682022523101A8277A10F0E9
:10308000A5FA2022200001A910F0A0FA3A4B9A7864
:10309000802A18D10123637322000023617A091961
:1030A0008A4219D15B42A37020212868FFF776FE7F
:1030B00065E7D07A01321B18DBB2A2E7D07A013281
:1030C0001B18DBB2CDE72000390103311022C918EB
:1030D0000E3010F07BFADFE7D07A01321B18DBB23A
:1030E000DEE7244B1B68DB79012B00D07DE72B4901
:1030F0004EE7204B2A491B68DB79812B00D074E70F
:1031000046E71C4B1B68DB78122B06D1254917229A
:1031100001A810F05BFA17213FE7182B00D064E7F5
:1031200021491A2201A810F051FA1A2135E71F4946
:10313000122201A810F04AFA12212EE71C4927E7B3
:103140000C4B1B68DB79FF2B06D11A49102201A812
:1031500010F03CFA102120E7632B00D045E7F4E79C
:1031600015499BE6D07A01321B18DBB287E6C046D0
:10317000833F0108E40500209A0D0020943F0108D8
:10318000713E01088A3E010845120020E33E010815
:103190009D0D0020CD0D0020D70D0020F23E01082E
:1031A000013F0108103F0108273F0108413F010886
:1031B000533F0108623F0108723F01080023F7B541
:1031C00001910199DAB28A4201D3002408E0C45C7B
:1031D0000133E02CF5D1C45C1A4B02321C70D2B220
:1031E000019B9A4229D10020FEBD0132D2B2D02BE0
:1031F00021D0B4460136F6B2002F17D0674601330E
:10320000DBB2EB5500271C19E4B2019B9342EAD0D4
:103210002978835CB142E8D1AB55E8786428E3D0E3
:103220002B78EB5CA342DFD00520DDE76146E41894
:103230006B54E4B2E9E70127E7E701260027014DD7
:10324000E6E7C046D2120020F7B51F4DEB78002B01
:1032500035D01E4C80220021206810F083F9E02236
:103260000021236808001A70103A0B0094462D784C
:1032700002009D4203D0144AD25C1018C0B24E1C0A
:103280002768F5B201957F19150010263035B54332
:10329000EDB2002D14D165463D7025680231C9B2EA
:1032A000013A6A54084A01331578DBB29D42DFD2F5
:1032B000002301312068C9B2D370FFF76FFDF7BD5D
:1032C00001993A70EEE7C04652120020EC0500204A
:1032D000064B821D1A70064A517859709178997080
:1032E000D2785871DA7000221A7170475212002099
:1032F000D212002010B50020FFF7EAFF0022014B98
:103300009A7010BD52120020012030B50C4B0D4CAC
:103310009B780D4D87B003420ED0182268460B49AA
:1033200010F054F91720FFF7D3FF694620006A799F
:1033300010F04CF907B030BD94236A461380F2E7D1
:103340005C0F00205812002052120020AF400108EC
:1033500030B50E4B0E4C9B780E4D87B0DB070ED56B
:10336000182268460C4910F031F91720FFF7B0FF1A
:10337000694620006A7910F029F907B030BD0A22A9
:103380006846064910F022F90920EFE75C0F00209B
:103390005812002052120020C7400108DF400108E7
:1033A00030B50E4B0E4C9B780E4D85B0DB070ED51D
:1033B0000A2268460C4910F009F90920FFF788FF36
:1033C000694620006A7910F001F905B030BD0D2280
:1033D0006846064910F0FAF80C20EFE75C0F002071
:1033E0005812002052120020A43F0108E9400108B1
:1033F00010B50020FFF76CFF10BD000070B5234C26
:103400006378002B3AD020780138052836D8FCF7AD
:103410008DFE03161E351616A378002B2ED01C4DDC
:103420001C48E11C0426320010F0D0F80720FFF7FA
:103430004FFF0122AA710F322E72EA7170BD164B36
:103440009B78002BFAD0124D1248A11CEAE7104DD0
:103450000822A11C0F4810F0B9F82800210008220A
:103460000A31113010F0B2F81320FFF731FF0123B9
:10347000AB711F33EB71103B2B72DFE70120FFF7BD
:1034800027FF0022024B9A71D8E7C0469A0D002010
:10349000521200205B1200205C0F0020002010B5AB
:1034A000FFF716FF0E4A1378022B08D10D4B0E4979
:1034B0009B78002B0DD101220C4B1A7110BD062BED
:1034C000F4D0052BF2D0012BF5D1927808491A429D
:1034D000F1D00622074810F025F80028EBD1EDE7DF
:1034E0009A0D00205C0F0020414501085212002077
:1034F000CD0D00204C120020002010B5FFF7E8FE93
:103500000E4A1378022B08D10D4B0E499B78002BE5
:103510000DD101220C4B1A7110BD062BF4D0052BD6
:10352000F2D0012BF5D1937808499B07F1D50622FB
:1035300007480FF0F7FF0028EBD1EDE79A0D0020C8
:103540005C0F00204145010852120020D70D0020D9
:103550004612002070B52D4D2D4C6B78022B08D0F3
:103560002B78032B05D00020FFF7B2FE0123237137
:1035700070BD284EB37B5A1CE271082B3ED009D88F
:10358000002B11D0062B24D00020FFF7A1FE03232F
:10359000237112E00C2B13D0A42BF5D10B20FFF7D5
:1035A00097FE0023237408E01420FFF791FE20000B
:1035B00019491830022210F009F86379A371D7E78E
:1035C0000D20FFF785FE01232000134923741130DD
:1035D000F0E7002323746374B07EA07400010D3003
:1035E000C0B2FFF775FEF37E802BE6D1337F822BCE
:1035F000E3D1200008221330A91CDCE70C20FFF7E0
:1036000067FE002323746374D7E7C0469A0D002039
:1036100052120020D2120020E805002010B500232D
:1036200004000B704B701034023103784278303B49
:103630001B01303A134302300B7001318442F4D144
:1036400010BD70B50C00002602340E704E700500DF
:103650000100082220000FF0B9FF33000F20EE5CBC
:103660003200310902409F2E01D90739C9B2092A17
:1036700001D9073AD2B209010A43E2540133082BB7
:10368000EDD170BD102010B5FFF722FE28490B7850
:10369000022B1AD1274B9B78002B3CD0264B5B7A10
:1036A000002B05D12548264904220FF08FFF05E0A5
:1036B000022B04D123492448FFF7B0FF10BD10228C
:1036C00000211E480FF04EFFF8E7062B10D1194BD2
:1036D0009B78002B1FD0184B5B7A002B02D1174828
:1036E0000231E1E7022BEAD10A2216481031DCE769
:1036F000052B0ED10F4B9B78002B0CD00E4B5B7A19
:10370000002BCFD0022BD9D10E490D48FFF799FFDE
:10371000D4E7012B03D001220C4B1A71CEE7064BE4
:1037200010225B7A05481B01C9180331BDE7C0466A
:103730009A0D00205C0F0020D212002058120020A9
:103740009C0D00205E120020A40D002052120020CB
:1037500010B50400642831D84F280FD8442806D863
:103760002F281BD8002841D0052800D173E0002065
:10377000FFF7AEFD00223B4B1A7137E0503814289A
:10378000F5D8FCF7C9FC51595FF4575CF4F4F4F434
:10379000F4F4F4F4F4F4F44231F43600303814283C
:1037A000E5D8FCF7B9FC2CE42FE4E4E4E4E4E4E439
:1037B000E4E4E4E4E4E4383B3E1D1D0082280FD03D
:1037C0000AD8712841D08128D1D1274BDA7999794B
:1037D0005879FEF76DFB03E0F02839D0F528C6D103
:1037E0000020FFF775FD01E0FFF784FDFFF72CFDDA
:1037F00010BD0020FFF76CFD08221A4B1A71FFF76D
:1038000083FDF3E7FFF7A4FDF0E70020FFF760FD7D
:103810002022144BB0E70022144B5A70FFF7E8FD4A
:10382000E4E7FFF7EBFDE1E71148062211490FF04D
:10383000CDFED5E71048F8E7FFF730FED6E7FFF7F3
:103840005BFED3E7FFF71EFFD0E7FFF783FECDE770
:10385000FFF7A6FDCAE70020FFF73AFD014B1C71F8
:10386000C4E7C04652120020D21200209A0D002058
:103870004C120020D71200204612002003003730DF
:10388000C0B2092B01D83033D8B27047F0B5304DF3
:103890004D222C682F49200085B00FF097FE0023A1
:1038A0002D4E4D342370062230002C490FF03AFE85
:1038B0002B4C002832D12B4BDB789B072ED5A378DD
:1038C000032B2BD10422E11C03A80FF07FFE41241F
:1038D00003AF3E782B6830091B190193FFF7CEFF29
:1038E000019B013718700F202A68631CD3183040E1
:1038F0000193FFF7C3FF019B02341870492CE8D1F4
:10390000286801210200174B3632DB780B40303338
:1039100013704E31FFF742FA05B0F0BD06223000B9
:1039200011490FF0FFFD002806D10E4BDB785B0735
:1039300002D5A378032BC5D0042223789343022B0E
:10394000EAD1084B9B78002BE6D0A11CBCE7C0460F
:10395000F0050020AE3F0108CD0D002041450108D3
:103960009A0D00205C0F00203B450108F8B5144D6E
:103970004D222C68134920000FF028FE00234D34FF
:1039800023703924104EB0782F680009FFF776FFB6
:103990000F233F193870B0782A68671C1840D71970
:1039A000FFF76CFF023438700136492CEBD12868E0
:1039B0003022030036334F211A70FFF7EFF9F8BDBC
:1039C000F0050020AE3F01089A0D0020F8B5144D17
:1039D0004D222C68134920000FF0F8FD00234D34D0
:1039E00023703924104EB0782F680009FFF746FF86
:1039F0000F233F193870B0782A68671C1840D71910
:103A0000FFF73CFF023438700136492CEBD12868AF
:103A10003022030036334F211A70FFF7BFF9F8BD8B
:103A2000F0050020AE3F01089A0D002010B571216D
:103A30000148FFF7B3F910BD4C460108F7B503780C
:103A4000040000207B2B40D16378222B3DD1A3784A
:103A5000692B3AD1E378642B37D12379222B34D1E7
:103A600063793A2B31D177292ED90500070006005A
:103A700063180193009023782C2B1CD10136F6B2E9
:103A8000032E23D10A22E178607830394A43642139
:103A90003038484323791018303BDAB2092A00D86D
:103AA0001818FDF739FC244B0022FCF709FDFCF740
:103AB000E9FCC3B20093019B0134A342DBD12A008D
:103AC00039000098FEF7F4F90120FEBD062E18D14A
:103AD00064226178E07830394A430A21303848431B
:103AE00023791018303BDAB2092A00D81818FDF7EC
:103AF00013FC0022104BFCF7E3FCFCF7C3FCC7B23D
:103B0000D9E7092ED7D164226178E07830394A4369
:103B10000A213038484323791018303BDAB2092A99
:103B200000D81818FDF7F8FB0022034BFCF7C8FC7F
:103B3000FCF7A8FCC5B2BEE70000044001210A4B17
:103B400082B09A690A439A619A690A408021009278
:103B5000009ADA6949050A43DA61DB690B4001938F
:103B6000019B02B07047C04600100240FEE7FEE72E
:103B70007047704710B503F0CDFB10BD10B503487A
:103B800003F042FD024803F03FFD10BDFC0500209C
:103B90000837002010B5034803F0DDFC024803F0AD
:103BA000DAFC10BD581300207014002010B5024834
:103BB00003F0D1FC10BDC0462C14002010B5024803
:103BC00005F03FFE10BDC0469C13002010B5024812
:103BD00005F05EFC10BDC046F80E002010B503488D
:103BE00006F0C6FAFFF746F810BDC046B414002030
:103BF00010B5024806F0BCFA10BDC046701C00208B
:103C000010B5024803F054FE10BDC0463C1500201C
:103C10000B490C4A0300521A0B4910B508680028DA
:103C200001D10A4808600868C318934206D90FF00A
:103C3000A1FC0C2303600120404210BD0B60FCE797
:103C400000040000004000205413002058380020D9
:103C5000704700000E480F4B10B503600E4BAF22AB
:103C60004360002352008360C2600361436183614B
:103C700005F000FF002801D0FEF7A8FA002201217C
:103C8000162003F06BFB162003F092FB10BDC0461C
:103C90009C13002000480140BC1B000037B5154BA9
:103CA000026805009A4223D18021134B09019A69C9
:103CB000124C0A439A619B6980220B400193019B3D
:103CC0000F4BE260236010238132FF322261802299
:103CD00063600023D2002000A3606261A361E361FE
:103CE00003F08CFB002801D0FEF770FA6C6265626D
:103CF00037BDC046002C0140001002405813002080
:103D00001C00024007B50B4B02689A4211D180217A
:103D1000094BC9029A6916200A439A6100229B69DD
:103D20000B4001931100019B03F018FB162003F0D8
:103D30003FFB07BD004801400010024010B50400E1
:103D400086B01422002101A80FF00CFC0D4B226854
:103D50009A4214D180210C4B89025A6990200A435F
:103D60005A615B69C0050B400093009B80235B0098
:103D7000019301A9FE3B0293059303F057FC06B0A3
:103D800010BDC046002C01400010024030B593B079
:103D90000822002101A80FF0E5FB1C22002103A846
:103DA0000FF0E0FB202200210AA80FF0DBFB224DE0
:103DB000224B00242B603B2328006C60AC60EB603E
:103DC0002C616C61AC6105F07DFEA04201D0FEF774
:103DD000FDF9280001A90194029406F01DF80028BD
:103DE00001D0FEF7F3F9002460232200280003A984
:103DF000039304940594069407940894099405F099
:103E0000C9FEA04201D0FEF7E1F9802328009B0102
:103E10000AA90A940B940C940D940E940F93119488
:103E200006F02CF8002801D0FEF7D0F92800FFF7A3
:103E300085FF13B030BDC046E4130020002C0140C4
:103E40000B480C4B10B50360E1235B020C2243606E
:103E5000002342618360C36003618361C3610362C5
:103E6000436206F07BFD002801D0FEF7AFF910BDDC
:103E7000B41400200038014030B5050089B0142288
:103E8000002103A80FF06EFB314B2A689A425DD1E6
:103E90008021304BC9019A6990200A439A619A693E
:103EA000C0050A4080210192019A5A6989020A4399
:103EB0005A615B690B400293029BC023DB000393B2
:103EC000022304930133069303A9023B079303F0F3
:103ED000ADFB214C214B8022236000236360A36053
:103EE00023616361A361802320009B01E260E361A1
:103EF00003F084FA002801D0FEF768F9184B6C67CC
:103F00006562184C80222360102363600023A36045
:103F100023616361A361802320009B01E260E36170
:103F200003F06CFA002801D0FEF750F980230E4A06
:103F30009B0011681B200B43136000222C671100AB
:103F4000656203F00BFA1B2003F032FA09B030BDB2
:103F50000038014000100240701400203000024080
:103F6000440002402C1400200000014009480A4B84
:103F700010B5036082239B0083800223C37100235A
:103F80004372438103F024FC002801D0FEF71EF9A0
:103F900010BDC0463C150020005C004007B50B4B2F
:103FA00002689A4211D18021094B0904DA691F2065
:103FB0000A43DA610022DB690B4001931100019B87
:103FC00003F0CCF91F2003F0F3F907BD005C0040BB
:103FD000001002400D488546FFF73AFE0C480D4997
:103FE0000D4A002302E0D458C4500433C4188C4254
:103FF000F9D30A4A0A4C002301E013600432A242BA
:10400000FBD30FF0BDFAFEF7A3F8FEE70040002057
:1040100000000020740A0020E4490108740A00200E
:1040200058380020FEE70000E02110B5052002F01E
:10403000C2FE08210C2002F0D0FE0022044BDA64FC
:104040005A649A645B6D934200D0984710BDC04695
:104050001818002070B5434CDB2063780A3B022B14
:1040600003D9C22002F05BFED52002F058FE216980
:1040700000290CD06378092B57D00D2B07D03A4B71
:1040800099424DD8C90888B2202102F07AFC236DEC
:10409000002B00D09847236B5A07D20F5201D90644
:1040A00001D540210A439B0601D580231A43E02114
:1040B000052002F0BAFE8021236B0A200B423AD081
:1040C00002F08BFE0821236B0C200B4236D002F04D
:1040D00072FEE37902211220012B32D102F07DFE23
:1040E000224D63781A000A3A022A2ED8204B1D432B
:1040F000606B431E033309D81E49FCF735F8FA23D9
:104100009B00C01880B203F029F8E064280002F098
:104110006DFF280002F096FFFF233F34237070BD2F
:10412000154BC818C00880B2AEE7C90AC9B25520FD
:1041300002F06CFDABE702F03EFEC3E702F04DFE7D
:10414000C7E702F038FE0D4DCBE704229343092B5D
:10415000CED10B4B002203210A201D4302F065FE45
:10416000C6E7C046181800203B0400007A40F00063
:1041700000080008F8340000C4FBFFFF7840F0009E
:10418000001E008070B50D000400110085420CD99E
:10419000281AFCF773F8201880B2844204D1FF2358
:1041A00098430130FF3080B270BD401BFCF766F8C9
:1041B000201A80B2A542F7D08442F5D1FF2398435C
:1041C000F2E7000010B5054B1B78FF2B04D102224B
:1041D0001E20034902F013FD10BDC04657180020F1
:1041E0005618002010B5FFF7EDFF044B1878044B6C
:1041F00080091B780002184310BDC04657180020E4
:104200005618002070B5FFF7EDFF134C05006378DA
:10421000012B20D1638B1B2B01D0152B1BD126002A
:10422000FFF7D0FF0E233F3632781A4213D0012D0C
:1042300011D12900606A02F00FFDE36A002B06D05D
:10424000FFF7C0FF3378E26A1B075B0F1380282358
:1042500063833233237670BD18180020094B07B5ED
:104260001B782120002B0BD0002280210B3002F084
:10427000F7FD002803D06B46981D02F054FA002089
:104280000EBDC0461818002010B502F0A3FB041E96
:1042900030D102F0EBFE4021012002F070FD200041
:1042A00007F0A0F803220220110002F0BEFDFF215A
:1042B000114A124B117001221A808822D2009C529E
:1042C0001A005C3214701A006C3211701A001C83D0
:1042D0005C609C60DC601C611C751C64DC645C645C
:1042E0009C641C655C659C657D32803314701C7019
:1042F000FFF7B4FF200010BD571800201818002049
:104300001FB57C4C2378002B19D0FF2800D1A07852
:10431000A070FF2900D1E1786378E170073B012BA1
:1043200010D863780F200D2B0AD81800FBF7FEFE7B
:10433000070F0F2D2D2D4053538BB807CC9E2120F6
:1043400004B010BD02F052FA0028EAD0F8E70820C5
:1043500007F048F80220A378FF22FF30EA2B12D999
:104360001B011340184307F03DF88120FF22E3783A
:104370004000EA2B00D801331B011340184307F01B
:1043800031F80020DCE70133EAE7082007F02AF8DB
:10439000A378FF225848EA2B08D91B011340184381
:1043A00007F020F8FF22E3785448E2E70133F4E70E
:1043B000082007F017F8A378FF225148EA2B08D904
:1043C0001B011340184307F00DF8FF22E3784D4816
:1043D000CFE70133F4E7E37807201A001532D2B2B1
:1043E000012AADD8A27811001431C9B20129A7D889
:1043F000ED3A51424A4102A8EB3B02705A42534106
:104400006946436007F0B6F8009B01A85A784270ED
:104410009A788270DA78C2701B78037002F028FBF9
:10442000082006F0DFFFA378FF223748EA2B08D9DF
:104430001B011340184306F0D5FFFF22E3783348F1
:1044400097E70133F4E7082006F0CCFFA378FF22BA
:104450002F48EA2B08D91B011340184306F0C2FF6E
:10446000FF22E3782B4884E70133F4E7092006F0C4
:10447000B9FFA378FF222848EA2B0FD91B0113406C
:10448000184380B206F0AEFFFF22E3782348EA2B00
:104490002ED91B011340184380B270E70133EDE7BA
:1044A000092006F09FFFA378FF221D48EA2B09D9B7
:1044B0001B011340184380B206F094FFFF22E378FB
:1044C0001848E4E70133F3E7092006F08BFFA378EF
:1044D000FF221548EA2B09D91B011340184380B26B
:1044E00006F080FFFF22E3781048D0E70133F3E7BE
:1044F0000133CEE71818002001020000020200007C
:10450000010400000204000001100000021000007D
:1045100001080000020800000188FFFF0288FFFF79
:104520000181FFFF0281FFFF0184FFFF0284FFFF83
:10453000F8B56A4E070033780C0015002120002BD7
:1045400013D01A38FF2910D0FF2A0ED07B1E083056
:104550000C2B0AD81800FBF7E9FD09252B42516006
:104560006D6D76A607B38C001820F8BD04210220DB
:1045700002F021FC0821032002F048FB0220FF305A
:1045800006F030FF8120400006F02CFF3278131C2B
:10459000012A00D802232900200033707770FFF72A
:1045A000AFFEE2E70421022002F005FC2021E2E751
:1045B0000421022002F0FFFB1021032002F026FB61
:1045C0000022FC21062002F030FC0022F02107200E
:1045D00002F02BFC424806F005FF4248D4E70421D4
:1045E000022002F0E8FB1021032002F00FFB002262
:1045F000FC21062002F019FC2022E7E7042102201A
:1046000002F0D9FB1021032002F000FB0022FC2164
:10461000062002F00AFC3022D8E70421022002F032
:10462000CAFB1821032002F0F1FA2F4806F0DAFE47
:104630002E48A9E70421022002F0BDFB2C4806F019
:10464000D1FE2C48A0E70221032002F0DFFA00226D
:104650000421122002F0E9FB6021A92002F091F967
:104660008021152002F0D2FA234806F0BBFE234831
:104670008AE7BA21032002F0C9FA0021552002F08E
:10468000C5FA00220421122002F0CFFB6021A920EC
:1046900002F077F98021152002F0B8FA184806F0E8
:1046A000A1FE184870E70421022002F084FB882153
:1046B000032002F0ABFA144806F094FE134863E7B7
:1046C0000421022002F077FBA021032002F09EFAD1
:1046D0000F4806F087FE0F4856E7C046181800201E
:1046E00001020000020200000104000002040000B8
:1046F0000110000002100000010800000208000084
:104700000188000002880000018100000281000091
:104710000184000002840000094B10B51C780200DF
:104720002120002C0BD05C78002C08D0002A01D06E
:1047300098781070002901D0DB780B70002010BD34
:104740001818002010B5041E04D0012807D0074B0C
:10475000DC7110BD8021452002F02DFBF7E784229B
:104760008F21452002F04CFBF1E7C04618180020CD
:10477000034B044A984200D9180010617047C046A4
:10478000F8FF070018180020014B18697047C04651
:1047900018180020FF23034A9B01984200D91800F3
:1047A000D060704718180020034B044A984200D983
:1047B000180090607047C0468074D9041818002013
:1047C000044B01201B6C10B5002B02D0180002F026
:1047D000CBFC10BD18180020802270B511000220FB
:1047E00002F03EFB2125002848D0254C2378002BE1
:1047F00044D0022006F0F6FD08220220110002F04B
:104800002FFB002803D000252379AB4228D10021BB
:10481000552002F0FBF901220321022002F005FBE2
:104820000326FF22237D11003340C82002F002F846
:10483000320031000500022002F0F7FA207D072146
:104840000130FBF717FD082221750220110002F04C
:1048500007FB2071002803D04821022002F0BDFA96
:10486000A06800280AD0074B984200D218000549DA
:10487000FBF77AFC80B202F071FC2064280070BD66
:1048800018180020F834000010B5084C237E002BC7
:1048900001D0FFF7C9FB4821022002F08CFA032067
:1048A00006F0A0FD0020207110BDC04618180020A1
:1048B00070B5051E01D1072070BD624C2378012B15
:1048C00001D82120F8E708220220110002F0C8FADE
:1048D000002806D163780A3B022B02D92B68002BF3
:1048E000EFD123001C3307CD07C307CD07C32A68C8
:1048F0001A60E368002B2FD063785A1E012A00D873
:1049000091E0CA256D00032B04D0153DFF3D072B18
:1049100000D0403D0821122002F04DFA6378032BAD
:1049200010D1002204210A2002F09AFA002809D0AE
:1049300008214C2002F051FA14221F214620803514
:1049400002F073FAE3680421AB4202D35B1B9B09BC
:10495000D9B20F2002F05AF9606B431E033368D8B6
:10496000E3689842A7D96278012A5FD0022A5DD015
:10497000B4231B01032A0ED0062A02D04023092AA1
:1049800009D1A378013B5A1E934188225B425B0AFE
:104990005B02D2009B18C0182B4B984200D918001C
:1049A0006063800901F0B6FF032323700833237688
:1049B000093B63836378E169073B012B3BD8220005
:1049C000224B1C32E31861CA61C361CA61C3126819
:1049D0001A601F4BE358002B00D01E4B63628223EA
:1049E0005B0123858723DB00E25808231A402B3321
:1049F00013432363002923D1FFF72CFB04226378A0
:104A00009343092B06D10821022002F0D4F9E420B7
:104A100002F085F9D12002F082F9E32002F07FF95B
:104A2000512323760CE08A256D0073E7A0239B00B9
:104A3000B1E70020B6E70029DED0238C002BDBD0C5
:104A4000002039E71818002000F0FF0F24040000B0
:104A50002C040000301A002045220020034B1B7E4E
:104A60000B3BDBB29A424041C0B27047181800209D
:104A7000034B02201A7E002A00D1588B7047C04693
:104A800018180020F0B585B0FFF7F2FF04000228E7
:104A900057D02F4E2F4D33681B789C46002B1DD0CE
:104AA0002B002A00B0331F6801936346B4321168AB
:104AB0000878395C194139541168019B08781F68DE
:104AC0003668395C3678B140395428001268196864
:104AD0001278AC308B5C007803438B541D2C13D1BF
:104AE00002ABD91D202002F084F82B00B4331A68E1
:104AF00002ABDB791B0913702B00B8331A6802ABC9
:104B0000DB791B075B0F1370042002F0A8FA012168
:104B1000052002F050F90220AB78FF22FF30EA2B8B
:104B200012D91B011340184306F05CFC8120EB787E
:104B3000FF224000EA2B09D91B011340184306F05D
:104B400051FC200005B0F0BD0133EAE70133F3E783
:104B5000D01800201818002070B5384C384B228827
:104B600021209A422BD1FFF783FF0500022825D090
:104B700004282BD0D12002F0D2F8D52002F0CFF8B3
:104B80002300FF223F331A70002D19D12300C933AF
:104B90001A780132D2B21A7014235343D5331B1939
:104BA000636202222420110002F05AF900280DD07D
:104BB00002236383013323704E332376022070BDBA
:104BC0002200CA32137801331370EAE72300D4338A
:104BD0001B78E3712300C4331868002813D0230026
:104BE000C833197800290ED02300C9331B78002B55
:104BF00009D00A1C994200D91A1CD3B214221149B7
:104C00005A430EF0E3FC2300CC331B68002B03D087
:104C10002200C93212781A702300D0331B68002B8F
:104C200003D02200CA3212781A70C834064A2368A8
:104C300013405A42534158422840C0E718180020F8
:104C400003060000ED18002000FFFF00402210B511
:104C50001100312002F004F910BD0000134B212097
:104C60001A7810B5002A20D01A0000215C32117089
:104C70009B798B4203D04031203802F080F801F05C
:104C8000F0FCFFF701FE0D21082002F0A6F8082134
:104C9000032001F0BBFF064802F0E1F9054802F0ED
:104CA000A5F9072006F09EFB002010BD1818002073
:104CB0008000001F0800001FF7B5254C1E00237858
:104CC00005000F0021200192002B26D012380D2D57
:104CD00023D0102D22D008380C2D1ED101214018D0
:104CE00002F069F8CE2002F01AF8C822FB21032056
:104CF00002F09BF82021052002F05DF8D12002F09F
:104D00000EF8A36E1348184302F0A1F9FFF79EFFB7
:104D100000280CD1FFF7A2FF2520FEBD05210820A9
:104D200002F049F8CE2001F0FAFFE822DEE7230086
:104D30005C331D700423237023000020019A276731
:104D4000A66774337C341A8030802070E5E7C04653
:104D5000181800202019F000074B002903D01A0072
:104D60006C3212780A70002803D01A007C32127854
:104D700002705C33187870471818002070B5874DA2
:104D800006002B78002B02D12124200070BD2B00BF
:104D900000227C331A70701E0F28F5D8FBF7D0F96B
:104DA00010005600D700F4FFAE00EA00F500F50051
:104DB000CE00F500F700FC00FC00D700EA00FC0084
:104DC0004021022002F009F8C22001F0A8FF2B6E5A
:104DD0005B0506D50121082001F0EDFFCD2001F093
:104DE0009EFF2B6EDB0403D50421082001F0E3FFB6
:104DF0002B6E9B0408D503210122080002F015F850
:104E00000821022001F0D7FF01242021644205205F
:104E100001F0D1FF200002F022F9AB6E6048184388
:104E200002F015F92B006A6E6C33FB21D2B203201D
:104E30001C7001F0FAFFFFF709FF041E06D1C8211C
:104E4000022001F0B8FF5C352E709EE78022022020
:104E5000110002F005F8002813D1C021023001F042
:104E6000BCFF10223120110001F0FAFF00280BD105
:104E70000A21803002F080F8002805D102260324A0
:104E8000E1E7802002F0B2F82B6E9B041AD40024D4
:104E900002262B005C331B78062B06D1012108204B
:104EA00001F089FFCD2001F03AFFDB2001F037FF50
:104EB000D12001F034FFAB79002B19D1002C00D0A8
:104EC00069E7C0E7C22001F02AFF032101220800A0
:104ED00001F0ABFF0821022001F06DFF40223120DC
:104EE000110001F0BDFF0028D1D101242600D0E738
:104EF00040210120194301F042FFDFE72C006C3410
:104F00002078010001F072FC0121082001F065FF0A
:104F100021780C200A00FFF70BFB04230400DB20A0
:104F20002B7001F0FCFED12001F0F9FEF02000040E
:104F300002F05CF8102002F085F884E72B006C3357
:104F400019780C200A00FFF7F3FA04007BE72C0025
:104F50006C342078010001F049FC0421082001F0A4
:104F60003CFF21780A200A00FFF7E2FA042304003C
:104F70002B7068E70121082001F02FFFF0200004CA
:104F800002F034F8102002F05DF800245BE7042101
:104F9000082001F022FFF8E70524F6E618180020A3
:104FA000A019F000F0B58BB01E0010AB019204CB3D
:104FB0006D4C1B880700039323780D00212002927B
:104FC000002B0FD0230000225C331A70A2666266A9
:104FD0007B0547D5914204D00B78042B05D0072BD5
:104FE00002D007200BB0F0BD102230210A2001F0C2
:104FF0001CFF0A22691C04A80EF0E8FA29000A2006
:1050000004AB0222C0180B310EF0E0FA2A786B7B59
:10501000042A24D1190091430A0004A90A73042226
:1050200093430A004B738B7310000F2101F029FE8C
:10503000C8224D4B0C25596E0A435A669822996E28
:1050400052050A439A6680233A001B011A400092D7
:105050001F4209D0019B1820002BC3D1C1E70422B5
:105060001A43DAE70D25EEE7FB042DD5002EB8D064
:105070003100022204A80EF0A9FA04ABB11C1122DF
:10508000981C0EF0A3FA04AB009A18001521DA74EC
:105090001A7501F010FE354B334E1B78002B09D1E9
:1050A000334B0C210493334B04A80593324B0693E6
:1050B00001F01BFE0423726E9D43DC3313437366C1
:1050C000B26E2E4B1343B366BB0418D50823626E31
:1050D0009D43E133134380210A20636601F06BFE98
:1050E000227D03210A2001F0A0FE207D072101304E
:1050F000FBF7C0F81023A26E21751343A3661A4B69
:1051000005205A6E120600D46CE704221A70029A27
:1051100000241A671A00039974321180129A1F66CC
:105120009A67148080227C3352001A800D212A0055
:10513000033001F07AFE2200E021122001F075FE1A
:105140000821122001F049FE02210F2001F05EFD2E
:10515000E021052001F02FFE062006F043F9012092
:10516000FFF70CFE20003DE71818002095180020DE
:10517000123456789ABCDF21436587A910000018C5
:10518000F0B5AF4C8DB02578042D00D15AE3052D34
:1051900001D100F05EFD032D6FD1E06C002806D038
:1051A00001F0E2FF002802D05A2365832376FFF73F
:1051B00053FC0300207E002B00D14BE10023099318
:1051C000637E834200D060760B38092800D934E131
:1051D000FAF7C0FF0A000C0014001B0072009700D1
:1051E000A600F700040123010C232376FFF7E8FA59
:1051F000002842D0002323640D33237604216378F2
:105200008B43092B33D10E232376FEF723FF9C23F8
:1052100065785B002387EB1F208C012B5DD88423EE
:105220000022DB00E2521833E158013207308B09CB
:1052300016008A43C1088348083D059080208000FD
:10524000049081489E430290804833000190684258
:1052500045417F4E00950396E06906F0A3F90028CA
:105260000DD00D280BD060831423237605E00A00AF
:10527000242001F0F5FD0028C5D00DB0F0BD608FF1
:10528000C00080B201F028FB3000A18F01F0C8FC03
:105290006379002B04D040210120194301F06FFDF8
:1052A00063780A3B022B05D8FFF7D0FC25230028A2
:1052B00000D1A7E00F232376A36D002B1DD1236B14
:1052C000C520DB0700D4C42001F029FDA18F628F27
:1052D00012239142C9D2023BC7E7C31DDB08638793
:1052E00001F0FAFA8022618F92000B1C914200D9E2
:1052F000131CE06999B2A387C8E798470028DED15C
:10530000BBE7482001F072FE0990099B002BB4D046
:10531000099B5B0675D5099B1B0772D41123237665
:105320006778E169638FA28F258F0791F91F9B1A18
:105330000BAE01293DD89D4200DD9DB20023012224
:10534000338087231000DB00E1588B09984303006A
:1053500082208A43218C800007310596C9082E1CC3
:10536000854200D9061CB6B20496374E083F029615
:10537000364E374D01967E42774107980395009748
:1053800006F010F9002802D00D2800D06BE72800A5
:105390000BAB198801F044FC0BAAA38F1288618F14
:1053A0009B189BB21222A387994200D9023A227617
:1053B00063E79D4200DD1D00079BA9B2318098186C
:1053C000E8E7482001F012FE0990099B002B00D16C
:1053D00053E7099B1B0710D513232376626AA37931
:1053E000002A11D1002B03D04021012001F0C7FC7D
:1053F000FEF71AFE0023638337E7099B5B0600D59F
:105400003BE7032363832FE7002B04D040210120D7
:10541000194301F0B4FC512327E7638B022B01D120
:1054200006336383A379002B03D04021012001F0D0
:10543000A6FCFEF7F9FD002317E70823E2E7C046C4
:105440001818002054180020381C00205218002082
:10545000301A0020502800D80FE70A93637E834259
:1054600000D060765138092800D9E8E1FAF772FED9
:105470000A00B0011D00490068018C00CD00CF0179
:105480006601A0010023E26AA38763879A4200D0E5
:1054900013800A2001F062FE04226378A064934323
:1054A000093B5A1E93415233DFE6BA4801F09EFD94
:1054B0000A900A9B002B00D1DFE60A9B5B0406D50D
:1054C0000A9B9B0603D4042363835A23CDE60A9BDD
:1054D0001B0509D50A9B9B0606D4042362789A43D0
:1054E000092AF1D02133EFE70A9B9B0619D5322018
:1054F00001F034FE5423A84A23760A9B60641340CB
:105500000A93A64801F072FD0A9B18430A900A9B71
:10551000002B08D1606C01F027FE09230028D3D1AD
:10552000ABE60323D0E702250A9B2B4219D080204B
:10553000C00101F05BFD021EC5D12900242001F04D
:105540008FFC0028BFD1203001F050FD0422312013
:10555000110001F085FC002801D0542385E6532377
:1055600083E60A9B5B0604D50A9BDB0601D4552320
:105570007BE60A9B1B01F2D4894801F037FD0A9BA8
:10558000184356230A9023760A9BDB0206D509238B
:1055900063834E332376FEF735FE6EE663781A009A
:1055A000093A042A04D90A9A920201D5052BEED1B0
:1055B0000A9A520203D51B2363833C33EAE70A9A13
:1055C000120203D5152363834233E3E70A9A520795
:1055D00003D51D2363833A33DCE70A3B022B04D84F
:1055E0000A9B1B0501D525236EE70A9BDB0698D590
:1055F0002500FEF7E7FD0E233F352A781A4200D139
:1056000088E01A33638357232376FEF7EBFD236B81
:1056100001009B0709D4638FC21892B2002A04D0FC
:10562000022800D87EE0023989B2628F238D8A1861
:1056300092B20733A58F6287DB089A4206D95B1BBB
:1056400099B2638B022B01D1013B6383606A4019DD
:1056500001F002FBE26A002A15D0638F2500DB000F
:105660001380FEF7AFFD0E233F352A781A420AD089
:10567000FEF7A8FD08222B78E16A1B075B0FD21A00
:105680000B889B1A0B806278D31F012B3BD8658B4C
:10569000022D38D100230BA80380083A86235642F6
:1056A0007241DB00E35A618F03928822D200A25A32
:1056B0003C4E0292A259073301923B4A0090A258F5
:1056C000606ADB0806F04EF8002801D015280CD1DE
:1056D0008723DB00E3589B0707D4A2591388590797
:1056E00003D10F2B01D9103B138023002F4A1C3309
:1056F000A218C2CAC2C3C2CAC2C312681A600028B2
:1057000000D005006583042263789343092B0FD1F1
:105710004F33AAE5FEF756FD2B78DB0700D472E77E
:1057200009236FE7022B00D87FE7023B63877CE702
:10573000638B022B00D0C8E659232376A37951E668
:10574000322001F00BFD6064FEF74CFD628F238D6B
:10575000821892B20733050006006287DB089A427E
:1057600002D9A28F9B1A9EB2A38F606A3100C01823
:1057700001F072FAA38FF318A387B54204D9A91BCD
:10578000002089B201F068FA2300FF223F331A702B
:10579000E3E6C04620480000DFBFFFFF52080008D4
:1057A0000400F000340400002C0400002404000075
:1057B000A379002B03D04021012001F0E0FAFEF78D
:1057C00033FC638B022B00D035E60633638332E66D
:1057D000B64801F00BFC0A900A9B002B06D1A06C86
:1057E00001F0C2FC002800D0FDE646E50A9BDB0480
:1057F00001D5532323760A9B5B0403D504236383DB
:10580000563323760A9B002B00DB36E5EBE6C020FF
:10581000C00001F0EBFB0A900A9B002B00D12CE5A5
:105820000A9B9B0505D5638B023B5A1E9341593356
:105830001BE50A9B5B0500D473E61D2344E60823A1
:10584000638330E623005C33187801380F2800D9D1
:1058500013E5FAF775FC10002100160112FDCD00CA
:10586000370112FD12FD12FD12FD12FD940194018B
:10587000EA013701940180256D01280001F0B6FB93
:105880000B900B9B002B00D1F7E40B9B2B4200D11C
:10589000F3E40220FFF772FA854801F0A7FB0B90B2
:1058A0000B9B002B00D1E8E40B9BDB0513D52420D8
:1058B0000AA901F09EF9202202AB9B181B781B0954
:1058C0001A1C022B00D90222202102AB5B181A708D
:1058D00023006C331A700B9B1B0508D523007C3307
:1058E0001B78002B03D10120FFF748FAC5E40B9B7E
:1058F0001B0106D523006C331B78FF2B01D005203C
:10590000F2E70B9BDB065AD523006C331B78FF2B89
:1059100055D0684801F06AFB0B900B9B1B0205D425
:105920000B9B5B0202D40B9BDB020AD5DB2001F050
:10593000F6F9D12001F0F3F90821022001F03BFA39
:105940009BE4236E9B0403D5BA21032001F05EF98A
:10595000A56F00F0CCFF2300288074331B88A26F52
:1059600007331288DB08191C934200D9111C206FE1
:1059700089B201F071F9A36F1A88022A0AD92300AB
:105980006C331B78002B05D1216F4B4805F090FD3F
:105990000028CBD1A26F1388191C022B00D9022139
:1059A0005B1ADB001380230001207C331870A3797D
:1059B000002B00D161E4402101F0E1F95DE40B9B93
:1059C000DB0000D459E423006C331B78002B00D09B
:1059D00053E4236E5B0500D44FE40AAC2100212080
:1059E00001F007F923780320012B00D845E47BE779
:1059F000324801F0FBFA0B900B9B002B01D1FFF713
:105A00003CFC0B9B1B0500D56DE70B9BDB0635D5DE
:105A1000B020000401F0EAFA0B9B18430B900B9B9B
:105A20001B0202D40B9BDB0207D5DB2001F077F9C8
:105A3000D12001F074F9FFF720FCA56F00F057FFAB
:105A40002300288074331B88A26F07331288DB0879
:105A5000191C934200D9111C89B2206F01F0FCF887
:105A6000A26F1388191C022B00D902215B1ADB00DC
:105A7000138001237C342370FFF7FFFB0B9BFFF7A0
:105A8000FCFB0F4801F0B2FA0B900B9B002B01D1ED
:105A9000FFF7F3FB0B9B1B0500D524E70B9B0620B0
:105AA000DB0101D4FFF7E9FB1EE7C0460050008090
:105AB000100900181008F0086363000010080008BF
:105AC000000800018120000101F090FA0B900B9B6F
:105AD000002B01D1FFF7D1FB0B9B1B0500D502E783
