:020000040800F2
:1000000000400020293A0008893500088B35000897
:1000100000000000000000000000000000000000E0
:100020000000000000000000000000008D35000806
:1000300000000000000000008F3500089135000826
:10004000793A0008793A0008793A0008793A0008C4
:10005000793A000899350008793A0008793A000899
:10006000793A0008793A0008B1350008C935000826
:10007000793A0008793A0008793A0008793A000894
:10008000793A0008793A0008793A0008793A000884
:10009000793A0008793A0008D9350008793A000819
:1000A000793A0008E9350008793A0008F93500087E
:1000B0000D360008793A0008793A00081D36000824
:1000C00010B5064C2378002B07D1054B002B02D02E
:1000D000044800E000BF0123237010BD800A002007
:1000E00000000000CC690108044B10B5002B03D0C0
:1000F0000349044800E000BF10BDC04600000000F6
:10010000840A0020CC6901080023C25C0133002A64
:10011000FBD1581E7047000003B4714649084000E7
:100120004900095E49008E4403BC70470022430821
:100130008B4274D303098B425FD3030A8B4244D3AF
:10014000030B8B4228D3030C8B420DD3FF220902F1
:1001500012BA030C8B4202D31212090265D0030BB0
:100160008B4219D300E0090AC30B8B4201D3CB03A6
:10017000C01A5241830B8B4201D38B03C01A5241E8
:10018000430B8B4201D34B03C01A5241030B8B42EA
:1001900001D30B03C01A5241C30A8B4201D3CB02D5
:1001A000C01A5241830A8B4201D38B02C01A5241BA
:1001B000430A8B4201D34B02C01A5241030A8B42BD
:1001C00001D30B02C01A5241CDD2C3098B4201D3D5
:1001D000CB01C01A524183098B4201D38B01C01A53
:1001E000524143098B4201D34B01C01A52410309CA
:1001F0008B4201D30B01C01A5241C3088B4201D379
:10020000CB00C01A524183088B4201D38B00C01A25
:10021000524143088B4201D34B00C01A5241411A4C
:1002200000D20146524110467047FFE701B5002059
:1002300000F0F0F802BDC0460029F7D076E770471D
:1002400003460B437FD4002243088B4274D3030937
:100250008B425FD3030A8B4244D3030B8B4228D3D8
:10026000030C8B420DD3FF22090212BA030C8B42FE
:1002700002D31212090265D0030B8B4219D300E09E
:10028000090AC30B8B4201D3CB03C01A5241830B23
:100290008B4201D38B03C01A5241430B8B4201D3D3
:1002A0004B03C01A5241030B8B4201D30B03C01AFC
:1002B0005241C30A8B4201D3CB02C01A5241830A76
:1002C0008B4201D38B02C01A5241430A8B4201D3A5
:1002D0004B02C01A5241030A8B4201D30B02C01ACF
:1002E0005241CDD2C3098B4201D3CB01C01A524136
:1002F00083098B4201D38B01C01A524143098B42BF
:1003000001D34B01C01A524103098B4201D30B01A7
:10031000C01A5241C3088B4201D3CB00C01A5241CC
:1003200083088B4201D38B00C01A524143088B4291
:1003300001D34B00C01A5241411A00D2014652412A
:10034000104670475DE0CA0F00D04942031000D349
:100350004042534000229C4603098B422DD3030A9E
:100360008B4212D3FC22890112BA030A8B420CD3AE
:10037000890192118B4208D3890192118B4204D3D7
:1003800089013AD0921100E08909C3098B4201D357
:10039000CB01C01A524183098B4201D38B01C01A91
:1003A000524143098B4201D34B01C01A5241030908
:1003B0008B4201D30B01C01A5241C3088B4201D3B7
:1003C000CB00C01A524183088B4201D38B00C01A64
:1003D0005241D9D243088B4201D34B00C01A52413B
:1003E000411A00D20146634652415B10104601D3C8
:1003F0004042002B00D54942704763465B1000D352
:10040000404201B5002000F005F802BD0029F8D0F7
:1004100016E770477047C04670B500220C4B0400C9
:100420000D0000F0A5FF002804D12000290000F0F5
:1004300001FF70BD064B00222000290000F0F0FAF9
:1004400000F0F8FE80231B069C466044F1E7C0469E
:100450000000E041F0B557464E46DE464546E0B561
:100460001F000B031B0B16009A46CA0F4B0004001B
:10047000914685B05B0D00D1CFE1CD4A934255D076
:100480005146420FC9000A43802109041143C200AA
:100490009046C84A8A4693469B440023002502930F
:1004A0003C037B00FA0F0196240B5B0D009200D1F8
:1004B00088E1BF4A934200D192E0BE4A9446634429
:1004C0009B440A2D42DCE400730F234380244946F9
:1004D00024041C43F3000193009B00205940CBB23D
:1004E0000393022D00DC94E00123AB401D00A62302
:1004F0002A00DB001A401D4200D029E290239B0015
:100500001D4200D14DE20023802499462403A84BCC
:1005100010004A461B052343D2071343190005B0B8
:10052000F0BCBB46B246A946A046F0BD52460243C7
:10053000904600D0ACE19B460223924608250293E8
:10054000AEE7009BA2469946019B9846029B022B70
:1005500000D1CAE1032B00D192E1012B10D100237D
:1005600000240022D4E701227B083A40134352467C
:10057000D2071343984653465B089A46039B994615
:100580005B46581C8023DB005B44002B00DCB1E1A0
:10059000424652070BD00F2241460A40042A06D099
:1005A0004246111D4145924188465242924452466C
:1005B000D20106D55246804B1A4080239246DB007A
:1005C000C3187E4A934200DD8FE14246D10852466D
:1005D00052070A4351465B054C02240B5B0D97E71B
:1005E000734B26439C46E344002E00D16FE1032366
:1005F00049461D43009B5940CBB203930A2D00DDB1
:1006000033E10123AB401D000323029388222A42D9
:1006100097D1424643461204120C160001981D0C55
:10062000030C0004000C4643B4461E006E430096C3
:10063000160007005E436146B0466F430E0CB84497
:100640004644B74205D9802149028846009F474465
:10065000009761460904090C370C36048C463100BA
:10066000614401911100260C2404240C61438C4642
:100670002100694389466146090C884672434A4411
:1006800042447543914503D9802149028846454437
:10069000110C884661460904090C8C461204624418
:1006A000B91802915146090C8C4651460F043F0C73
:1006B0003900414345448846614641438A464146A4
:1006C0006046090C894658437B4353444B449A4542
:1006D00003D98021490289464844190C894641467C
:1006E0000904090C8846390061431B0443448846C9
:1006F00061464C4371438C46414677430E0C3F198B
:10070000F6194844B44203D9802149028946CC44B1
:100710000299009F894631044F44894641469742D9
:1007200092410C04240C4C44FF1852426419A11845
:100730009F429B41884682465B4299469045924142
:10074000AC42A441C244D14452426442144399454C
:100750009B41824592415B42524213434A46360CCA
:10076000A419E31863445B02D20D1A43019992461F
:100770007A020A43501E8241FF0D17434A46520235
:100780001743B846DB0100D5EDE60D4B039A5B44F9
:100790009146002B00DCACE03A00520700D110E794
:1007A0000F2258463A40042A00D0F9E609E7C0462D
:1007B000FF07000001FCFFFFFFFFFFFEFE07000038
:1007C000FF030000220032436FD0002C00D1C2E0B2
:1007D000200000F0D7FD020003000B3A1D20821A12
:1007E00030001900D04008398C4002002243340008
:1007F0008C405946CB1A86498B469B440A2D00DD16
:10080000A4E64946009B01945940CBB21400002055
:100810000393022D00DD67E6FBE65346034398464B
:100820003CD05346002B00D1A3E0504600F0AAFD77
:100830000B235B429C460200844411005046083959
:1008400088401D23804660461B1A2000D8400300C4
:10085000404603439A4623008B4098466C4B002544
:100860009B1A9B46002302931AE60F2D00D0C9E085
:10087000802352461B031A4202D01C4200D192E050
:100880008024534624031C4324034246240B3EE6A3
:100890009B46032380460C25029301E600239A46DB
:1008A0009B46013304250293FAE501210D430A2DED
:1008B00000DD4BE6494600984140C9B20391022D44
:1008C00000DC96E000230024012001930CE6494659
:1008D0000223009A2B435140CAB203920A2B00DD37
:1008E00034E6002D57D1039B994600240022494B42
:1008F0000EE658460121C91A382900DD2FE61F29C6
:1009000056DD1F2254465242D31ADC40202907D01C
:10091000414B42469C465346604483401A439046AE
:1009200042460721531E9A410B00224313400024E4
:10093000114209D00F231340042B5DD0111D9142A9
:100940009B410A005B425B07D2081A430023DFE5A4
:10095000039B9946FAE5019800F014FD020003009C
:10096000153220331C2A00DC38E7019A083882400F
:100970003FE700F007FD15239C46844402006346D0
:1009800020321C2B00DC58E700239846230008384F
:1009900083409A4662E71D00002300240220019351
:1009A000A2E5029032E61C43009B019A9946AEE50F
:1009B0001A4B5246C31840469A40C840024340462C
:1009C00098400300581E834154461A43CC405307B5
:1009D00009D00F231340042B05D0131D93429241DD
:1009E0005242A4181A00230208D501230024002231
:1009F0008EE5894600248BE50023A5E763076402A2
:100A0000240BA1E7009BA2469946019B984637E735
:100A10000DFCFFFFFF0700003E0400001E04000065
:100A2000F0B557464E464546DE46E0B583B00090E9
:100A300001910C034D00CE0F610A009C5F00640F12
:100A40000C43009900920193C80019037B0D99464D
:100A5000019BCC4FDB0F9C464B0A00998046490F07
:100A60001943009B8B46DA0092466D0DB94500D1C3
:100A7000BFE00123614659404B468C46EB1A8E423B
:100A800075D0002B00DCA3E24946002900D1CEE05E
:100A9000BD4200D100E20127382B19DC80275946DE
:100AA0003F0439438B461F2B00DDFAE12027F91A5A
:100AB0008C4659466746B9400F001100D9400F4394
:100AC00061468A40511E8A415946D9401743641AEB
:100AD000C71BB84280414042241A230200D440E19F
:100AE0006402640A002C00D154E1200000F04AFCAA
:100AF0000300083B20213800CA1AD0409C40020065
:100B00009F4022439D4200DDA6E1581B0130091A97
:100B10003C008F40C4407B1E9F4113008B40274305
:100B20001F43C2403B0014000025134300D1F7E1EE
:100B30007B0700D177E30F2338003B40042B04D020
:100B4000381DB842BF417F42E419230200D468E354
:100B50008C4B01359D4200D1F4E08B4B6D051C4060
:100B60006D0D6707C00864020743240BECE0002BFF
:100B700000DC29E34946002900D0D6E0594611435C
:100B800000D12EE1591E012B00D1E6E1BB4200D17C
:100B900082E101270B00382914DC1F2B00DD3CE229
:100BA0002027F91A8C4659466746B9400F001100B4
:100BB000D9400F4361468A40511E8A415946D94067
:100BC000174364183F18874280414042241823028B
:100BD00000D4C6E06B4B01359D4200D1B2E001214B
:100BE000694B7A081C4039400A43E70717436408F9
:100BF0009EE7664B11438A46EB18002928D06645CC
:100C00002CD0002B5BD0002D00D12CE15B4666463A
:100C10005F07D2081743DD083B002B4300D1E2E019
:100C2000802424032C432403564D240B8CE0594686
:100C3000114300D1D5E0591E012B00D1B9E1BB42CF
:100C400000D1B1E101270B00382900DD40E72AE798
:100C50006146012779408C466645D2D1002B00D1F0
:100C6000C5E0002D00D055E14B462500054300D1DD
:100C700012E2591E8C46012B00D149E2414DAB4294
:100C800000D18FE20127382911DC63461F2B00DDDC
:100C90005BE26146202327005B1A050098409F40D5
:100CA000CD40431E9841CC402F430743A344BF1877
:100CB0009742924152425A4414004D4687E7344FBE
:100CC0006B1C3B4200D0B6E05946230011430F0095
:100CD0000343002D00D026E1002B00D1C0E1002904
:100CE00000D1A1E0831A98465B464045AD41E31A26
:100CF0006D425B1B80252D042B4200D14BE15B46EE
:100D0000101A824292411C1B070001266346524280
:100D1000A41A27431E40002F00D142E12C4200D1EB
:100D20006DE2194B01251C401BE7BD4200D13BE1A0
:100D30000127382B00DD45E7802759463F0439431A
:100D40008B462AE7002400272D052543F607354367
:100D50003800290003B0F0BCBB46B246A946A04605
:100D6000F0BD7B0704D00F233B40042B00D0E7E607
:100D70002B00F808034A67070743E508934200D1B0
:100D80004AE7A5E0FF070000FFFF7FFF01F8FFFF34
:100D9000FE070000380000F0F5FA030018331F2B9F
:100DA00000DCA7E63A00083882409D4200DD8AE078
:100DB0005B1B581C1F2800DCD8E117001F3BDF40DD
:100DC000202805D040231B1A9A40531E9A411743EE
:100DD0000025002F00D1E5E07B0700D0ABE62C001A
:100DE000C6E7C008C6E700270024D14DACE7D14FC5
:100DF0006B1C3B4271D123000343002D00D04EE118
:100E00005746002B00D1B5E1002F0DD08318834247
:100E100080415C4440422418220200D5C8E11F00F2
:100E20009846274300D1BCE043466707DB081F43D1
:100E3000E50800234CE0831A98465B464045BF41D5
:100E4000E31A7F42DB1B1F027CD447461F4300D1BD
:100E5000A6E01C00474645E6B74CED1A14407B0758
:100E600000D080E784E74B462500054366D05F1E2F
:100E7000012B00D1FCE0AE4DAB4200D15EE16646F5
:100E8000382F00DCB4E00120171ABA4292415B46C9
:100E900052424D469C1A20E66707C0080743E50802
:100EA000BAE61F005946203FF9400F00202B05D01D
:100EB0004021CB1A594699400A43924653465A1E3E
:100EC00093411F4304E6EB1A9B4D15406F07ED0855
:100ED0002C035D05240B6D0D36E7954DAB4200D11B
:100EE000D6E08218210082428041594440420818CD
:100EF000C707520817434408520700D485E10F2260
:100F00001D003A40042A00D01AE6FF086407274370
:100F10000509DDE75B46D2085F071743DD087BE67E
:100F20000027002410E7002B00D0D6E0002900D0D5
:100F30002FE1802400267E4D240305E766465C46AB
:100F4000D00817E75B46171ABA4292411C1B0126CC
:100F500063465242A41A1E40C4E58318834280416E
:100F60005C44404225182A0200D4DAE0724A5B0849
:100F70001540EA071A4369085B0700D44AE10F23CA
:100F80001340042B00D1FCE0171D9742A44164429A
:100F900002256418ECE647461C001F4300D043E7D7
:100FA000002600250024CFE6C00867070743E508B0
:100FB00032E6871A5B46B8428041E41A4042241A5E
:100FC000230228D46307FF081F43E50801237FE7B6
:100FD000002B00D173E64B465F1B3B00002D00D178
:100FE00042E7382F00DDECE080230E001B041C4399
:100FF0001F2F25DC20252300ED1B0100A840AB405E
:10100000F940451EA8410B43FC4018435B461B1B9F
:101010009B4639E76646012562E51F005946203F99
:10102000F9408C46202B05D040275946FB1A9940A1
:101030000A43924657467B1E9F4163461F43C1E5C4
:101040003B002500203BDD40202F04D04023DB1B4C
:101050009C40204380464046431E9841284313E766
:1010600000299DD0012663465C4690461E40DBE683
:10107000171A5B46BA4292411C1B5242A41A230221
:10108000C8D46307FF081F4366460123E5081FE72E
:101090001D000024002757E65C46D0086AE6002BB6
:1010A00000D137E75346C00867070743E508002B20
:1010B00000D1B1E580231B031D4208D05946C80862
:1010C000184204D1D20849070A43170005007B0FD4
:1010D000FF00FF085B071F439EE5C0086307184336
:1010E000E508002953D080231B031D420AD059462E
:1010F000CC081C4206D1012663462500D0084907CA
:1011000008431E40470FC000C0087F07074383E520
:101110008318934292415C445242A5182A0200D59A
:1011200024E76F07DB081F43ED080123D0E6C04624
:10113000FF070000FE070000FFFF7FFF5B46D208AD
:101140005F0766461743DD0866E52500203BDD4066
:101150006346202B05D0402361465B1A9C40204308
:10116000804647467B1E9F412F43A0E52021002754
:10117000091AD2E4002F00D113E75C4617000025BE
:10118000F6E5D708490702230F432D09A0E607001B
:1011900042E55B4601265F07DD086346D208174338
:1011A0001E4039E55B46D2085F071743DD0833E58B
:1011B0001E4ADB0822405707520201251F43140B29
:1011C000C2E50E0001205FE6002B0DD04B465B1BF5
:1011D0009C46002D00D148E50127382B00DD66E54F
:1011E00080231B041C4350E56B1C114D2B4200D087
:1011F00073E65946230011438A46034300E6670716
:10120000C00800230743E50862E66407FF08274398
:1012100005095DE6D208490711430F0002232D0995
:1012200056E60700A4E538008FE4C046FFFF7FFFC5
:10123000FE0700000B00020070B5164D0C0382B0D3
:101240004900002000920193240B490DDE0FA942B2
:1012500004DD1148814203DD104BF01802B070BD6F
:101260008020400320430E4C641A1F2C08DD0D4BD8
:101270005B1AD84003005842002EEFD11800EDE76A
:10128000094B009A9C46030061448B40E2401343A3
:10129000F1E7C046FE0300001D040000FFFFFF7FD2
:1012A0003304000013040000EDFBFFFF70B50028BD
:1012B00016D0C317C5185D40C40F280000F062F8AF
:1012C000104B1B1A5B055B0D0A2814DC02002E0074
:1012D000153296400B22121AD5402D032D0B03E038
:1012E00000240023002500261B052B43E40723438D
:1012F0003000190070BD0B3885402D0300262D0BE2
:10130000F2E7C0461E0400008446100062468C4688
:101310001900634600E0C0461FB500F005F900283B
:1013200001D40021C8421FBD10B500F049F8404269
:10133000013010BD10B500F0F7F8002801DB0020E7
:1013400010BD012010BDC04610B500F0EDF800281A
:1013500001DD002010BD012010BDC04610B500F019
:1013600073F8002801DC002010BD012010BDC0462C
:1013700010B500F069F8002801DA002010BD012046
:1013800010BDC0461C2101231B04984201D3000C50
:1013900010391B0A984201D3000A08391B099842E8
:1013A00001D30009043902A2105C40187047C046FE
:1013B000040302020101010100000000000000001E
:1013C000F0B55746DE464E464546E0B50D000400F2
:1013D000E80F83460903D80F090B824619488C464B
:1013E0001F0369005E00490D3F0B760D814218D046
:1013F00086420FD00120B1420DD1BC450BD19442A1
:1014000009D1D3451CD0002905D160462043431E95
:10141000984100E00120F0BCBB46B246A946A04678
:10142000F0BD01208E42F6D1614639430F001743CB
:101430002743F0D15B465246981A431E9841EAE78B
:101440000020E8E7FF070000F0B557464E46454646
:10145000DE46E0B50D000E034900490D8A46DF0F58
:10146000E90FBC4683B02F4F04008046019158001D
:1014700019039146360B090B400DBA451DD0B842F1
:101480000DD05746002F2AD13443002824D10A43D7
:1014900036D0002C41D163465800013815E0114385
:1014A00038D15346002B01D12643F4D0019B63452C
:1014B00007D1019B5800013807E026432AD1504547
:1014C00021D00120019B5F42384303B0F0BCBB46F2
:1014D000B246A946A046F0BD002CDCD0E6E70028C5
:1014E000EFD0019B6345ECD18245EADCE1DB8E4223
:1014F000E7D8DED1C845E4D80020C845E5D2D8E712
:10150000002CE2D0DDE7114304D1019B6345D8D123
:101510000020DAE702204042D7E7019B6345E6D08E
:10152000CFE7C046FF070000F0B557464E46454698
:10153000DE46E0B50D000E034900490D8A46DF0F77
:10154000E90FBC4683B02E4F04008046019158003D
:1015500019039146360B090B400DBA451ED0B8420F
:101560000DD05746002F27D13443002833D10A43EA
:1015700034D0002C40D163465800013815E01143A7
:1015800012D15346002B01D12643F4D0019B634571
:101590001DD00120019B5F42384306E0264303D162
:1015A0005045F6D111431CD0022003B0F0BCBB461D
:1015B000B246A946A046F0BD0028EAD0019B63458B
:1015C000E7D18245E5DC02DB8E42E2D80ED0019BFA
:1015D00058000138E9E7002CCDD0D7E7002CE4D043
:1015E000D7E7019B00206345DFD0D2E7C845D0D8BC
:1015F0000020C845D9D2EAE7019B6345E4D0C8E79B
:10160000FF07000010B590B06B46DC1C0023237070
:1016100010F06CF902F018FF23000AAA0121002043
:1016200010F088FD002802D12378002B58D101202A
:1016300011F0FEF802F008FF11F032F900280DD188
:101640006B46033305AA012111F0E0F9002805D10A
:101650006B4603331B78002B00D0F7E011F0B2FA91
:1016600002F0F2FE6B46033301AA0121012011F0C2
:101670002DFB002805D16B4603331B78002B00D0CF
:1016800012E1A24C00220421200006F043FA0022BD
:101690000221200006F03EFA00220121200006F07F
:1016A00039FA80210022C900200006F033FA802197
:1016B00000220901200006F02DFA802100224901B4
:1016C000200006F027FA924800230370437002308E
:1016D0008022002114F010FD02F018FF10B010BDA0
:1016E00001220421894806F015FA0AAC21792D203F
:1016F000684414F01DFC0100864B180014F0FEFB3A
:101700002379042B18D1844804222D21694414F034
:10171000D3FC002809D17E4B9B78032B0ED17C4B48
:1017200001225A7002F0F2FED8E77B4804222D21F4
:10173000694414F015FD01E0072B26D0744B0122FB
:101740005A700AAB5B7D002B26D10AAB1B78002BAD
:1017500066D10AAB9A7812025B7813431BB2042B52
:101760003CD0442B28D0022B69D1694B1B78012B2C
:101770004DD1674B01221A70684B1B78012B4CD05E
:10178000022B5CD101F01CFD59E0654807222D2198
:10179000694414F0E5FCD1E729216944522010F096
:1017A000C3F80028D1D10AAB19792B226A442D3015
:1017B000684410F0C9FBC8E70AAB1B79072B3ED180
:1017C000534B1B78022B03D1514B02221A7036E087
:1017D00053488022002114F08FFCF5E74C4B1B7816
:1017E000012B0BD14A4B01221A704C4B1B78012B59
:1017F0000AD0022B23D101F0E3FC20E048488022EC
:10180000002114F079FCEDE701F0E0F9F3E744483A
:101810008022002114F070FCABE701F0D7F9B1E7AA
:10182000012B09D0202B0DD020229343402B06D131
:10183000374B1B3A1A7002E0354B05221A7002F042
:1018400065FE4BE7324B05221A70F8E701220121B1
:101850002E4806F05FF92E4B1B78032B1BD12C4C26
:1018600003232370023B6370A01C082216216944E5
:1018700014F076FC20000A3008221E21694414F07E
:101880006FFC05AB5B8A6382244B1B78022B08D06C
:1018900002F03CFE22E723486E22002114F02CFCCB
:1018A000DDE701F02BFDF3E701AA0D236B440924CA
:1018B0006C44917818789070013B59700132A342C2
:1018C000F7D180210122C900104806F023F9104BFE
:1018D0001B78042B11D10E4804230370033B437083
:1018E000023008226B46991D14F03AFC0B4B1B7812
:1018F000022B08D002F00AFEF0E60B487822002105
:1019000014F0FAFBE7E701F021FDF3E700040048DB
:10191000A00A0020146A0108A30A0020E80C002095
:10192000A20A0020B40A0020AA0A002010B582B042
:10193000DBB2044C0194049C009400F057FB80B28D
:1019400002B010BD9271859430B587B030246D46D9
:101950002C758000091869750021029132310191BE
:10196000203969440091022105A800F059FB80B29A
:1019700007B030BD10B5092806D844002418034824
:10198000015500194270837010BDC046D805002073
:10199000F0B5DE4657464E464546E0B583B02F4E7D
:1019A0002F4D10239A462F4B9946012013219B4619
:1019B000019380235B009846009608E0009B033368
:1019C000009318239C46E2446035C24537D0009B03
:1019D0009C465B784A46D75C2C00403C07223B0083
:1019E000134103405E4273415B428B43283308C47A
:1019F000013AF4D263461B785A46D75C2C00203C4F
:101A000007223B00134103405E4273415B428B431C
:101A1000283308C4013AF4D263469B78019AD75C14
:101A20002C0007223B00134103401E007342734108
:101A30005B428B43283308C4013AF3D2BEE79823B4
:101A4000094A0A489B00002108F020FF03B0F0BCBF
:101A5000BB46B246A946A046F0BDC046D805002008
:101A600058010020186F01081800002010110020F4
:101A7000F8B507000E00150000242B0032003900D5
:101A80002000FFF777FF0134E4B20A2CF5D1FFF70D
:101A90007FFFF8BD10B505F07DFD10BD10B5104BF2
:101AA000036082235B00436000238360E022D20056
:101AB000C260036101224261802292008261D93AB0
:101AC000FF3AC261036243628362213AC2620363E6
:101AD000436307F0C1FE431E9841C0B210BDC0462B
:101AE00000300140F0B589B02C4B2D4A1A602D4AC8
:101AF0001368591C11600020002B01D009B0F0BD03
:101B0000264808F0CAFA03000020002BF6D1264B25
:101B10009A69802149010A439A619A690A400192AF
:101B2000019A5A69802189020A435A615B690B4014
:101B30000293029B20230393022704970024059419
:101B40000326069607949025ED0503A9280005F0C5
:101B5000CFFE40230393049705940696079403A9A8
:101B6000280005F0C5FE802303930497059406968C
:101B7000079403A9280005F0BBFE002200211920CC
:101B800005F020FD192005F04FFD0448FFF786FF02
:101B9000431E9841404207239843AFE7280B00209B
:101BA00000300140240B00200010024000B583B03B
:101BB0000D4A516901231943516152691340019340
:101BC000019B002200210A2005F0FCFC0A2005F000
:101BD0002BFD002200210B2005F0F4FC0B2005F06A
:101BE00023FD03B000BDC04600100240F0B5C6465C
:101BF00000B588B01422002103A814F07DFA264B0A
:101C00005A69802189020A435A615A690A4001923D
:101C1000019A5A698021C9020A435A615B690B40E3
:101C20000293029B9025ED0500221021280005F06B
:101C300071FF1A4B98461A4E00221900300005F029
:101C400069FF0223039388235B0304930024059414
:101C500003A9280005F04CFE1023039301270497E5
:101C60000594069403A9280005F042FE4346039319
:101C700004970594069403A9300005F039FE00226C
:101C80000021052005F09EFC052005F0CDFC08B0E4
:101C900080BCB846F0BDC04600100240071C0000E2
:101CA0000004004800B599B0302200210CA814F0BF
:101CB00023FA1022002107A814F01EFA1C2200218A
:101CC000684614F019FA20230B931F3B13930BA8BB
:101CD00006F0CAFF002819D107230793043B089395
:101CE000002309930A93012107A807F0BFFA0028EF
:101CF0000ED1094B00930023029303930693684689
:101D000007F068FB002805D119B000BD72B6FEE7E8
:101D100072B6FEE772B6FEE70300020010B505F0EA
:101D20001DFCFFF7BFFFFFF761FFFFF73FFF01F06B
:101D300047FD01F0A3FD01F03DFE01F09DFC13F015
:101D400055FA11F08DFB13F0ADF900F0AFFD064B25
:101D500000225A701A700021FF20FFF789FEFFF75A
:101D600051FC00F067FDFAE7E80C002072B6FEE7D0
:101D7000F8B5CE46474680B50F1E19D004000025A1
:101D80000E4B984680235B00994607E023884A461D
:101D90001343338001350234AF4209D02600208836
:101DA00000F069FC0128F1D0238842461340F0E797
:101DB0000020C0BCB946B046F8BDC046FFFEFFFFDC
:101DC00000207047F8B500281ED0282100250024E7
:101DD00020270DE07B1A1600DE4033008A402A439C
:101DE000234315001C00013008390E00083607D0C7
:101DF00002780B00203BEDD416009E403300EDE747
:101E00000249086800F042FAF8BDC046F805002013
:101E100010B5034B1868002100F085FA10BDC046CC
:101E2000F805002010B5FFF7F3FF002010BD0000FB
:101E300070B588B01500042B64D1002A66D00C9BC5
:101E4000002B65D007AC2070617002222100314860
:101E50000AF0F4FB0300A070020A92B2E2702E486E
:101E60002178018061784180FF210B408380C2800E
:101E7000FB39FFF77DFFC4B2002C44D1274B186813
:101E800000F0F0FA012831D02348002302930A33EE
:101E900001931A266E440096053B05AA042100F022
:101EA000F7FB3388042B29D1C4B21C4E30680121C2
:101EB00000F039FA0C98FFF785FF05AB9A7812020B
:101EC000597809040A43D9780A431B781B061A4338
:101ED000A97809026B781B041943EB7819432B7816
:101EE0001B061943306800F0C1FA0CE00A490B4B9D
:101EF00018680023042200F02FFAC5E7FFF788FFD7
:101F0000162001E0072460B208B070BD0724FAE78C
:101F10000724F8E7636300001C0C0020F80500208C
:101F2000F0B58DB00400FF252F000740380000F009
:101F3000A2FB08AE00020743F780270A2F403800B3
:101F400000F099FB00020743B780230C1D402800D6
:101F500000F091FB000205437580240E200000F084
:101F60008AFB0002204330801E4B18680AAA310009
:101F700000F086FA002302931433019302336B447A
:101F80000093052306AA0821300000F081FB041EFF
:101F90001CD116236B441B88042B1AD1124906ABA3
:101FA0001A780A805A784A809A788A80DA78CA80C1
:101FB0001B790B810B4B186800F00EFB40B2012817
:101FC0000BD1084B1868012100F04EFA20000DB02B
:101FD000F0BDFFF71DFF1634F8E7FFF719FF1624D1
:101FE000F4E7C046F80500201C0C002000B583B0C3
:101FF000002A0ED0042B0ED1049B002B0ED0009390
:102000000423FFF715FF002806D10598FFF788FF86
:1020100002E0072000E0072003B000BD0720FBE737
:10202000F0B5DE4657464E46C0B586B00E001700E6
:1020300005930EAB04CB91461B889A4610AB1B78D8
:102040009B460A1E07D03B4D0024035D2B800134C4
:1020500002359442F9D33200010037480AF0EEFA13
:10206000030034487200FF2119401152721C5200C3
:102070001B0A1352B11CFFF77BFE041E06D0200082
:1020800006B0E0BCBB46B246A946F0BD2B4B186873
:1020900000F0E8F9002840D10236B1B225485B468D
:1020A0000293534601934B460093059B3A0000F080
:1020B000EFFA041EE3D19620400005F071FA4B467A
:1020C0001B88002B09D01B4A0023F95C11800133C7
:1020D0000232494609889942F7D8184B186800F02F
:1020E000C1F900280AD04B461A880023012A1DD9BD
:1020F000DBB210491148006800F02EF94B461B88EE
:10210000002BBCD00B4A00231188F9540133023252
:10211000494609889942F7D8B1E7B21C92B20549FD
:10212000064B1868002300F017F9B5E700220423D6
:10213000DEE7C0461C0C002063630000F8050020A9
:10214000F8B5040045682B090F2003401B4E1E41C3
:10215000082333402E0A0640194F374104263E40DB
:10216000334306002E40174F374110263E4033437D
:102170002E0B0640144F374102263E4033432E0CAF
:102180003040124F0741012637403B43104FDF409C
:102190003E40A3680F4803400F4805406B404B404A
:1021A00032401000584000F059FAA3685B00034326
:1021B0006268A2606360F0B2F8BDC046C0C90600A4
:1021C000B0C80300C0220F0058E4010038D9000055
:1021D0000AE857EC040887005CCE2900F8B5CE4623
:1021E000474680B507000E009146002500240123D4
:1021F000984631002141434619404A463800FFF7CE
:102200009FFFA0400543EDB20134082CF1D1280016
:10221000C0BCB946B046F8BDF8B5CE46474680B515
:1022200080460F001600182400250A4B99463900F5
:10223000E140C9B232004046FFF7D0FFA04005435D
:10224000083CA4B24C45F2D12800C0BCB946B04607
:10225000F8BDC046F8FF000070B50C00008800F023
:10226000D9F9002C0FD0002201264100C30B450BE9
:102270006B40050B6B40800A434033401943080014
:1022800001329442F1D100F0C5F970BDF0B5DE46DF
:1022900057464E464546E0B58046944600220280A9
:1022A000002500262F240732924619329346012733
:1022B0001CE05A46501A814618004A469040814612
:1022C0006046C84001004A46114317E05A46521A78
:1022D0001800904081466046C84001004A461143BC
:1022E00039406D000D43023C611C13D0611E524603
:1022F000514008002038DCD41900C1403940760034
:102300000E4321005246514008002038DED4190007
:10231000C140E5E743465E609D60F0BCBB46B24607
:10232000A946A046F0BD00230380436083600129D5
:1023300000D08370704710B5028051400022FFF733
:102340006BFF10BD70B50500140051400122FFF76E
:1023500063FF44402C8070BDF0B5DE4657464E46C4
:102360004546E0B585B0060003919346029390463A
:10237000002A4ED00D0000270F24344B9A46082324
:1023800099460197002200213000FFF727FF2B8894
:10239000584080B2288073681A0922405146114182
:1023A0000A0049460A40190A21408C4628496746D6
:1023B00039418C460421674639400A4321001940BF
:1023C0008C462449674639418C461021674639407E
:1023D0000A43190B21408C461F49674639418C46F8
:1023E0000221674639400A431B0C23401B4919410F
:1023F00001230B401A431A4BD3401B028022520088
:10240000134058402880019B013301930235434516
:10241000B8DB029D002D12D05B465F00039B9C46FB
:1024200067440024002200213000FFF789FE0300EA
:10243000A3403888584038800134AC42F2DB05B004
:10244000F0BCBB46B246A946A046F0BDC0C90600D6
:10245000B0C80300C0220F0058E4010038D90000C2
:102460000AE857EC807870478170704710B5837820
:10247000002B02D0FFF766FF10BDFFF75CFFFBE704
:10248000F0B5DE4657464E464546E0B583B001906E
:102490000C0091468A790B881B061A438B881B0611
:1024A0001B0C1A434B881B04FF2109040B401A43E1
:1024B000904618260F25424B9B4608239A464146D4
:1024C000F140C9B20022019F3800FFF787FE238840
:1024D000584080B220807B681A092A405946114131
:1024E0000A0051460A40190A29408C463549674678
:1024F00039418C460421674639400A432900194076
:102500008C463149674639418C461021674639402F
:102510000A43190B29408C462C49674639418C46A1
:102520000221674639400A431B0C2B4028491941B8
:1025300001230B401A43274BD3401B028022520039
:10254000134058402080083E023433000833B6D18F
:102550004021019F3800FFF77FFE0400FF252E0079
:102560000640300000F087F8000206434B46DE804C
:10257000260A2E40300000F07EF8000206434B464B
:102580009E80230C1D40280000F075F800020543D2
:102590004B465D80240E200000F06DF800022043C1
:1025A0004B4618800023042249463800FFF7D4FE2A
:1025B000012003B0F0BCBB46B246A946A046F0BD20
:1025C000C0C90600B0C80300C0220F0058E40100D3
:1025D00038D900000AE857EC70B506008D790B88F1
:1025E0001B061D438B881B061B0C1D434B881B04BD
:1025F000FF22120413401D436021FFF72DFE04004B
:10260000002200213000FFF707FE6040401B4342DC
:10261000584170BD030040080A4A10405B000A4A56
:10262000134018438308094A13408000084A1040A9
:1026300003431809074A10401B01074A1340184377
:102640007047C04655555555AAAAAAAA3333333305
:10265000CCCCCCCC0F0F0F0FF0F0F0F0030C4340BC
:10266000180A58400309434098085840430843401B
:10267000012018407047030C4340180A58400309D2
:10268000434098085840430843400120984370470E
:10269000F0B5DE4657464E464546E0B58FB080461B
:1026A0000C0002910592039318AB04CB91461B8852
:1026B000049355484822002113F01EFD201E35DDED
:1026C000002301338342FCDB00250024002708237C
:1026D0009B464D4E073B9A46019005E015001C00B5
:1026E0000137019B9F4217DA7B004246D25A5B4674
:1026F000591B53468B40013B1340AB40305D0343B5
:102700003355631C0A41F15C0A43F2546A1C072AE0
:10271000E4DD073D0234E3E7029BDA009C466244B5
:102720000732D210002301339342FCDB364A079272
:102730000299CB008C46634406A90B810992902331
:102740009B000B824B460B9333230C932F4B049A25
:1027500053430D9307A801F0EFFE040002F0C8FAFE
:1027600002F006F80228F9D0283883B207229A42EC
:102770009B411C4063B298464B4618880921FDF7DF
:10278000D5FC80B2039A904206D9D30094466344A4
:102790004A461380012398464B46188808280DD9CD
:1027A0000921FDF7C3FC84B2002100220025164F49
:1027B0000820A246A346059B9C460CE0124B1B78C2
:1027C000059A1370012415E022001D0063465E5433
:1027D00001318B450DDD6B1CFE5C841AA6407C5DCF
:1027E00014412643F6B2541C072CEDDD073A02359E
:1027F000ECE754464B461C8040460FB0F0BCBB464D
:10280000B246A946A046F0BD9C0C0020F83400005A
:1028100010B5064B02689A4200D010BD044B1B78DD
:10282000022BFAD100F0BAFDF7E7C046004801409C
:10283000E80C002010B50E4A13785278134316D1D5
:102840000C4B1B78002B02D0012B07D00FE0084B5C
:1028500001245C7000F0A2FD064B1C70044C0223A6
:10286000637000F09BFD00236370024A137010BD7B
:10287000E80C0020E40C002070B504000D0000F00E
:10288000F3F8002807D12900200000F093FDC0B222
:10289000002804D170BD00F0FBFB0120FAE70248DC
:1028A00007F0CCFC0220F5E7C810002010B582B07C
:1028B0000D4C2268136810210B43136080220B49D2
:1028C0005200200008F0B0FF094B1A681368042179
:1028D0008B4313606B46D91D01230B70012220002E
:1028E00008F08EF902B010BDE0110020EA0C0020C3
:1028F0009C11002010B5284B1A68D369DB0600D460
:1029000010BD10231362244808F0D4F9234B5B78E0
:10291000002B23D1214B02225A70204B1B78012B14
:1029200025D0022B2ED0002B11D11D4B1B685968CE
:102930004942C9B21B4C2000FFF79EFF023C2070A9
:10294000164B1B78002B02D1144B00225A708022A8
:1029500014491148520008F067FFD1E7022BDCD080
:10296000802210490C48520008F05EFFC8E70C4B6B
:102970001B6859684942C9B20A4800F075F800F06E
:1029800087FBDDE7064B1B685B6880214900C91A9D
:10299000044800F00FFDD3E7E0110020E80C002010
:1029A0009C110020EA0C002010B5134B5B78002B23
:1029B0000FD1114B01225A700F4B1B78012B12D0F3
:1029C000022B15D0002B0DD1FFF756FF0A4B1870C4
:1029D00001E0012BF0D0084B1B78002B02D1064BF5
:1029E00000225A7010BD00F03FF800F051FBF2E7F2
:1029F00000F0E0FCEFE7C046E80C002010B50A004C
:102A0000024B0100180008F0FBF810BDE011002097
:102A100010B50A00402904D00100002010F0F6FD96
:102A200010BD0132F8E7000010B50D4B5B78022BAA
:102A300009D0032B0BD00022012B02D1FFF7E8FFB6
:102A40000122100010BDFFF7D9FF0122F9E7054B65
:102A500009220100180011F05DFC0122F1E7C046D7
:102A6000E80C0020E4260020F0B5CE46474680B5AD
:102A7000002950D0020000231478E02C09D0013343
:102A8000DBB201329942F7D10020C0BCB946B04652
:102A9000F0BD5A1CD2B2875C224A17709A1CD2B27F
:102AA00091423AD00333DBB20124002291461D4DFE
:102AB000A846AC460DE046463255D719FFB2013460
:102AC000E4B201E0012291465A1CD2B2994226D0CA
:102AD00013005A1ED2B22E78A64210D0825CD02AA1
:102AE000F0D04E46002EE6D00132D2B266463255C4
:102AF000D719FFB20134E4B200229146E4E7825CC8
:102B0000084B1A55D8786428BFD01A789B5CBB4212
:102B1000BBD00520B9E70800B7E70020B5E70020E3
:102B2000B3E7C046FC0F0020F0B5D6464F464646F8
:102B3000C0B5244BDB78002B04D1E0BCBA46B146CB
:102B4000A846F0BD204C80220021200013F0D4FACA
:102B5000E02323701B4B1D78002100230024194A19
:102B6000944610229246184A91461600D02290466A
:102B70000BE04A1CD2B24746B7540231C9B2013801
:102B800070540133DBB2AB4212D820009D4203D017
:102B90006246D05C0419E4B2020030325746BA43B0
:102BA000D2B2002AE5D00131C9B24A465054E8E712
:102BB000044B0022DA700131C9B20348FFF734FF39
:102BC000BBE7C0467C0F0020FC0E002010B588B08B
:102BD000FFF728F9444B00229A70444B1B78002BD6
:102BE0003CD0434A434B0093042300216020FEF76E
:102BF0009DFE00280AD13C4C3E492000333006227D
:102C000013F0AEFAA37801221343A370384A394B6C
:102C10000093042300216120FEF788FE00280AD1DA
:102C2000314C344920003D30062213F099FAA37844
:102C300002221343A37000222C4B1A702A4B9B785C
:102C4000032B37D0284B9B78002B02D1264B8022B8
:102C50009A700120FFF7B4F808B010BD244A264B43
:102C60000093042300216020FEF760FE00280AD1B3
:102C70001D4C214920003330062213F071FAA3784D
:102C800001221343A3701A4A1C4B00930423002112
:102C90006120FEF74BFE00280AD1134C1749200093
:102CA0003D30062213F05CFAA37802221343A3708E
:102CB0000122C1E70F3303AA01210020FEF744FEE1
:102CC0000F4C102203A9200013F04AFA122303AA82
:102CD00002210020FEF738FE20001030102203A948
:102CE00013F03EFAAEE7C046A00A00209C0A00207E
:102CF000A30A00201000002008000020000000208F
:102D0000B30A0020064B821D1A70064A517859708A
:102D100091789970D278DA7000221A7158717047E0
:102D20007C0F0020FC0F002010B50020FFF7EAFF09
:102D3000014B00229A7010BD7C0F002030B587B087
:102D4000114B9B78DB0711D56C46104B220023CB2F
:102D500023C223CB23C21720FFF7D4FF0C48831FC5
:102D60005A79210013F0FCF907B030BD94236A466C
:102D700013800120FFF7C6FF0548831F5A79694673
:102D800013F0EEF9F0E7C046900B00203C6A010812
:102D9000820F002030B587B0134B9B78DB0711D52D
:102DA0006C46124B220023CB23C223CB23C2172015
:102DB000FFF7A8FF0E48831F5A79210013F0D0F9BE
:102DC00007B030BD6C460B4B220003CB03C21B88FF
:102DD00013800920FFF796FF0548831F5A792100C9
:102DE00013F0BEF9ECE7C046900B0020546A0108CE
:102DF000820F00206C6A010830B585B0134B9B78B8
:102E0000DB0711D56C46124B220003CB03C21B8893
:102E100013800920FFF776FF0E48831F5A7921009F
:102E200013F09EF905B030BD6C460B4B220023CB4E
:102E300023C21B7813700C20FFF764FF0548831F23
:102E40005A79210013F08CF9ECE7C046900B002072
:102E5000E4690108820F0020786A010810B500209B
:102E6000FFF750FF10BD10B50020FFF74BFF10BD5E
:102E700070B51F4B5B78002B05D01D4B1B78012BC9
:102E800008D0032B1BD00120FFF73CFF194B002279
:102E90009A7170BD164B9B78002BF4D0154C200016
:102EA00009301549042213F05BF90720FFF72AFFC8
:102EB00004232372033BA3710F33E371E9E70D4C45
:102EC0000B4D20000930A91C082213F049F92000FD
:102ED000113029000A31082213F042F91320FFF7BC
:102EE00011FF0123A3711F33E371103B2372D0E75D
:102EF000A00A00207C0F0020A30A002010B50020AB
:102F0000FFF700FF0B4B1B78012B0ED1094B9B7871
:102F1000DB070AD508490948062213F0CDF8002836
:102F200006D0074B01221A7102E0054B01221A71EB
:102F300010BDC046A00A0020D30A0020F40E0020D5
:102F40007C0F002010B50020FFF7DCFE0B4B1B7838
:102F5000012B0ED1094B9B789B070AD508490948DC
:102F6000062213F0A9F8002806D0074B01221A7197
:102F700002E0054B01221A7110BDC046A00A0020D4
:102F8000DD0A0020EC0E00207C0F002010B5102080
:102F9000FFF7B8FE084B1B78012B03D0074B01222B
:102FA0001A7110BD064B597A0901064BC91806481B
:102FB000102213F0D5F8F4E7A00A00207C0F0020BF
:102FC000FC0F0020A30A0020820F002010B52C4B1C
:102FD0005B78022B03D02A4B1B78032B12D1294B91
:102FE0009B7B294A591CD171082B3AD011D90C2B43
:102FF0002BD0A42B3DD10B20FFF784FE224B0022C7
:103000001A741EE00020FFF77DFE1F4B01221A718B
:103010001AE0002B0ED0062B2BD11B4B00221A746A
:103020005A74184A907E987400010D30C0B2FFF7B0
:1030300069FE06E01420FFF765FE134B134A128861
:103040001A83114B5A799A7110BD0D20FFF75AFE61
:103050000D48012303740D491130022213F080F84A
:10306000EFE70C20FFF74EFE074B00221A745A744C
:10307000E7E70020FFF746FE034B03221A71E0E763
:10308000A00A0020FC0F00207C0F0020FC0500207F
:1030900010B5822805D800D975E080003D4B1B583B
:1030A0009F46F02859D0F52800D06CE00020FFF7AB
:1030B00029FE11E0FFF738FE0EE00020FFF722FEA8
:1030C000354B00221A7107E00020FFF71BFE324B40
:1030D00008221A71FFF732FEFFF726FD10BDFFF739
:1030E00059FEF9E70020FFF70DFE2B4B20221A7145
:1030F000F2E72A4B00225A70FFF7B0FEECE7FFF729
:10310000B2FEE9E7FFF7B4FEE6E7254825490622C7
:1031100013F026F80020FFF7F5FDDDE722482149EE
:10312000062213F01DF80020FFF7ECFDD4E7FFF7AF
:10313000E5FED1E7FFF706FFCEE7FFF727FFCBE776
:10314000FFF744FFC8E7194BDA7999795879FEF708
:103150008FFC0020FFF7D6FDBEE7FFF74DFEBBE773
:103160000020FFF7CFFDB7E70020FFF7CBFDB3E767
:103170000020FFF7C7FDAFE70020FFF7C3FD064BB8
:1031800005221A71A8E70020FFF7BCFD024B0022C0
:103190001A71A1E7187001087C0F0020A00A002016
:1031A000F40E002001100020EC0E0020FC0F002087
:1031B000092802D83030C0B270473730C0B2FBE7C0
:1031C000F0B5C64600B582B0FEF72CFE434B002298
:1031D0009A70434B1B78002B37D0424A424B0093E6
:1031E000042300216020FEF7A1FB00280AD13B4CFC
:1031F0003D4920003330062212F0B2FFA3780122AD
:103200001343A370374A384B0093042300216120F5
:10321000FEF78CFB00280AD1304C334920003D30AA
:10322000062212F09DFFA37802221343A37000220E
:103230002B4B1A70294B9B78032B32D00120FEF7C1
:10324000BFFD02B080BCB846F0BD264A274B0093B4
:10325000042300216020FEF769FB00280AD11F4CDF
:10326000224920003330062212F07AFFA37801228F
:103270001343A3701B4A1E4B0093042300216120BB
:10328000FEF754FB00280AD1144C194920003D30A8
:10329000062212F065FFA37802221343A3700122D5
:1032A000C6E70E4E134C05339846A0440F27F57819
:1032B0002809FFF77DFF207028003840FFF778FFCE
:1032C0006070013602344445F1D10B483623302278
:1032D000C2544F21FFF7A8FBB0E7C046A00A002068
:1032E0009C0A0020A30A00201000002008000020F3
:1032F00000000020B506002074060020F0B5C64688
:1033000000B50F4E0F4C10239846A0440F27B578F8
:103310002809FFF74DFF207028003840FFF748FFCD
:103320006070013602344445F1D10748362330221B
:10333000C2544F21FFF778FB80BCB846F0BDC046B1
:10334000A00A0020AD06002074060020F0B5C64695
:1033500000B50F4E0F4C10239846A0440F27B578A8
:103360002809FFF725FF207028003840FFF720FFCD
:103370006070013602344445F1D1074836233022CB
:10338000C2544F21FFF750FB80BCB846F0BDC04689
:10339000A00A0020AD0600207406002010B50448E5
:1033A00070230022C2547121FFF73EFB10BDC046BE
:1033B00000060020F8B504000D00027800207B2AEA
:1033C00000D0C3E06278222A00D0BFE0A278692A48
:1033D00000D0BBE0E278642A00D0B7E02279222A4C
:1033E00000D0B3E062793A2A00D0AFE0013077290B
:1033F00000D8ABE0002600274AE0237919003039D5
:10340000092917D86178303964204843E178303988
:103410008A00521852008018303BC018FDF746FF52
:1034200000224B4BFDF716F8FCF7F6FFC0B2494BF4
:10343000187028E06378303B64205843E278303AD3
:1034400093009B185B00C018FDF730FF0022404B33
:10345000FDF700F8FCF7E0FFC0B2E8E76378303B27
:1034600064205843E278303A93009B185B00C01800
:10347000FDF71CFF0022364BFCF7ECFFFCF7CCFFFE
:10348000C0B2344B58700136F6B20134B54256D052
:1034900023782C2BF7D10137FFB2032FADD0062FA5
:1034A0001AD12379190030390929D7D861783039F0
:1034B00064204843E17830398A005218520080185D
:1034C000303BC018FDF7F2FE0022214BFCF7C2FF93
:1034D000FCF7A2FFC0B2D4E7092FD4D12379190099
:1034E0003039092916D86178303964204843E178A9
:1034F00030398A00521852008018303BC018FDF74E
:10350000D5FE0022124BFCF7A5FFFCF785FF114BFF
:103510009870B8E76378303B64205843E278303ADB
:1035200093009B185B00C018FDF7C0FE0022084BFB
:10353000FCF790FFFCF770FF064B9870A3E7054B74
:103540009A7859781878FEF793FA0120F8BDC046AA
:10355000000004407C10002082B00A4B99690122CF
:103560001143996199690A400092009ADA698021B1
:1035700049050A43DA61DB690B400193019B02B004
:103580007047C04600100240FEE7FEE770477047F4
:1035900010B503F0F3FF10BD10B5034804F094F923
:1035A000024804F091F910BDCC0600203C34002004
:1035B00010B5034804F022F9024804F01FF910BDC9
:1035C000841000209C11002010B5024804F016F968
:1035D00010BDC0465811002010B5024806F0BEFECE
:1035E00010BDC046C810002010B5024806F0BAFC55
:1035F00010BDC046280B002010B5034807F028FC7A
:10360000FFF778F910BDC046E011002010B5024860
:1036100007F01EFC10BDC0469C19002010B50248E2
:1036200004F002FB10BDC0466812002010B5030074
:103630000C4A0D49521A0D490968002907D00B4957
:103640000868C318934206D8084A136010BD07499A
:1036500007480860F3E712F057FD0C2303600120D0
:103660004042F3E7004000200004000080100020EA
:10367000903500207047000010B50E480E4B0360D7
:103680000E4B436000238360AF225200C26003618F
:103690004361836106F0E0FF002808D10022012188
:1036A000162003F08FFF162003F0BEFF10BDFEF7BB
:1036B0005DFBF3E7C810002000480140BC1B000080
:1036C00010B582B00400164B02689A4201D002B0D5
:1036D00010BD144B9A69802109010A439A619B69C4
:1036E0000B400193019B1048104B03601023436073
:1036F000002383608022C2608132FF320261802217
:10370000D20042618361C36103F0B6FF002803D198
:10371000054B63625C62DAE7FEF728FBF8E7C04618
:10372000002C014000100240841000201C000240C8
:1037300000B583B00C4B02689A4201D003B000BDC3
:103740000A4B9A698021C9020A439A619B690B401E
:103750000193019B00220021162003F033FF162065
:1037600003F062FFEAE7C046004801400010024053
:1037700010B586B004001422002101A812F0BCFC90
:103780000D4B22689A4201D006B010BD0B4B5A690E
:10379000802189020A435A615B690B400093009BB8
:1037A00080235B000193FE3B02930593902001A9C7
:1037B000C00504F09DF8E7E7002C0140001002402E
:1037C00000B593B00822002110A812F095FC1C222D
:1037D000002109A812F090FC2022002101A812F07B
:1037E0008BFC2448244B03600023436083603B220E
:1037F000C26003614361836106F05AFF00282DD146
:103800000023109311931B4810A907F05BF90028BF
:1038100027D16023099300230A930B930C930D93F4
:103820000E930F931348002209A906F0ADFF00285C
:103830001AD10023019302930393049305938022EA
:103840009201069208930B4801A907F071F900282C
:103850000DD10848FFF78CFF13B000BDFEF786FAC4
:10386000CEE7FEF783FAD4E7FEF780FAE1E7FEF74A
:103870007DFAEEE710110020002C014010B50C4835
:103880000C4B0360E1235B02436000238360C36051
:1038900003610C2242618361C3610362436207F0EA
:1038A00035FF002800D110BDFEF760FAFBE7C046E7
:1038B000E01100200038014010B588B00400142247
:1038C000002103A812F018FC334B22689A4201D061
:1038D00008B010BD314B9A698021C9010A439A6131
:1038E0009A690A400192019A5A69802189020A4321
:1038F0005A615B690B400293029BC023DB00039378
:103900000223049301330693023B0793902003A9FB
:10391000C00503F0EDFF2248224B03600023436003
:1039200083608022C26003614361836180239B01C5
:10393000C36103F0A1FE002827D1194B63675C62C5
:1039400019481A4B036010234360002383608022D0
:10395000C26003614361836180239B01C36103F003
:103960008BFE002814D1124A116880239B000B4360
:1039700013600D4B23675C62002200211B2003F0C3
:1039800021FE1B2003F050FEA2E7FEF7EFF9D4E77B
:10399000FEF7ECF9E7E7C0460038014000100240AE
:1039A0009C110020300002405811002044000240C9
:1039B0000000014010B50A480A4B03600823037158
:1039C000063B4371C371002343728372C37204F0D8
:1039D000AFF8002800D110BDFEF7C8F9FBE7C046DC
:1039E00068120020005C004000B583B00C4B0268F8
:1039F0009A4201D003B000BD0A4BDA698021090464
:103A00000A43DA61DB690B400193019B002200212C
:103A10001F2003F0D7FD1F2003F006FEEAE7C04693
:103A2000005C0040001002400D488546FFF722FE72
:103A30000C480D490D4A002302E0D458C450043309
:103A4000C4188C42F9D30A4A0A4C002301E01360DF
:103A50000432A242FBD312F05DFBFEF75FF9FEE7F2
:103A60000040002000000020800A00200C7A01089D
:103A7000800A00208C350020FEE770B504000D00A0
:103A8000110085420DD9281AFCF7DAFB201880B204
:103A9000844200D070BDFF2398430130FF3080B2D4
:103AA000F8E7401BFCF7CCFB201A80B2A542F1D00E
:103AB0008442EFD1FF239843ECE7000010B5E021EA
:103AC000052003F05BFA08210C2003F06CFA054B8B
:103AD0000022DA645A649A645B6D002B00D0984728
:103AE00010BDC0464415002010B54E4B5B780A3B14
:103AF000022B5DD9C22003F0FCF9D52003F0F9F9BF
:103B0000484B186900280CD05B78092B5AD00D2B34
:103B100007D0454B98424FD8C00880B2202103F00F
:103B200008F8404B1B6D002B00D098473D4B1B6B9A
:103B30005A07D20F5201D90601D540210A439B06EC
:103B400001D580231A43E021052003F05AFA354BB2
:103B50001B6B1B063CD580210A2003F024FA314B55
:103B60001B6B1B0739D508210C2003F007FA2D4BDE
:103B7000DB79012B36D00221122003F0FFF92B4C08
:103B8000284B5B781A000A3A022A31D8284B1C438A
:103B9000244B586B431E033336D9200003F030FB0F
:103BA000200003F05BFB1F4B3F22FF21995410BD07
:103BB000DB2003F09EF9A3E71E4B9C466044C0083F
:103BC00080B2ABE7C10AC9B2552003F005F9A8E7F6
:103BD00080210A2003F0D2F9C1E708210C2003F06C
:103BE000E2F9C4E70221122003F0DDF9124CC7E725
:103BF00004229343092BCBD1104B1C4300220321F9
:103C00000A2003F0FEF9C3E70D49FCF78FFAFA2307
:103C10009B009C46604480B203F0BEFB014BD8641D
:103C2000BBE7C046441500203B0400007840F0008C
:103C300000080008C4FBFFFF7A40F000001E00806F
:103C4000F834000010B5064B3F229B5CFF2B00D0E0
:103C500010BD04493D3A1E2003F076F8F8E7C0464F
:103C6000441500208215002010B5FFF7EBFF044B30
:103C70003F22985C80090002013A9B5C184310BD0A
:103C80004415002010B5FFF7EFFF0400154B5B78DB
:103C9000012B00D010BD134B5B8B1B2B01D0152BC0
:103CA000F8D1FFF7CFFF0F4B3F229B5C313A1A420E
:103CB000F0D0012CEED10B4C606A012103F0B4F876
:103CC000E36A002B08D0FFF7BDFF064BDA6A3F21FD
:103CD0005B5C1B075B0F1380024B28225A83323236
:103CE0001A76D7E74415002000B583B00B4B1B783C
:103CF000002B10D0002280212C2003F0A0F903001B
:103D00000020002B01D103B000BD6B46981D02F0CE
:103D1000C9FD0020F7E72120F5E7C0464415002043
:103D200070B502F035FF041E01D0200070BD03F015
:103D3000A9FA4021012003F005F9002008F0F6FB64
:103D400003220321022003F05CF9144BFF203F22E1
:103D500098543E3A1A70002200215A701A719A71D2
:103D60005A71DA715A761A76DA601A619A601A759F
:103D70001A64DA645A649A641A655A659A658825E1
:103D8000ED005A5300255C329D5410329854113284
:103D9000995403329954FFF7A7FFC6E74415002052
:103DA00000B585B0CE4B1B78002B00D194E1FF28E5
:103DB00012D0CB4B9870FF2911D0C94BD9705B78CA
:103DC000073B012B0DD8C64B5A780D2A00D9A7E125
:103DD0009300C44AD3589F46C14B9878E9E7D978F5
:103DE000EBE702F0D0FD0028EDD076E1212074E170
:103DF000082008F09BFBBA4B9878EA2815D90001F7
:103E0000FF2303400220FF30184308F08FFBB44B20
:103E1000D878EA2811D90001FF230340812040000F
:103E2000184308F083FB002057E101300001FF2315
:103E300003400220FF301843E7E701300001FF2371
:103E40000340812040001843EBE7082008F06EFB98
:103E5000A34B9878EA2813D90001FF230340A24816
:103E6000184308F063FB9E4BD878EA280FD900016D
:103E7000FF2303409D48184308F058FB00202CE125
:103E800001300001FF23034097481843E9E7013060
:103E90000001FF23034095481843EDE7082008F090
:103EA00045FB8F4B9878EA2813D90001FF23034084
:103EB0008F48184308F03AFB894BD878EA280FD985
:103EC0000001FF2303408B48184308F02FFB00201C
:103ED00003E101300001FF23034085481843E9E76F
:103EE00001300001FF23034082481843EDE77C4B7B
:103EF000DB781A001532D2B2012A00D912E1784AD1
:103F0000927811001431C9B2012900D90CE102A83C
:103F1000ED3A51424A410270EB3B5A4253414360F1
:103F2000694608F0EBFB009B5A7801A842709A782A
:103F30008270DA78C2701B78037002F079FE082074
:103F400008F0F4FA664B9878EA2813D90001FF23A9
:103F500003406948184308F0E9FA614BD878EA2829
:103F60000FD90001FF2303406448184308F0DEFA2C
:103F70000020B2E001300001FF2303405E481843F7
:103F8000E9E701300001FF2303405C481843EDE7F7
:103F9000082008F0CBFA524B9878EA2813D9000190
:103FA000FF2303405648184308F0C0FA4C4BD8781A
:103FB000EA280FD90001FF2303405248184308F0B4
:103FC000B5FA002089E001300001FF2303404C488E
:103FD0001843E9E701300001FF2303404948184333
:103FE000EDE7092008F0A2FA3D4B9878EA2813D9AA
:103FF0000001FF231840444B184308F097FA384B50
:10400000D878EA280FD90001FF2318403F4B184306
:1040100008F08CFA002060E001300301FF20184016
:10402000394B1843E9E701300301FF201840374BB3
:104030001843EDE7092008F079FA294B9878EA2827
:1040400013D90001FF231840314B184308F06EFAD2
:10405000234BD878EA280FD90001FF2318402D4BB5
:10406000184308F063FA002037E001300301FF2015
:104070001840274B1843E9E701300301FF2018409F
:10408000244B1843EDE7092008F050FA144B9878B8
:10409000EA2813D90001FF2318401F4B184308F0EA
:1040A00045FA0F4BD878EA280FD90001FF231840B2
:1040B0001A4B184308F03AFA00200EE001300301D1
:1040C000FF201840144B1843E9E701300301FF209B
:1040D0001840124B1843EDE7212005B000BDC04643
:1040E000441500203C720108010200000202000099
:1040F0000104000002040000011000000210000092
:104100000108000002080000018800000288000089
:10411000018100000281000001840000028400008F
:104120000F20DAE70720D8E70720D6E770B50400AC
:104130000D001600814B1B78002B00D1F5E0FF2904
:1041400000D1F4E0FF2A00D1F3E00D2800D9F2E01D
:1041500083007B4AD3589F4618201DE0042102208B
:1041600002F00CFF0821032002F036FE0220FF308F
:1041700008F0DCF98120400008F0D8F96F4A137884
:10418000191CDBB2022B00D2022111706B4B5C7048
:1041900031002800FFF704FE70BD0421022002F068
:1041A000EDFE2021032002F017FE0220FF3008F070
:1041B000BDF98120400008F0B9F9DFE704210220B1
:1041C00002F0DCFE1021032002F006FE0022FC219A
:1041D000062002F016FF0022F021072002F011FF56
:1041E000584808F0A3F9584808F0A0F9C6E7042198
:1041F000022002F0C3FE1021032002F0EDFD002298
:10420000FC21062002F0FDFE2022F021072002F012
:10421000F8FE4C4808F08AF94B4808F087F9ADE7FA
:104220000421022002F0AAFE1021032002F0D4FD96
:104230000022FC21062002F0E4FE3022F0210720BB
:1042400002F0DFFE3F4808F071F93F4808F06EF9D0
:1042500094E70421022002F091FE1821032002F0CD
:10426000BBFD3A4808F062F9394808F05FF985E784
:104270000421022002F082FE364808F057F9364841
:1042800008F054F97AE70221032002F0A5FD00228C
:104290000421122002F0B5FE6021A92002F049FCA1
:1042A0008021152002F098FD2C4808F03FF92C4899
:1042B00008F03CF962E7BA21032002F08DFD0021ED
:1042C000552002F089FD00220421122002F099FEFF
:1042D0006021A92002F02DFC8021152002F07CFD38
:1042E000204808F023F9204808F020F946E7042187
:1042F000022002F043FE8821032002F06DFD1B48DE
:1043000008F014F91A4808F011F937E704210220DF
:1043100002F034FEA021032002F05EFD154808F0F3
:1043200005F9154808F002F928E7212034E70720AD
:1043300032E7072030E70F202EE7C0464415002063
:104340007472010801020000020200000104000072
:10435000020400000110000002100000010800002B
:1043600002080000018800000288000001810000AE
:104370000281000001840000028400000C4B1B78C5
:10438000002B0FD00A4B5B78002B0DD0002802D0F9
:10439000074B9B780370002908D0054BDB780B7026
:1043A000002070472120FCE72120FAE70020F8E7F1
:1043B0004415002010B5041E07D0012809D184221D
:1043C0008F21452002F005FE03E08021452002F008
:1043D000D5FD014BDC7110BD44150020034B044A90
:1043E000904200D9100018617047C0464415002063
:1043F000F8FF0700014B18697047C04644150020BC
:10440000034BFF229201904200D91000D860704700
:1044100044150020034B044A904200D910009860D4
:104420007047C046441500208074D90410B5054B70
:104430001B6C0120002B00D110BD180002F0B2FF50
:10444000FAE7C0464415002070B580228021022082
:1044500002F0F5FD002850D02A4B1B78002B4ED0DF
:10446000022008F063F808220821022002F0E7FD8C
:10447000002804D0234B1B790024002B25D10021D8
:10448000552002F0A9FC01220321022002F0B9FD0F
:104490001C4D2A7D03231340FF22FF21C82002F078
:1044A0009DFA040003220321022002F0AAFD287DC8
:1044B00001300721FBF7C0FE2975082208210220E0
:1044C00002F0BDFD2871002805D10E4B9868002828
:1044D00006D1200070BD4821022002F064FDF4E7FF
:1044E000094B984200D218000749FBF71FFE80B223
:1044F00002F052FF034B1864EBE72124E9E7212483
:10450000E7E7C04644150020F834000010B5094B19
:104510001B7E002B0BD14821022002F02FFD03202F
:1045200008F004F8034B00221A71002010BDFFF7B9
:10453000C5FAF0E74415002070B5041E00D1E2E092
:10454000804B1B782120012B00D8B0E008220821E5
:104550001F3802F074FD00280BD17A4B5A781300F3
:104560000A3B022B00D8D0E023682130002B00D07A
:104570009DE0744A13001C3323CC23C323CC23C3F4
:1045800021681960D368002B00D1CBE05278012A52
:104590000AD08A246400022A0BD0CA246400032AA9
:1045A00007D0553CFF3C01E08A246400072A00D173
:1045B00040340821122002F0E1FC624B5B78032BAF
:1045C00016D0604BDB680421A34202D31B1B9B095E
:1045D000D9B20F2002F000FC5A4B5A6B531E033322
:1045E00069D8584BDB6807209A4200D99FE05EE00B
:1045F000002204210A2002F022FD0028E1D08034AC
:1046000008214C2002F0CFFC14221F21462002F08A
:10461000F8FCD6E7B4200001032B12D0402001E0C3
:10462000A0208000062B43D1464B9B78013B591EAE
:104630008B415B425B0A5B028021C9008C4663446C
:10464000C0188018404B984200D918003D4B586361
:10465000800902F037FA3B4B03221A7008321A76AF
:10466000093A5A835B78073B012B28D83549374BE9
:10467000CB180A001C3231CA31C331CA31C31268A7
:104680001A60334BCA58002A00D0324A2D4B5A6266
:10469000822252011A858722D2009A5808210A40A4
:1046A0002B310A431A63DB690020002B10D070BD48
:1046B000092BB9D0C5E7002002F004FACBE7214B63
:1046C000DB69002B04D01F4B1B8C0020002BEED18C
:1046D000FFF70AFA1B4B5B7804229343092B0AD09D
:1046E000D12002F006FCE32002F003FC154B51221E
:1046F0001A760020DBE70821022002F03FFCE420CC
:1047000002F0F7FBECE70720D1E70E490B001C3362
:1047100061CC61C361CC61C320681860CB68002B99
:1047200000D03AE7074B5A6B531E0333C3D8054BEF
:104730005B78012B00D173E7022B00D06AE7A02041
:1047400080007EE74415002000F0FF0F24040000E5
:104750002C0400005C170020044B1B7E0B3BDBB2DB
:10476000002045229A424041C0B2704744150020C3
:10477000044B1B7E002B02D1024B588B704702204A
:10478000FCE7C04644150020F0B5CE46474680B54C
:1047900083B0FFF7EDFF04000200022846D0384B3B
:1047A000B8215B58197800291FD0354BB0208146BD
:1047B000B4255E5937781E58B446F65D0E41614601
:1047C000CE5559590E781F58B95D8846B8215958A9
:1047D000097840468840B85559590D784946585887
:1047E000415DAC269B5D0B4343551D2A24D004201C
:1047F00002F041FD0121052002F0C0FB204B98781A
:10480000EA282DD90001FF2303400220FF3018437E
:1048100007F08CFE1A4BD878EA2829D90001FF232B
:10482000034081204000184307F080FE200003B0C1
:10483000C0BCB946B046F0BD6B46D91D202002F081
:10484000A1FA0F4BB42299586A46D27912090A701C
:10485000B8229A586B46DB791B075B0F1370C6E7CB
:1048600001300001FF2303400220FF301843CFE74F
:1048700001300001FF230340812040001843D3E7AB
:104880004415002010B53A4B3A4A1B88934200D099
:104890006CE0FFF76DFF040002282BD004282BD119
:1048A000334BD4229A5CDA71C4229858002808D07D
:1048B00004329B5C002B04D02D4AC921525C002A93
:1048C00048D12B4BCC229A58002A02D0C9215B5CDC
:1048D0001370274BD0229A58002A02D0CA215B5C61
:1048E0001370234BC8229B58234A13405A4253410A
:1048F0005B421C40200010BDD12002F0FAFAD52006
:1049000002F0F7FA1A4B3F22FF219954002C1BD1D9
:104910001900C923CA5C0132D2B2CA5493009B1851
:104920009B00D5335B184B6202220221242002F047
:1049300086FB0028B4D00E4B02225A8301321A7033
:104940004E321A760224D5E7094BCA215A5C01324D
:104950005A54E9E7191C934200D9111CC9B28A00C4
:1049600052189200054911F0FBFBAAE72124C1E788
:10497000441500200306000000FFFF001916002068
:1049800010B540224021312002F059FB10BD00003B
:1049900010B5144B1B78002B22D0124B5C22002147
:1049A00099549B79002B16D101F015FFFFF7AEFD4E
:1049B0000D21082002F0F7FA0821032002F00CFA7A
:1049C000094802F058FC094802F01AFC072007F0D9
:1049D000ADFD002010BD4031012002F0B3FAE3E745
:1049E0002120F7E7441500208000001F0800001F69
:1049F000F8B504000F0016001D00264B1B78002B95
:104A000044D00D2844D010282FD007200C2C2BD1B7
:104A10000121013002F0B2FACE2002F06AFAC82277
:104A2000FB21032002F0EDFA2021052002F0A6FA76
:104A3000D12002F05EFA174B9B6E1748184302F024
:104A400012FCFFF79DFF00281CD0124B5C229C54E7
:104A5000583A1A701F6770329E529D6700222A8052
:104A600000217C3299540020F8BD0521082002F075
:104A700085FACE2002F03DFAE822FB21032002F065
:104A8000C0FAD1E7FFF784FF2520EDE72120EBE70F
:104A90000F20E9E7441500202019F000002903D079
:104AA000064B6C229B5C0B70002803D0034B7C22CE
:104AB0009B5C0370014B5C22985C7047441500209E
:104AC000F8B50400874B1B78002B00D106E1854B1D
:104AD0007C2200219954844DF9E005252800F8BD79
:104AE0004021022002F05FFAC22002F002FA7D4B60
:104AF0001B6E5B0524D47B4B1B6EDB0428D4794BE7
:104B00001B6E9B0429D42021052002F037FA0127CF
:104B10007F42380002F0AFFB724EB36E7348184309
:104B200002F0A1FB6C23F754726ED2B2FB2103207A
:104B300002F067FAFFF724FF002818D00224C6E02D
:104B40000121082002F01AFACD2002F0D2F9D2E7B2
:104B50000421082002F012FAD1E7012203210320E8
:104B600002F04FFA0821022002F008FACBE7C82130
:104B7000023002F003FA002573E080228021022037
:104B800002F05DFA002812D1C021023002F00BFAC7
:104B900010221021312002F052FA00280AD10A21F5
:104BA000803002F0EDFA002804D1032559E080207E
:104BB00002F026FB4B4B1B6E00269B0414D4494B82
:104BC0005C229B5C062B25D0DB2002F092F9D120E1
:104BD00002F08FF9434B9979002976D0402319438D
:104BE000012002F0AFF970E0C22002F082F9012248
:104BF0000321032002F005FA0821022002F0BEF989
:104C000040224021312002F01AFA0028D7D1012693
:104C10000124D4E70121082002F0B0F9CD2002F0F0
:104C200068F9D1E72F4E6C25705D010001F0ABFEF5
:104C30000121082002F0B7F9715D0A000C20FFF78E
:104C400075FA050004233370DB2002F052F9D120FD
:104C500002F04FF9F020000402F0D2FA102002F026
:104C6000FDFA204B5C229C5438E71E4B6C22995C69
:104C70000A000C20FFF75AFA0500F2E7194E6C25DE
:104C8000705D010001F07FFE0421082002F08BF925
:104C9000715D0A000A20FFF749FA0500042333700A
:104CA000DFE70121082002F07EF9F020000402F085
:104CB000A7FA102002F0D2FA0025D2E7042108203A
:104CC00002F071F90025CCE70026002E04D0102C4C
:104CD00006D8A300EB589F460025C2E72125FDE634
:104CE0002125FBE644150020AC720108A019F00054
:104CF000F0B5C64600B58CB0CA4B1B78042B01D169
:104D000000F078FC052B01D100F0B9FE032B01D097
:104D100000F0BBFEC34BD86C002810D1FFF71CFD80
:104D200000282ED1BF4B1B7E502B01D800F0ADFECA
:104D300000220A92BB4A527E9A4216D117E002F034
:104D400031FB0028EAD0B74B03225A8357321A7638
:104D5000FFF702FD002814D100230A93B14B5A7EBD
:104D60005A235A2A01D100F0D8FBAE4A5376513B60
:104D7000DAB2092A01D900F037FC9300AA4AD358C5
:104D80009F4600230993A74A137E527E9A4201D080
:104D9000A44A53760B3BDAB2092A00D9A1E1930069
:104DA000A24AD3589F469F4B0C221A76FFF73EFB30
:104DB000002801D100F069FE9A4B00221A640D32DE
:104DC0001A76984B5B7804229343092B07D0042171
:104DD000242002F034F9002801D000F056FE914B57
:104DE0000E221A76FEF780FE8E4B9C2252001A8706
:104DF0005D78EB1F012B3ED98A4C208CC31DDB084C
:104E0000638701F03FFE638F1A1C802189009BB2EB
:104E10008B4200D90A1C91B2824B9A87D86901F063
:104E2000E6FF804B5979002964D17E4B5B780A3BC1
:104E3000022B65D97B4B0F221A767A4B9B6D002B88
:104E400004D09847002801D100F01FFE754B1B6B62
:104E5000DB0760D5C52002F04CF8724B998F5A8F52
:104E6000002391425B415B420222134010336D4AA2
:104E7000137600F00AFE6B4C8423DB000022E25222
:104E80001833E1588B09012043400132134041405F
:104E90000A40218C0731C908E06926003C36059696
:104EA0008026B60004961836A61903968426F600C6
:104EB000A61902963A3401942C00083C65426C41D4
:104EC000009407F033FC002807D00D2805D0554B7F
:104ED000588314221A7600F0D8FD524C608FC0001F
:104EE00080B201F0CFFDA18F86239B00E01801F076
:104EF0007EFF96E740231943012002F023F894E750
:104F0000FFF73EFD002895D1464B25225A83113AE2
:104F10001A7600F0BAFDC42001F0EBFF9DE74820AF
:104F200002F06EF90990099B002B01D100F0ADFD54
:104F3000099B5B0646D5099B1B0743D4394B1122BD
:104F40001A76384B5C78E31F012B48D8354A538FCB
:104F5000918F168F5A1AB24200DA96B20BAD002327
:104F60002B8030488723DB00C1588B0901277B4009
:104F70000122134079400A40018C0731C908C069F9
:104F80000595351C8227BF00BE4200D93D1CADB23D
:104F90000495274D03958226B600AE190296DF3D93
:104FA000FF3D0195083C65426C41009407F0BEFB53
:104FB00000280ED00D280CD01A4B588314221A76D4
:104FC00000F063FD174B03225A8311321A7600F06A
:104FD0005CFD0BAB1988164801F009FF0FE0114B7F
:104FE0009A8F598F1B8F891A994200DD190089B257
:104FF0000BAB19800B4BD869801801F0F8FE094BF8
:105000009A8F0BA90988521892B29A87598F002358
:105010008A425B415B42022213401033014A1376FD
:1050200000F033FD44150020F072010818730108E8
:105030005C170020482002F0E3F80990099B002B40
:1050400001D100F022FD099B1B070FD5B34B1322A2
:105050001A76B24B5B6A002B14D0B04B9B79002BB5
:1050600021D1AE4B51221A7600F00FFD099B5B0651
:1050700001D500F00AFDA94B03225A8311321A769A
:1050800000F003FDA54B9B79002B07D1FEF716FD21
:10509000A24B00225A831A7600F0F7FC402101202F
:1050A00001F050FFF2E740211943012001F04AFFCF
:1050B000D7E79A4B5B8B022B0AD0984B9B79002B3E
:1050C0000AD1FEF7FBFC954B00221A7600F0DDFCBE
:1050D000924B08225A83F0E74021012001F032FF71
:1050E000EFE78E4B08225A830C321A7600F0CDFC83
:1050F0008A4B00229A875A87DB6A002B00D01A80DD
:105100000A2002F049F9854B98645B7804229343A6
:10511000093B5A1E93415233804A137600F0B5FC86
:105120007F4802F06DF80A900A9B002B01D100F035
:10513000ACFC0A9B5B0409D50A9B9B0606D4774B03
:1051400004225A8356321A7600F09FFC0A9B1B05F4
:1051500011D50A9B9B060ED4704B5B7804229343B7
:105160002132092B05D06D4B5A835A221A7600F052
:105170008CFC213AF7E70A9B9B0606D4674B032277
:105180005A8357321A7600F080FC322002F004F97C
:10519000624B586454221A760A9B624A13400A935F
:1051A000614802F02DF80A9B18430A900A9B002BD5
:1051B0000DD00A9B9B0719D40A9B5B0645D50A9B19
:1051C000DB0642D4554B55221A7600F05EFC534B59
:1051D000586C02F0E7F8002801D100F056FC4F4B64
:1051E00009225A8351321A7600F04FFC8020C00108
:1051F00002F006F8002806D0484B04225A835632A3
:105200001A7600F042FC00220221242001F017FF50
:10521000002806D0414B04225A8356321A7600F0F9
:1052200034FC202001F0ECFF04221100312001F0B9
:1052300006FF002804D0394B54221A7600F025FCD2
:10524000364B53221A7600F020FC0A9B1B0104D532
:10525000324B53221A7600F018FC344801F0D0FF8C
:105260000A9B18430A902D4B56221A760A9BDB02A2
:1052700020D42A4B5B781A00093A042A04D90A9AE6
:10528000920201D5052B1ED10A9A520224D40A9A01
:10529000120229D40A9A52072ED40A3B022B33D881
:1052A0000A9B1B0530D51D4B25225A8335321A76B1
:1052B00000F0EBFB194B09225A834E321A76FEF7A7
:1052C000E1FC00F0E2FB154B09225A834E321A76BC
:1052D000FEF7D8FC00F0D9FB104B1B225A833C325E
:1052E0001A76FEF7CFFCD0E30C4B15225A834232DC
:1052F0001A76FEF7C7FCC8E3084B1D225A833A32E0
:105300001A76FEF7BFFCC0E30A9BDB0610D4034B02
:1053100003225A8357321A76B7E3C0464415002059
:1053200020480000DFBFFFFF520800080400F00023
:10533000FEF788FCB44B3F229A5C0E231A424CD0F5
:10534000B14B28225A83B04B57221A76FEF78CFCB9
:105350000100AD4B1B6B9B070BD4AB4B5B8FC21893
:1053600092B2002A01D100F09EFC022840D90238F6
:1053700081B2A54B5A8F8A1892B25A871B8D073378
:10538000DB089A4206D9A04A918F591A89B2538BE9
:10539000022B33D09C4CA38F606AC01801F044FDEF
:1053A000E36A002B0AD0984C628FD2001A80FEF775
:1053B00049FC3F23E35C0E221A4223D1924B5A78D8
:1053C000D31F012B2CD9904B5B7804229343092BDC
:1053D0005DD18D4B54321A7657E3FEF733FC8A4B7E
:1053E0003F229B5CDB07AED5874B363A5A83AAE750
:1053F000022BBED9844A023B5387BAE7130001222D
:105400005A83C7E7FEF71EFC7F4BD96A3F229B5C9D
:105410001B075B0F373AD21A0B889B1A0B80CDE71C
:10542000794B5C8B022C03D0774B5A221A762CE3F3
:105430000BA800230380744D8623DB00EB5A07334F
:10544000DB08698F083A5642724103928822D200E3
:10545000AA5A02926D4AAA58019200906C4AAA5820
:10546000686A07F06FFA002801D100F00AFC1528DD
:1054700001D100F0EBFB6449664B674A8A1870CA99
:1054800070C370CA70C312681A6048839BE75E4B92
:105490005B8B022BC8D15C4B59221A765A4B9B79F5
:1054A000002B06D1FEF70AFB574B00225A831A76CF
:1054B000EBE24021012001F045FDF3E7322001F04D
:1054C0006BFF514D6864FEF7CFFB060007906B8FB2
:1054D000C3189BB26B872A8D0732D508AB4201D81F
:1054E00000F0E6FB484A9046978FEC1BA4B2506A46
:1054F000C019210001F098FC4246938FE31893876E
:10550000079BA34201D800F0DDFB791B711889B21B
:10551000002001F089FC00F0D5FB3B4B9B79002B70
:1055200009D1FEF7CBFA384B5B8B022B08D0364BF8
:1055300000221A76A9E24021012001F003FDF0E7E4
:10554000314B08225A83F2E7344801F059FE0A90A1
:105550000A9B002B17D00A9BDB0402D52A4B53224F
:105560001A760A9B5B0404D5274B04225A835632D1
:105570001A760A9B002B00DB87E2234B25225A83F5
:1055800035321A7681E2204B986C01F00BFF00282F
:1055900000D17AE21C4B25225A8335321A7674E206
:1055A000C020C00001F02CFE0A900A9B002B00D105
:1055B0006BE20A9B9B0508D5134B5B8B023B5A1E83
:1055C00093415933104A13765FE20A9B5B0505D578
:1055D0000D4B1D225A833D321A7656E20A4B0322A6
:1055E0005A8357321A7650E2074B08225A835232B6
:1055F0001A764AE2044A5C23D15C102900D944E2BD
:105600008B00074AD3589F464415002034040000FD
:105610002C040000601500202404000000500080CD
:10562000407301088020400101F0EAFD0B900B9BC4
:10563000002B00D129E20B9BDB0400D425E20220E1
:10564000FFF73EFABE4801F0DBFD0B900B9B002BF1
:1056500000D11AE20B9BDB052FD40B9B1B0504D555
:10566000B84B7C229B5C002B3DD00B9B1B0142D591
:10567000B44B6C229B5CFF2B39D10B9BDB0600D516
:1056800027E30B9BDB0000D4FFE1AE4B6C229B5C5D
:10569000002B00D0F9E1AB4B1B6E5B0500D4F4E1AD
:1056A0000AAC2100212001F06DFB2378012B00D8EA
:1056B000EBE10320FFF704FAE7E10AA9242001F057
:1056C00061FB02AB20229B181B781B091A1CDBB262
:1056D000022B00D9022202AB20215B181A70994BD1
:1056E0004C315A54B9E70120FFF7EAF9CDE1052022
:1056F000FFF7E6F9C9E10B9BDB06C2D5914B6C22A3
:105700009B5CFF2B00D1E4E28F4801F079FD0B9008
:105710000B9B1B0205D40B9B5B0202D40B9BDB0291
:105720000AD5DB2001F0E5FBD12001F0E2FB0821E6
:10573000022001F023FCA8E1824B1B6E9B0437D4AE
:10574000804CA56F01F0A9F928807423E35A073330
:10575000DB08A26F1288191C9BB2934200D9111C5E
:1057600089B2784C206F01F05FFBA36F1A88022A80
:1057700004D9744B6C215B5C002B1ED0714B9A6F6B
:105780001388191C022B00D902215B1A13806D4B60
:10579000996F0A88D2000A807C22012199549B7952
:1057A000002B00D171E13F31012001F0CBFB6CE116
:1057B000BA21032001F010FBC2E7624B196F634866
:1057C00006F03CFF0028D9D0DB2001F092FBD1206D
:1057D00001F08FFB0821022001F0D0FB55E15C486D
:1057E00001F00EFD0B900B9B002B00D14DE10B9BAC
:1057F0001B0504D40B9BDB0605D40B9B45E1012064
:10580000FFF75EF941E1B020000401F0F9FC0B9BC9
:1058100018430B900B9B1B0202D40B9BDB0206D59B
:10582000DB2001F066FBD12001F063FB2DE1454C4C
:10583000A56F01F032F928807423E35A0733DB089F
:10584000A26F1288191C9BB2934200D9111C89B215
:105850003C4C206F01F0E8FAA26F1388191C022B50
:1058600000D902215B1A1380364A916F0B88DB0046
:105870000B807C230121D15407E1364801F0C0FCA4
:105880000B900B9B002B00D1FFE00B9B1B0507D45B
:105890000B9BDB0100D4F8E00620FFF711F9F4E0E0
:1058A0000120FFF70DF9F0E08120000101F0A8FCD4
:1058B0000B900B9B002B00D1E7E00B9B1B0532D418
:1058C0000B9BDB0600D4E0E0F020000401F098FC24
:1058D0000B9B18430B901B4B9C6F01F0DEF8208054
:1058E0000B9B1B020AD40B9BDB0207D40B9B5B02B6
:1058F00004D4144B9A6F1388022B2DD8114CA36F2C
:1059000000221A80DB2001F0F4FAD12001F0F1FA34
:105910005C23E35C0F2B0AD00220FFF7D1F81020A4
:1059200001F0A9FCB1E00120FFF7CAF8ADE005499C
:105930006533CA5A8B6F096F0C20FFF759F8EEE7F1
:1059400010090018441500201008F00863630000D7
:105950001008000800080001023B1380B84A7423B5
:10596000D35A0733DB08926F1288191C9BB29342FB
:1059700000D9111C89B2B24C206F01F055FAA26F08
:105980001388DB0013807C230122E2547DE0AD48C4
:1059900001F036FC0B900B9B002B76D00B9BDB05AC
:1059A00026D40B9B1B0539D40B9B1B013ED5A44B66
:1059B0006C229B5CFF2B35D10B9BDB0600D58AE16B
:1059C0000B9BDB0061D59E4B6C229B5C002B5CD15A
:1059D0009B4B1B6E5B0558D50AAC2100212001F0C2
:1059E000D1F92378092B50D90E20FFF769F84CE044
:1059F0000AA9242001F0C6F902AB20229B181B78CB
:105A00001B091A1CDBB2022B00D9022202AB202197
:105A10005B181A708A4B4C315A54C2E70120FFF7C9
:105A20004FF832E00520FFF74BF82EE00B9BDB062A
:105A3000C6D5834B6C229B5CFF2B00D14BE1804B86
:105A40009B6F00221A80DB2001F053FAD12001F075
:105A500050FA1AE07C4801F0D3FB0B900B9B002B13
:105A600013D00B9B1B0506D40B9B9B010DD50F2060
:105A7000FFF726F809E00120FFF722F805E0704B58
:105A800080229B5C013B012B03D90CB080BCB84643
:105A9000F0BDF020000301F0B3FB0028F5D0430374
:105AA00006D5674BA42201219954243A0131995417
:105AB000830306D5624BA62201219954263A01316F
:105AC0009954C30306D55E4BA82201219954283A64
:105AD000013199540003D8D5594BA2220121995480
