:020000040800F2
:100000000040002041410008393D00083B3D000808
:1000100000000000000000000000000000000000E0
:100020000000000000000000000000003D3D00084E
:1000300000000000000000003F3D0008413D0008B6
:100040009141000891410008914100089141000848
:1000500091410008493D0008914100089141000884
:100060009141000891410008613D0008793D000878
:100070009141000891410008914100089141000818
:100080009141000891410008914100089141000808
:1000900091410008914100089141000891410008F8
:1000A00091410008893D000891410008993D0008F0
:1000B000AD3D00089141000891410008BD3D000898
:1000C00010B5064C2378002B07D1054B002B02D02E
:1000D000044800E000BF0123237010BD800A002007
:1000E00000000000DC6E0108044B10B5002B03D0AB
:1000F0000349044800E000BF10BDC04600000000F6
:10010000840A0020DC6E01080023C25C0133002A4F
:10011000FBD1581E7047000003B4714649084000E7
:100120004900095E49008E4403BC70470022430821
:100130008B4274D303098B425FD3030A8B4244D3AF
:10014000030B8B4228D3030C8B420DD3FF220902F1
:1001500012BA030C8B4202D31212090265D0030BB0
:100160008B4219D300E0090AC30B8B4201D3CB03A6
:10017000C01A5241830B8B4201D38B03C01A5241E8
:10018000430B8B4201D34B03C01A5241030B8B42EA
:1001900001D30B03C01A5241C30A8B4201D3CB02D5
:1001A000C01A5241830A8B4201D38B02C01A5241BA
:1001B000430A8B4201D34B02C01A5241030A8B42BD
:1001C00001D30B02C01A5241CDD2C3098B4201D3D5
:1001D000CB01C01A524183098B4201D38B01C01A53
:1001E000524143098B4201D34B01C01A52410309CA
:1001F0008B4201D30B01C01A5241C3088B4201D379
:10020000CB00C01A524183088B4201D38B00C01A25
:10021000524143088B4201D34B00C01A5241411A4C
:1002200000D20146524110467047FFE701B5002059
:1002300000F0F0F802BDC0460029F7D076E770471D
:1002400003460B437FD4002243088B4274D3030937
:100250008B425FD3030A8B4244D3030B8B4228D3D8
:10026000030C8B420DD3FF22090212BA030C8B42FE
:1002700002D31212090265D0030B8B4219D300E09E
:10028000090AC30B8B4201D3CB03C01A5241830B23
:100290008B4201D38B03C01A5241430B8B4201D3D3
:1002A0004B03C01A5241030B8B4201D30B03C01AFC
:1002B0005241C30A8B4201D3CB02C01A5241830A76
:1002C0008B4201D38B02C01A5241430A8B4201D3A5
:1002D0004B02C01A5241030A8B4201D30B02C01ACF
:1002E0005241CDD2C3098B4201D3CB01C01A524136
:1002F00083098B4201D38B01C01A524143098B42BF
:1003000001D34B01C01A524103098B4201D30B01A7
:10031000C01A5241C3088B4201D3CB00C01A5241CC
:1003200083088B4201D38B00C01A524143088B4291
:1003300001D34B00C01A5241411A00D2014652412A
:10034000104670475DE0CA0F00D04942031000D349
:100350004042534000229C4603098B422DD3030A9E
:100360008B4212D3FC22890112BA030A8B420CD3AE
:10037000890192118B4208D3890192118B4204D3D7
:1003800089013AD0921100E08909C3098B4201D357
:10039000CB01C01A524183098B4201D38B01C01A91
:1003A000524143098B4201D34B01C01A5241030908
:1003B0008B4201D30B01C01A5241C3088B4201D3B7
:1003C000CB00C01A524183088B4201D38B00C01A64
:1003D0005241D9D243088B4201D34B00C01A52413B
:1003E000411A00D20146634652415B10104601D3C8
:1003F0004042002B00D54942704763465B1000D352
:10040000404201B5002000F005F802BD0029F8D0F7
:1004100016E770477047C04670B500220C4B0400C9
:100420000D0001F06BFB002804D12000290001F031
:10043000C7FA70BD064B00222000290000F0B6FE6E
:1004400001F0BEFA80231B069C466044F1E7C046DB
:100450000000E041F0B54F464646D646C0B582B0F2
:10046000009001910E034C00CD0F710A009E5F00B9
:10047000760F0E43009900920193C9008946190333
:100480007B0D9846019B490ADB0F9C46009B009A16
:100490005B0F0B434146640DD200611A654500D1E4
:1004A000A6E0002972DD4746002F00D1DDE0CC4FE9
:1004B000BC4200D19AE10127382917DC80273F048C
:1004C0003B431F2900DDDDE12027781A1F0087400C
:1004D000BA461700CF408446380057460743604667
:1004E0008240CB40501E8241F61A17434B46DF1B19
:1004F000B94580414042361A330200D4FFE076020B
:10050000760A002E00D13CE1300001F001FB03002F
:10051000083B20213800CA1AD0409E4002009F406C
:1005200032439C4200DDA6E1181B0130091A3E004F
:100530008F40C6407B1E9F4113008B4037431F43B3
:10054000C2403B0016000024134300D1DFE17B07CB
:1005500000D132E30F233A003B40042B04D03A1D74
:10056000BA42BF417F42F619330200D423E39C4BC9
:1005700001349C4200D1B4E09A4B64051E40640DE6
:100580007707D20876021743360BACE0002900D17A
:100590007EE04146091B002C00D060E13400484653
:1005A000044300D1C9E14C1E012900D12EE28C4D3B
:1005B000A94200D124E20127382C11DC21001F2997
:1005C00000DD0BE2202437004846641AA740C840EB
:1005D00007434846A040CE40441EA0419B1B074312
:1005E000D71BBA4292415242654644469E1A83E75F
:1005F000002900DC9CE04746002F67D11F0017430D
:1006000000D1E4E0481E012900D19BE1744FB942BA
:1006100000D1EBE001270100382811DC1F2900DDA3
:10062000C7E12027781A1F00844687401000C84081
:10063000074360468240CB40501E8241F618174364
:100640004F444F45804140423618330257D5644BE2
:1006500001349C4245D00121624B7A081E4039404A
:100660000A43F7071743760871E71F00174300D1C5
:10067000ADE04F1EBC46012900D182E1584FB9427E
:1006800000D190E161460127382900DD2EE718E707
:10069000554F611C394200D0D0E0310048461F0060
:1006A00001431743002C00D03DE1002900D1BCE1FB
:1006B000002F00D0BFE14B460021D8087707074341
:1006C000F00806034C05360B640D0CE0444FBC42A9
:1006D00000D18BE001273829B2DC80273F043B435F
:1006E0009CE70026002724053443ED072C433800FF
:1006F000210002B0E0BCBA46B146A846F0BD7B0777
:1007000004D00F233B40042B00D028E7F808344BDB
:1007100077070743F0089C4200D04AE23B000343BE
:1007200059D080263603064336032D4C360BDAE7C4
:10073000002961D04146091B002C00D1B9E0284CAA
:10074000A04500D1A5E10127382913DC8024240429
:1007500026431F2900DDC8E1202437004846641ADB
:10076000A740C84007434846A040CE40441EA04191
:100770009B190743BF189742924152424446D618EC
:1007800063E7380001F0C4F9030018331F2B00DCC5
:10079000BFE63A00083882409C4200DD83E01B1B24
:1007A000581C1F2800DCB4E117001F3BDF40202845
:1007B00005D040231B1A9A40531E9A411743002428
:1007C000002F0AD07B0700D0C4E626009EE74B46E8
:1007D0000C00D8089BE70027014C002683E7C046A1
:1007E000FF070000FFFF7FFFFE0700004B46770773
:1007F000D8080743F00891E7CD4F611C39426BD10F
:10080000310048460143002C00D04BE11F00174344
:10081000002900D181E1002F00D14CE74A444A452C
:100820008041F61840423618330200D5B0E1170077
:100830009146374300D03EE7002654E74946891ADF
:100840008846C145BF41F11A7F42C91B0F0261D4DE
:1008500047460F4300D1BDE00E00474651E6B54C78
:10086000A04500D100E10127382900DDB8E6802449
:1008700024042643A3E6B04EE41A16407B0700D0BA
:100880003FE743E70F001800203FF8408446202947
:1008900003D04027791A8B401A43531E9A4163466E
:1008A00017001F4322E6A448E11A10404707C0087A
:1008B00007E734004846044300D1FAE04C1E012902
:1008C00000D1D7E09B4FB94200D1E2E00127382C9C
:1008D00000DD4FE721003CE7964CA14200D1DDE06E
:1008E0004A444A458041F31840421818C707520845
:1008F00017434608520705D00F220C003A40042A3D
:1009000000D02CE67607FF0837430009D9E6002718
:100910000026E8E64946571ABA4292419E1B5242C7
:100920006546B61AEDE5002900D0C6E0002F67D174
:10093000802600257F4C3603D5E665460C001E0058
:10094000D008E4E64A444A458041F318404218186A
:100950001100030200D496E0774B49081840C30702
:100960000B434408490700D129E10F221A40042A09
:1009700000D1EAE01F1D9F42B6417642361902249B
:10098000C4E649468F1AB9458041F61A4042361AE4
:10099000330206D47307FF0801211F43F00890E6D5
:1009A00065460124ABE54B467707D8080743F008B6
:1009B000B4E60F001800203FF8408446202903D0F9
:1009C0004027791A8B401A43531E9A4163461700F9
:1009D0001F4335E600250024002684E60C00350080
:1009E000203CE540202905D04024611A8E4049462C
:1009F000314389464846411E884107002F43EFE5B1
:100A0000D2085F0765461743D80887E6171ABA4227
:100A100092419E1B5242B61A3302C1D47307FF089B
:100A2000654601211F43F0084BE6002F7BD0654649
:100A30001E0091463FE6811A8846C145A441F11A3D
:100A40006442091B80242404214277D0101A824278
:100A5000924107009E1B5242B61A374300D0A0E0D5
:100A60006546002400263EE65F07D2086546174328
:100A7000D80853E6811891429241F01852428018EA
:100A8000030200D568E74707C9080F43C0080121E2
:100A900017E6D2085F071743D8083FE60C00002688
:100AA000002720E6002956D15F07D2081743D8084F
:100AB00034E60C001E00D00829E6C1087007014387
:100AC000F008002F62D080242403204207D0DE08E3
:100AD000264204D165463000D1085B0719434F0F09
:100AE000C900C9087F070F4318E60C003000203CFE
:100AF000E0408446202905D04024611A8E404946B2
:100B0000314389464846411E8841614607000F43EC
:100B100030E620210027091A0EE51E00002F00D024
:100B200022E5002458E7002500240026DBE5C04626
:100B3000FE070000FF070000FFFF7FFF47460F434F
:100B400000D147E70E00C146B5E5DF086407022182
:100B500027430009B5E51900C0087707074311438B
:100B6000F008002900D1D9E580210903084207D007
:100B7000DC080C4204D1D2085B071A43170020009E
:100B80007B0FFF00FF085B071F43C7E50F00C5E5AC
:100B9000124BD20833405F075B02012417431E0B40
:100BA000A1E5264212D00D4B6546020001241E40ED
:100BB000E6E4210085E51700A8E53A00D4E4DB0867
:100BC00064071C432700022100097AE5C008770763
:100BD000074365460021F00873E5C046FFFF7FFF2D
:100BE000F0B557464E46DE464546E0B51F000B03BE
:100BF0001B0B16009A46CA0F4B000400914685B0A5
:100C00005B0D00D1CFE1CD4A934255D05146420F02
:100C1000C9000A43802109041143C2009046C84A12
:100C20008A4693469B440023002502933C037B00A5
:100C3000FA0F0196240B5B0D009200D188E1BF4AA8
:100C4000934200D192E0BE4A944663449B440A2DED
:100C500042DCE400730F23438024494624041C43F0
:100C6000F3000193009B00205940CBB20393022D67
:100C700000DC94E00123AB401D00A6232A00DB002A
:100C80001A401D4200D029E290239B001D4200D152
:100C90004DE20023802499462403A84B10004A46C5
:100CA0001B052343D2071343190005B0F0BCBB4614
:100CB000B246A946A046F0BD52460243904600D037
:100CC000ACE19B460223924608250293AEE7009BC7
:100CD000A2469946019B9846029B022B00D1CAE18D
:100CE000032B00D192E1012B10D10023002400221C
:100CF000D4E701227B083A4013435246D2071343FC
:100D0000984653465B089A46039B99465B46581C97
:100D10008023DB005B44002B00DCB1E1424652073C
:100D20000BD00F2241460A40042A06D04246111D2C
:100D3000414592418846524292445246D20106D5DC
:100D40005246804B1A4080239246DB00C3187E4AED
:100D5000934200DD8FE14246D108524652070A43D2
:100D600051465B054C02240B5B0D97E7734B264302
:100D70009C46E344002E00D16FE1032349461D4306
:100D8000009B5940CBB203930A2D00DD33E10123D0
:100D9000AB401D000323029388222A4297D142468A
:100DA00043461204120C160001981D0C030C00049B
:100DB000000C4643B4461E006E4300961600070022
:100DC0005E436146B0466F430E0CB8444644B7429A
:100DD00005D9802149028846009F47440097614613
:100DE0000904090C370C36048C463100614401912A
:100DF0001100260C2404240C61438C462100694315
:100E000089466146090C884672434A444244754308
:100E1000914503D98021490288464544110C8846F2
:100E200061460904090C8C4612046244B918029107
:100E30005146090C8C4651460F043F0C3900414382
:100E400045448846614641438A4641466046090C0E
:100E5000894658437B4353444B449A4503D98021E8
:100E6000490289464844190C894641460904090C3F
:100E70008846390061431B044344884661464C431D
:100E800071438C46414677430E0C3F19F61948448E
:100E9000B44203D9802149028946CC440299009F7B
:100EA000894631044F4489464146974292410C0499
:100EB000240C4C44FF1852426419A1189F429B41D4
:100EC000884682465B42994690459241AC42A44195
:100ED000C244D14452426442144399459B418245E5
:100EE00092415B42524213434A46360CA419E3181E
:100EF00063445B02D20D1A43019992467A020A4377
:100F0000501E8241FF0D17434A4652021743B8460E
:100F1000DB0100D5EDE60D4B039A5B449146002BB7
:100F200000DCACE03A00520700D110E70F2258462F
:100F30003A40042A00D0F9E609E7C046FF0700005E
:100F400001FCFFFFFFFFFFFEFE070000FF030000A4
:100F5000220032436FD0002C00D1C2E0200000F00C
:100F6000D7FD020003000B3A1D20821A3000190041
:100F7000D04008398C400200224334008C4059464E
:100F8000CB1A86498B469B440A2D00DDA4E64946D0
:100F9000009B01945940CBB2140000200393022D12
:100FA00000DD67E6FBE65346034398463CD05346D4
:100FB000002B00D1A3E0504600F0AAFD0B235B42BA
:100FC0009C460200844411005046083988401D2385
:100FD000804660461B1A2000D84003004046034369
:100FE0009A4623008B4098466C4B00259B1A9B46E3
:100FF000002302931AE60F2D00D0C9E08023524649
:101000001B031A4202D01C4200D192E080245346B6
:1010100024031C4324034246240B3EE69B46032341
:1010200080460C25029301E600239A469B46013335
:1010300004250293FAE501210D430A2D00DD4BE65C
:10104000494600984140C9B20391022D00DC96E068
:1010500000230024012001930CE649460223009A54
:101060002B435140CAB203920A2B00DD34E6002D17
:1010700057D1039B994600240022494B0EE658465F
:101080000121C91A382900DD2FE61F2956DD1F224C
:1010900054465242D31ADC40202907D0414B4246E5
:1010A0009C465346604483401A439046424607217B
:1010B000531E9A410B00224313400024114209D0D1
:1010C0000F231340042B5DD0111D91429B410A0058
:1010D0005B425B07D2081A430023DFE5039B994676
:1010E000FAE5019800F014FD0200030015322033E8
:1010F0001C2A00DC38E7019A083882403FE700F0FC
:1011000007FD15239C4684440200634620321C2BB5
:1011100000DC58E7002398462300083883409A46AD
:1011200062E71D000023002402200193A2E5029043
:1011300032E61C43009B019A9946AEE51A4B524693
:10114000C31840469A40C8400243404698400300B6
:10115000581E834154461A43CC40530709D00F23ED
:101160001340042B05D0131D934292415242A41800
:101170001A00230208D50123002400228EE58946A7
:1011800000248BE50023A5E763076402240BA1E795
:10119000009BA2469946019B984637E70DFCFFFF4E
:1011A000FF0700003E0400001E040000F0B5574693
:1011B0004E464546DE46E0B583B0009001910C03F3
:1011C0004D00CE0F610A009C5F00640F0C43009934
:1011D00000920193C80019037B0D9946019BCC4FE7
:1011E000DB0F9C464B0A00998046490F1943009B30
:1011F0008B46DA0092466D0DB94500D1BFE0012360
:10120000614659404B468C46EB1A8E4275D0002BF6
:1012100000DCA3E24946002900D1CEE0BD4200D166
:1012200000E20127382B19DC802759463F04394357
:101230008B461F2B00DDFAE12027F91A8C46594610
:101240006746B9400F001100D9400F4361468A40FC
:10125000511E8A415946D9401743641AC71BB842E8
:1012600080414042241A230200D440E16402640A0F
:10127000002C00D154E1200000F04AFC0300083BA0
:1012800020213800CA1AD0409C4002009F402243CF
:101290009D4200DDA6E1581B0130091A3C008F4039
:1012A000C4407B1E9F4113008B4027431F43C24015
:1012B0003B0014000025134300D1F7E17B0700D168
:1012C00077E30F2338003B40042B04D0381DB8428D
:1012D000BF417F42E419230200D468E38C4B0135FF
:1012E0009D4200D1F4E08B4B6D051C406D0D6707EE
:1012F000C00864020743240BECE0002B00DC29E368
:101300004946002900D0D6E05946114300D12EE1CC
:10131000591E012B00D1E6E1BB4200D182E1012739
:101320000B00382914DC1F2B00DD3CE22027F91AC2
:101330008C4659466746B9400F001100D9400F430B
:1013400061468A40511E8A415946D9401743641864
:101350003F188742804140422418230200D4C6E04F
:101360006B4B01359D4200D1B2E00121694B7A08F7
:101370001C4039400A43E707174364089EE7664B61
:1013800011438A46EB18002928D066452CD0002B43
:101390005BD0002D00D12CE15B4666465F07D2088A
:1013A0001743DD083B002B4300D1E2E080242403F7
:1013B0002C432403564D240B8CE05946114300D195
:1013C000D5E0591E012B00D1B9E1BB4200D1B1E1FA
:1013D00001270B00382900DD40E72AE76146012795
:1013E00079408C466645D2D1002B00D1C5E0002D56
:1013F00000D055E14B462500054300D112E2591EAD
:101400008C46012B00D149E2414DAB4200D18FE225
:101410000127382911DC63461F2B00DD5BE26146A2
:10142000202327005B1A050098409F40CD40431EB3
:101430009841CC402F430743A344BF1897429241A1
:1014400052425A4414004D4687E7344F6B1C3B42CE
:1014500000D0B6E05946230011430F000343002D8E
:1014600000D026E1002B00D1C0E1002900D1A1E08D
:10147000831A98465B464045AD41E31A6D425B1BBB
:1014800080252D042B4200D14BE15B46101A82428D
:1014900092411C1B0700012663465242A41A2743AF
:1014A0001E40002F00D142E12C4200D16DE2194BC9
:1014B00001251C401BE7BD4200D13BE10127382B31
:1014C00000DD45E7802759463F0439438B462AE72C
:1014D000002400272D052543F60735433800290051
:1014E00003B0F0BCBB46B246A946A046F0BD7B07A0
:1014F00004D00F233B40042B00D0E7E62B00F80874
:10150000034A67070743E508934200D14AE7A5E08D
:10151000FF070000FFFF7FFF01F8FFFFFE0700004D
:10152000380000F0F5FA030018331F2B00DCA7E6A3
:101530003A00083882409D4200DD8AE05B1B581C5F
:101540001F2800DCD8E117001F3BDF40202805D012
:1015500040231B1A9A40531E9A4117430025002F1F
:1015600000D1E5E07B0700D0ABE62C00C6E7C00861
:10157000C6E700270024D14DACE7D14F6B1C3B429E
:1015800071D123000343002D00D04EE15746002BBC
:1015900000D1B5E1002F0DD08318834280415C4417
:1015A00040422418220200D5C8E11F009846274374
:1015B00000D1BCE043466707DB081F43E508002372
:1015C0004CE0831A98465B464045BF41E31A7F4290
:1015D000DB1B1F027CD447461F4300D1A6E01C0042
:1015E000474645E6B74CED1A14407B0700D080E72C
:1015F00084E74B462500054366D05F1E012B00D1D2
:10160000FCE0AE4DAB4200D15EE16646382F00DC17
:10161000B4E00120171ABA4292415B4652424D464D
:101620009C1A20E66707C0080743E508BAE61F00D2
:101630005946203FF9400F00202B05D04021CB1AFE
:10164000594699400A43924653465A1E93411F43B6
:1016500004E6EB1A9B4D15406F07ED082C035D0562
:10166000240B6D0D36E7954DAB4200D1D6E08218C4
:10167000210082428041594440420818C70752085D
:1016800017434408520700D485E10F221D003A4059
:10169000042A00D01AE6FF08640727430509DDE79E
:1016A0005B46D2085F071743DD087BE6002700246E
:1016B00010E7002B00D0D6E0002900D02FE18024D5
:1016C00000267E4D240305E766465C46D00817E7F2
:1016D0005B46171ABA4292411C1B012663465242CE
:1016E000A41A1E40C4E58318834280415C444042F2
:1016F00025182A0200D4DAE0724A5B081540EA078E
:101700001A4369085B0700D44AE10F231340042BF6
:1017100000D1FCE0171D9742A441644202256418E1
:10172000ECE647461C001F4300D043E70026002597
:101730000024CFE6C00867070743E50832E6871AAA
:101740005B46B8428041E41A4042241A230228D45E
:101750006307FF081F43E50801237FE7002B00D143
:1017600073E64B465F1B3B00002D00D142E7382F4C
:1017700000DDECE080230E001B041C431F2F25DC42
:1017800020252300ED1B0100A840AB40F940451E79
:10179000A8410B43FC4018435B461B1B9B4639E7A3
:1017A0006646012562E51F005946203FF9408C46F8
:1017B000202B05D040275946FB1A99400A439246F0
:1017C00057467B1E9F4163461F43C1E53B002500F2
:1017D000203BDD40202F04D04023DB1B9C402043D6
:1017E00080464046431E9841284313E700299DD078
:1017F000012663465C4690461E40DBE6171A5B46B0
:10180000BA4292411C1B5242A41A2302C8D4630755
:10181000FF081F4366460123E5081FE71D0000245B
:10182000002757E65C46D0086AE6002B00D137E770
:101830005346C00867070743E508002B00D1B1E510
:1018400080231B031D4208D05946C808184204D102
:10185000D20849070A43170005007B0FFF00FF0865
:101860005B071F439EE5C00863071843E50800298E
:1018700053D080231B031D420AD05946CC081C427A
:1018800006D1012663462500D008490708431E40BB
:10189000470FC000C0087F07074383E583189342C2
:1018A00092415C445242A5182A0200D524E76F07F2
:1018B000DB081F43ED080123D0E6C046FF07000008
:1018C000FE070000FFFF7FFF5B46D2085F0766460A
:1018D0001743DD0866E52500203BDD406346202BED
:1018E00005D0402361465B1A9C4020438046474612
:1018F0007B1E9F412F43A0E520210027091AD2E437
:10190000002F00D113E75C4617000025F6E5D70845
:10191000490702230F432D09A0E6070042E55B4675
:1019200001265F07DD086346D20817431E4039E5EC
:101930005B46D2085F071743DD0833E51E4ADB0824
:1019400022405707520201251F43140BC2E50E0027
:1019500001205FE6002B0DD04B465B1B9C46002D03
:1019600000D148E50127382B00DD66E580231B0404
:101970001C4350E56B1C114D2B4200D073E65946B9
:10198000230011438A46034300E66707C00800238B
:101990000743E50862E66407FF08274305095DE69B
:1019A000D208490711430F0002232D0956E607000C
:1019B000A4E538008FE4C046FFFF7FFFFE0700006C
:1019C0000B00020070B5164D0C0382B049000020D8
:1019D00000920193240B490DDE0FA94204DD11484A
:1019E000814203DD104BF01802B070BD802040032F
:1019F00020430E4C641A1F2C08DD0D4B5B1AD84097
:101A000003005842002EEFD11800EDE7094B009A71
:101A10009C46030061448B40E2401343F1E7C0461B
:101A2000FE0300001D040000FFFFFF7F33040000E1
:101A300013040000EDFBFFFF70B5002816D0C3179C
:101A4000C5185D40C40F280000F062F8104B1B1A47
:101A50005B055B0D0A2814DC02002E00153296404F
:101A60000B22121AD5402D032D0B03E00024002376
:101A7000002500261B052B43E407234330001900F3
:101A800070BD0B3885402D0300262D0BF2E7C046B4
:101A90001E0400008446100062468C46190063460E
:101AA00000E0C0461FB500F005F9002801D4002170
:101AB000C8421FBD10B500F049F84042013010BDCA
:101AC00010B500F0F7F8002801DB002010BD012060
:101AD00010BDC04610B500F0EDF8002801DD002073
:101AE00010BD012010BDC04610B500F073F80028ED
:101AF00001DC002010BD012010BDC04610B500F073
:101B000069F8002801DA002010BD012010BDC04690
:101B10001C2101231B04984201D3000C10391B0A1D
:101B2000984201D3000A08391B09984201D30009E1
:101B3000043902A2105C40187047C0460403020238
:101B4000010101010000000000000000F0B557464F
:101B5000DE464E464546E0B50D000400E80F8346DC
:101B60000903D80F090B824619488C461F036900E8
:101B70005E00490D3F0B760D814218D086420FD092
:101B80000120B1420DD1BC450BD1944209D1D345BE
:101B90001CD0002905D160462043431E984100E037
:101BA0000120F0BCBB46B246A946A046F0BD0120CC
:101BB0008E42F6D1614639430F0017432743F0D1D7
:101BC0005B465246981A431E9841EAE70020E8E730
:101BD000FF070000F0B557464E464546DE46E0B5E5
:101BE0000D000E034900490D8A46DF0FE90FBC4680
:101BF00083B02F4F0400804601915800190391468D
:101C0000360B090B400DBA451DD0B8420DD05746D2
:101C1000002F2AD13443002824D10A4336D0002C87
:101C200041D163465800013815E0114338D153467D
:101C3000002B01D12643F4D0019B634507D1019BC2
:101C40005800013807E026432AD1504521D0012011
:101C5000019B5F42384303B0F0BCBB46B246A94685
:101C6000A046F0BD002CDCD0E6E70028EFD0019BB9
:101C70006345ECD18245EADCE1DB8E42E7D8DED178
:101C8000C845E4D80020C845E5D2D8E7002CE2D00A
:101C9000DDE7114304D1019B6345D8D10020DAE789
:101CA00002204042D7E7019B6345E6D0CFE7C0461C
:101CB000FF070000F0B557464E464546DE46E0B504
:101CC0000D000E034900490D8A46DF0FE90FBC469F
:101CD00083B02E4F040080460191580019039146AD
:101CE000360B090B400DBA451ED0B8420DD05746F1
:101CF000002F27D13443002833D10A4334D0002C9D
:101D000040D163465800013815E0114312D15346C3
:101D1000002B01D12643F4D0019B63451DD0012047
:101D2000019B5F42384306E0264303D15045F6D17C
:101D300011431CD0022003B0F0BCBB46B246A946FA
:101D4000A046F0BD0028EAD0019B6345E7D182455B
:101D5000E5DC02DB8E42E2D80ED0019B5800013850
:101D6000E9E7002CCDD0D7E7002CE4D0D7E7019BE2
:101D700000206345DFD0D2E7C845D0D80020C84551
:101D8000D9D2EAE7019B6345E4D0C8E7FF0700002A
:101D900010B590B06B46DC1C0023237010F02EF8B9
:101DA00002F0DEFE23000AAA0121002010F04AFC06
:101DB000002802D12378002B58D1012010F0C0FF59
:101DC00002F0CEFE10F0F4FF00280DD16B46033375
:101DD00005AA012111F0A2F8002805D16B460333B2
:101DE0001B78002B00D0F0E011F074F902F0B8FE7F
:101DF0006B46033301AA0121012011F0EFF90028FD
:101E000005D16B4603331B78002B00D004E1984CBE
:101E100000220421200006F009FA002202212000FD
:101E200006F004FA00220121200006F0FFF98021CB
:101E30000022C900200006F0F9F9802100220901E2
:101E4000200006F0F3F9802100224901200006F06D
:101E5000EDF988480023037043700230802200218E
:101E600014F0D2FB02F0DEFE10B010BD01220421FE
:101E70007F4806F0DBF90AAC21792D20684414F084
:101E8000DFFA01007C4B180014F0C0FA2379042B10
:101E900018D17A4804222D21694414F095FB0028BA
:101EA00009D1744B9B78032B0ED1724B01225A70CF
:101EB00002F0B8FED8E7714804222D21694414F0DD
:101EC000D7FB01E0072B24D06A4B01225A700AABE2
:101ED0005B7D002B24D10AAB1B78002B5FD10AABB2
:101EE0009A7812025B7813431BB2042B3AD0442B2E
:101EF00026D0022B62D15F4B1B78012B46D15D4B64
:101F000001221A705E4B1B78012B45D001F00AFDAF
:101F100054E05C4807222D21694414F0A9FBD3E763
:101F20002921694452200FF087FF0028D3D10AAB42
:101F300019792B226A442D30684410F08DFACAE7D3
:101F40000AAB1B79072B39D14A4B1B78022B03D1E3
:101F5000484B02221A7031E04A488022002114F0D6
:101F600053FBF5E7434B1B78012B09D1414B012271
:101F70001A70434B1B78012B20D101F0D9F91DE0D9
:101F800040488022002114F03FFBEFE73D488022CB
:101F9000002114F039FBB2E701F0CAF90EE0012B81
:101FA00009D0202B0DD020229343402B06D1314B5A
:101FB0001B3A1A7002E02F4B05221A7002F032FE13
:101FC00052E72C4B05221A70F8E70122012128481C
:101FD00006F02CF9274B1B78032B17D1254C032334
:101FE0002370023B6370A01C08221621694414F080
:101FF0003FFB20000A3008221E21694414F038FB00
:1020000005AB5B8A638202F00DFE2DE71E486E224F
:10201000002114F0F9FAE1E701AA0D236B44092429
:102020006C44917818789070013B59700132A3424A
:10203000F7D180210122C9000D4806F0F7F80D4BB9
:102040001B78042B0DD10B4804230370033B437012
:10205000023008226B46991D14F00AFB02F0E2FDE3
:1020600002E70A487822002114F0CEFAEBE7C046D6
:1020700000040048A00A0020246F0108A30A0020E1
:10208000E80C0020A20A0020B40A0020AA0A0020BE
:1020900010B582B0DBB2044C0194049C009400F0B3
:1020A0006FFB80B202B010BD9271859430B587B0DD
:1020B00030246D462C758000091869750021029145
:1020C00032310191203969440091022105A800F0C4
:1020D00071FB80B207B030BD10B5092806D84400A6
:1020E00024180348015500194270837010BDC04682
:1020F000D8050020F0B5DE4657464E464546E0B5C9
:1021000085B0384B9A4638480500203D0400403CD5
:1021100010239946354B98460121132280267600DC
:10212000B346564600964E46029601951D009A46C5
:102130000DE06446009B03330093029B1833029327
:102140006030019E6036019660345B453CD0009B58
:102150009C465B785646F75C002381463E001E4154
:102160000E407042464176429643283698002650EB
:102170000133082BF2D163461B78EF5C00230198F2
:1021800003943E001E410E407442664176429643DF
:1021900028369C0006510133082BF2D14846039C97
:1021A00063469B784646F75C0023A4463E001E41EA
:1021B0000E40744266417642964328369C00065192
:1021C0000133082BF2D1B4E79823094A09489B0050
:1021D000002108F0E5FD05B0F0BCBB46B246A946BB
:1021E000A046F0BDD8050020580100202874010841
:1021F00018000020C4100020F0B5C64600B5060047
:102200000024094DAB5C98466F5CA95D43463A00DB
:102210002000FFF761FF0134E4B20A2CF5D1FFF78B
:1022200069FF80BCB846F0BD2874010810B505F000
:102230003DFD10BD10B5104B036082235B00436071
:1022400000238360E022D200C26003610122426168
:10225000802292008261D93AFF3AC26103624362EE
:102260008362213AC2620363436307F081FE431E27
:102270009841C0B210BDC04600300140F0B589B0F1
:102280002C4B2D4A1A602D4A1368591C11600020EE
:10229000002B01D009B0F0BD264808F08AFA0300EF
:1022A0000020002BF6D1264B9A69802149010A4370
:1022B0009A619A690A400192019A5A6980218902B9
:1022C0000A435A615B690B400293029B20230393EC
:1022D0000227049700240594032606960794902568
:1022E000ED0503A9280005F08FFE40230393049712
:1022F00005940696079403A9280005F085FE80231F
:102300000393049705940696079403A9280005F003
:102310007BFE00220021192005F0E0FC192005F0C9
:102320000FFD0448FFF786FF431E984140420723F4
:102330009843AFE7280B002000300140240B002019
:102340000010024000B583B00D4A516901231943C2
:102350005161526913400193019B002200210A2020
:1023600005F0BCFC0A2005F0EBFC002200210B204C
:1023700005F0B4FC0B2005F0E3FC03B000BDC04643
:1023800000100240F0B5C64600B588B01422002106
:1023900003A814F039F9264B5A69802189020A43AF
:1023A0005A615A690A400192019A5A698021C90208
:1023B0000A435A615B690B400293029B9025ED052D
:1023C00000221021280005F031FF1A4B98461A4EC2
:1023D00000221900300005F029FF0223039388230F
:1023E0005B0304930024059403A9280005F00CFE68
:1023F00010230393012704970594069403A928004A
:1024000005F002FE4346039304970594069403A93E
:10241000300005F0F9FD00220021052005F05EFCEA
:10242000052005F08DFC08B080BCB846F0BDC04664
:1024300000100240071C00000004004800B599B0DD
:10244000302200210CA814F0DFF81022002107A888
:1024500014F0DAF81C220021684614F0D5F8202385
:102460000B931F3B13930BA806F08AFF002819D18A
:1024700007230793043B0893002309930A93012140
:1024800007A807F07FFA00280ED1094B009300231C
:10249000029303930693684607F028FB002805D1B2
:1024A00019B000BD72B6FEE772B6FEE772B6FEE77F
:1024B0000300020010B505F0DDFBFFF7BFFFFFF7DB
:1024C00061FFFFF73FFF01F007FD01F063FD01F041
:1024D000FDFD13F013F911F04BFA13F06BF800F057
:1024E00097FD064B00225A701A700021FF20FFF75B
:1024F00083FEFFF74DFC00F055FDFAE7E80C0020E5
:1025000072B6FEE7F8B5CE46474680B50F1E19D025
:10251000040000250E4B984680235B00994607E097
:1025200023884A461343338001350234AF4209D031
:102530002600208800F069FC0128F1D0238842465B
:102540001340F0E70020C0BCB946B046F8BDC04615
:10255000FFFEFFFF00207047F8B500281ED028219D
:102560000025002420270DE07B1A1600DE403300F2
:102570008A402A43234315001C00013008390E000D
:10258000083607D002780B00203BEDD416009E40A1
:102590003300EDE70249086800F042FAF8BDC04692
:1025A000F805002010B5034B1868002100F085FAEB
:1025B00010BDC046F805002010B5FFF7F3FF00205E
:1025C00010BD000070B588B01500042B64D1002A3E
:1025D00066D00C9B002B65D007AC20706170022286
:1025E000210031480AF0B2FA0300A070020A92B248
:1025F000E2702E482178018061784180FF210B40F4
:102600008380C280FB39FFF77DFFC4B2002C44D128
:10261000274B186800F0F0FA012831D02348002336
:1026200002930A3301931A266E440096053B05AACD
:10263000042100F0F7FB3388042B29D1C4B21C4ECF
:102640003068012100F039FA0C98FFF785FF05ABDF
:102650009A781202597809040A43D9780A431B78F8
:102660001B061A43A97809026B781B041943EB78FF
:1026700019432B781B061943306800F0C1FA0CE0AF
:102680000A490B4B18680023042200F02FFAC5E713
:10269000FFF788FF162001E0072460B208B070BD84
:1026A0000724FAE70724F8E7636300001C0C002006
:1026B000F8050020F0B58DB00400FF252F0007407D
:1026C000380000F0A2FB08AE00020743F780270A9B
:1026D0002F40380000F099FB00020743B780230C1D
:1026E0001D40280000F091FB000205437580240E78
:1026F000200000F08AFB0002204330801E4B186847
:102700000AAA310000F086FA0023029314330193E1
:1027100002336B440093052306AA0821300000F021
:1027200081FB041E1CD116236B441B88042B1AD179
:10273000124906AB1A780A805A784A809A788A80B9
:10274000DA78CA801B790B810B4B186800F00EFBFE
:1027500040B201280BD1084B1868012100F04EFA55
:1027600020000DB0F0BDFFF71DFF1634F8E7FFF7AE
:1027700019FF1624F4E7C046F80500201C0C0020C1
:1027800000B583B0002A0ED0042B0ED1049B002B81
:102790000ED000930423FFF715FF002806D10598FB
:1027A000FFF788FF02E0072000E0072003B000BD2C
:1027B0000720FBE7F0B5DE4657464E46C0B586B06B
:1027C0000E00170005930EAB04CB91461B889A466A
:1027D00010AB1B789B460A1E07D03B4D0024035DBF
:1027E0002B80013402359442F9D33200010037487E
:1027F0000AF0ACF9030034487200FF21194011526D
:10280000721C52001B0A1352B11CFFF77BFE041E00
:1028100006D0200006B0E0BCBB46B246A946F0BDDB
:102820002B4B186800F0E8F9002840D10236B1B20D
:1028300025485B460293534601934B460093059B04
:102840003A0000F0EFFA041EE3D19620400005F0B4
:1028500033FA4B461B88002B09D01B4A0023F95C36
:10286000118001330232494609889942F7D8184B42
:10287000186800F0C1F900280AD04B461A880023D6
:10288000012A1DD9DBB210491148006800F02EF969
:102890004B461B88002BBCD00B4A00231188F954EF
:1028A00001330232494609889942F7D8B1E7B21C90
:1028B00092B20549064B1868002300F017F9B5E7F6
:1028C00000220423DEE7C0461C0C002063630000E6
:1028D000F8050020F8B5040045682B090F200340D7
:1028E0001B4E1E41082333402E0A0640194F374124
:1028F00004263E40334306002E40174F3741102632
:102900003E4033432E0B0640144F374102263E40D3
:1029100033432E0C3040124F0741012637403B43D2
:10292000104FDF403E40A3680F4803400F4805406A
:102930006B404B4032401000584000F059FAA368F9
:102940005B0003436268A2606360F0B2F8BDC046FA
:10295000C0C90600B0C80300C0220F0058E401003F
:1029600038D900000AE857EC040887005CCE29003B
:10297000F8B5CE46474680B507000E0091460025C3
:1029800000240123984631002141434619404A461C
:102990003800FFF79FFFA0400543EDB20134082C3B
:1029A000F1D12800C0BCB946B046F8BDF8B5CE4656
:1029B000474680B580460F001600182400250A4BB4
:1029C00099463900E140C9B232004046FFF7D0FFD6
:1029D000A0400543083CA4B24C45F2D12800C0BC3D
:1029E000B946B046F8BDC046F8FF000070B50C000F
:1029F000008800F0D9F9002C0FD0002201264100F8
:102A0000C30B450B6B40050B6B40800A43403340C2
:102A10001943080001329442F1D100F0C5F970BDAC
:102A2000F0B5DE4657464E464546E0B580469446EC
:102A300000220280002500262F24073292461932F8
:102A4000934601271CE05A46501A814618004A4610
:102A5000904081466046C84001004A46114317E055
:102A60005A46521A1800904081466046C8400100FC
:102A70004A46114339406D000D43023C611C13D09E
:102A8000611E5246514008002038DCD41900C14074
:102A9000394076000E43210052465140080020384C
:102AA000DED41900C140E5E743465E609D60F0BC9E
:102AB000BB46B246A946A046F0BD00230380436052
:102AC0008360012900D08370704710B502805140A7
:102AD0000022FFF76BFF10BD70B5050014005140D8
:102AE0000122FFF763FF44402C8070BDF0B5DE4645
:102AF00057464E464546E0B585B0060003919346DD
:102B000002939046002A4ED00D0000270F24344B2C
:102B10009A46082399460197002200213000FFF7CA
:102B200027FF2B88584080B2288073681A092240FA
:102B3000514611410A0049460A40190A21408C4673
:102B40002849674639418C460421674639400A4383
:102B5000210019408C462449674639418C46102192
:102B6000674639400A43190B21408C461F49674686
:102B700039418C460221674639400A431B0C2340E9
:102B80001B49194101230B401A431A4BD3401B0226
:102B900080225200134058402880019B013301934A
:102BA00002354345B8DB029D002D12D05B465F0025
:102BB000039B9C4667440024002200213000FFF75D
:102BC00089FE0300A3403888584038800134AC4265
:102BD000F2DB05B0F0BCBB46B246A946A046F0BD4C
:102BE000C0C90600B0C80300C0220F0058E40100AD
:102BF00038D900000AE857EC807870478170704738
:102C000010B58378002B02D0FFF766FF10BDFFF7E9
:102C10005CFFFBE7F0B5DE4657464E464546E0B55D
:102C200083B001900C0091468A790B881B061A43E9
:102C30008B881B061B0C1A434B881B04FF210904BD
:102C40000B401A43904618260F25424B9B460823FB
:102C50009A464146F140C9B20022019F3800FFF771
:102C600087FE2388584080B220807B681A092A405A
:102C7000594611410A0051460A40190A29408C461A
:102C80003549674639418C460421674639400A4335
:102C9000290019408C463149674639418C4610213C
:102CA000674639400A43190B29408C462C49674630
:102CB00039418C460221674639400A431B0C2B40A0
:102CC0002849194101230B401A43274BD3401B02CB
:102CD00080225200134058402080083E02343300C6
:102CE0000833B6D14021019F3800FFF77FFE040072
:102CF000FF252E000640300000F087F80002064352
:102D00004B46DE80260A2E40300000F07EF800029E
:102D100006434B469E80230C1D40280000F075F8AA
:102D2000000205434B465D80240E200000F06DF844
:102D3000000220434B4618800023042249463800F5
:102D4000FFF7D4FE012003B0F0BCBB46B246A94653
:102D5000A046F0BDC0C90600B0C80300C0220F00E5
:102D600058E4010038D900000AE857EC70B50600B5
:102D70008D790B881B061D438B881B061B0C1D437E
:102D80004B881B04FF22120413401D436021FFF7F0
:102D90002DFE0400002200213000FFF707FE6040F6
:102DA000401B4342584170BD030040080A4A10408E
:102DB0005B000A4A134018438308094A1340800005
:102DC000084A104003431809074A10401B01074AEC
:102DD000134018437047C04655555555AAAAAAAA8C
:102DE00033333333CCCCCCCC0F0F0F0FF0F0F0F0EB
:102DF000030C4340180A58400309434098085840C0
:102E000043084340012018407047030C4340180A10
:102E10005840030943409808584043084340012064
:102E200098437047F0B5DE4657464E464546E0B5F6
:102E30008FB080460C0002910592039318AB04CB2F
:102E400091461B88049355484822002113F0DCFB6F
:102E5000201E35DD002301338342FCDB00250024E6
:102E6000002708239B464D4E073B9A46019005E0FC
:102E700015001C000137019B9F4217DA7B00424678
:102E8000D25A5B46591B53468B40013B1340AB4023
:102E9000305D03433355631C0A41F15C0A43F2542D
:102EA0006A1C072AE4DD073D0234E3E7029BDA00EF
:102EB0009C4662440732D210002301339342FCDB6C
:102EC000364A07920299CB008C46634406A90B81CF
:102ED000099290239B000B824B460B9333230C9358
:102EE0002F4B049A53430D9307A801F0B1FE040041
:102EF00002F08AFA01F0C8FF0228F9D0283883B21C
:102F000007229A429B411C4063B298464B46188860
:102F10000921FDF70BF980B2039A904206D9D3003C
:102F2000944663444A461380012398464B461888CA
:102F300008280DD90921FDF7F9F884B200210022F3
:102F40000025164F0820A246A346059B9C460CE090
:102F5000124B1B78059A1370012415E022001D0006
:102F600063465E5401318B450DDD6B1CFE5C841A9B
:102F7000A6407C5D14412643F6B2541C072CEDDDBF
:102F8000073A0235ECE754464B461C8040460FB0EA
:102F9000F0BCBB46B246A946A046F0BD9C0C002042
:102FA000F834000010B50E4A13785278134316D146
:102FB0000C4B1B78002B02D0012B07D00FE0084BE5
:102FC00001245C7000F04CFD064B1C70044C022385
:102FD000637000F045FD00236370024A137010BD5A
:102FE000E80C0020E40C002070B504000D0000F097
:102FF000EDF8002808D12900200000F03DFDC0B206
:10300000431E9841400070BD00F0F4FB0120FAE738
:1030100010B582B00D4C2268136810210B43136069
:1030200080220B495200200008F086FE094B1A68E6
:10303000136804218B4313606B46D91D01230B7069
:103040000122200008F064F802B010BD94110020A5
:10305000EA0C00205011002010B5284B1A68D369E3
:10306000DB0600D410BD10231362244808F0AAF830
:10307000234B5B78002B23D1214B02225A70204B2B
:103080001B78012B25D0022B2ED0002B11D11D4BEC
:103090001B6859684942C9B21B4C2000FFF7A4FFC6
:1030A000023C2070164B1B78002B02D1144B0022DF
:1030B0005A70802214491148520008F03DFED1E7B1
:1030C000022BDCD0802210490C48520008F034FE5C
:1030D000C8E70C4B1B6859684942C9B20A4800F05E
:1030E00075F800F087FBDDE7064B1B685B68802105
:1030F0004900C91A044800F0BFFCD3E7941100202E
:10310000E80C002050110020EA0C002010B5134BF1
:103110005B78002B0FD1114B01225A700F4B1B789B
:10312000012B12D0022B15D0002B0DD1FFF75CFF25
:103130000A4B187001E0012BF0D0084B1B78002BD4
:1031400002D1064B00225A7010BD00F03FF800F08B
:1031500051FBF2E700F090FCEFE7C046E80C0020DE
:1031600010B50A00024B0100180007F0D1FF10BD96
:103170009411002010B50A00402904D0010000205D
:1031800010F0CCFC10BD0132F8E7000010B50D4B7B
:103190005B78022B09D0032B0BD00022012B02D12C
:1031A000FFF7E8FF0122100010BDFFF7D9FF012251
:1031B000F9E7054B09220100180011F033FB012249
:1031C000F1E7C046E80C002098260020F0B5CE4676
:1031D000474680B5002950D0020000231478E02C27
:1031E00009D00133DBB201329942F7D10020C0BCD3
:1031F000B946B046F0BD5A1CD2B2875C224A17705D
:103200009A1CD2B291423AD00333DBB2012400229D
:1032100091461D4DA846AC460DE046463255D7199D
:10322000FFB20134E4B201E0012291465A1CD2B24D
:10323000994226D013005A1ED2B22E78A64210D040
:10324000825CD02AF0D04E46002EE6D00132D2B2B7
:1032500066463255D719FFB20134E4B200229146D6
:10326000E4E7825C084B1A55D8786428BFD01A78F6
:103270009B5CBB42BBD00520B9E70800B7E7002044
:10328000B5E70020B3E7C046FC0F0020F0B5D646F6
:103290004F464646C0B5244BDB78002B04D1E0BC3A
:1032A000BA46B146A846F0BD204C8022002120003D
:1032B00013F0AAF9E02323701B4B1D780021002393
:1032C0000024194A944610229246184A9146160044
:1032D000D02290460BE04A1CD2B24746B754023186
:1032E000C9B2013870540133DBB2AB4212D82000AE
:1032F0009D4203D06246D05C0419E4B20200303231
:103300005746BA43D2B2002AE5D00131C9B24A4683
:103310005054E8E7044B0022DA700131C9B2034887
:10332000FFF734FFBBE7C0467C0F0020FC0E0020F7
:1033300010B588B0FFF740F9444B00229A70444B17
:103340001B78002B3CD0434A434B009304230021BD
:103350006020FEF79DFE00280AD13C4C3E4920002B
:103360003330062213F084F9A37801221343A370AB
:10337000384A394B0093042300216120FEF788FE70
:1033800000280AD1314C344920003D30062213F088
:103390006FF9A37802221343A37000222C4B1A70FA
:1033A0002A4B9B78032B37D0284B9B78002B02D1DC
:1033B000264B80229A700120FFF7CCF808B010BD90
:1033C000244A264B0093042300216020FEF760FE70
:1033D00000280AD11D4C214920003330062213F069
:1033E00047F9A37801221343A3701A4A1C4B009398
:1033F000042300216120FEF74BFE00280AD1134C64
:10340000174920003D30062213F032F9A37802223A
:103410001343A3700122C1E70F3303AA0121002047
:10342000FEF744FE0F4C102203A9200013F020F9F0
:10343000122303AA02210020FEF738FE20001030DC
:10344000102203A913F014F9AEE7C046A00A002029
:103450009C0A0020A30A0020100000200800002081
:1034600000000020B30A0020064B821D1A70064A95
:103470005178597091789970D278DA7000221A7167
:10348000587170477C0F0020FC0F002010B5002001
:10349000FFF7EAFF014B00229A7010BD7C0F00205D
:1034A00030B587B0114B9B78DB0711D56C46104BBC
:1034B000220023CB23C223CB23C21720FFF7D4FF44
:1034C0000C48831F5A79210013F0D2F807B030BDA1
:1034D00094236A4613800120FFF7C6FF0548831F27
:1034E0005A79694613F0C4F8F0E7C046900B002003
:1034F0004C6F0108820F002030B587B0134B9B78CA
:10350000DB0711D56C46124B220023CB23C223CB01
:1035100023C21720FFF7A8FF0E48831F5A79210006
:1035200013F0A6F807B030BD6C460B4B220003CB5E
:1035300003C21B8813800920FFF796FF0548831FED
:103540005A79210013F094F8ECE7C046900B002064
:10355000646F0108820F00207C6F010830B585B0D0
:10356000134B9B78DB0711D56C46124B220003CB23
:1035700003C21B8813800920FFF776FF0E48831FC4
:103580005A79210013F074F805B030BD6C460B4B2E
:10359000220023CB23C21B7813700C20FFF764FF9B
:1035A0000548831F5A79210013F062F8ECE7C04602
:1035B000900B0020F46E0108820F0020886F010834
:1035C00010B50020FFF750FF10BD10B50020FFF729
:1035D0004BFF10BD70B51F4B5B78002B05D01D4B0A
:1035E0001B78012B08D0032B1BD00120FFF73CFFD9
:1035F000194B00229A7170BD164B9B78002BF4D0AA
:10360000154C200009301549042213F031F8072029
:10361000FFF72AFF04232372033BA3710F33E371E7
:10362000E9E70D4C0B4D20000930A91C082213F0CE
:103630001FF82000113029000A31082213F018F871
:103640001320FFF711FF0123A3711F33E371103B18
:103650002372D0E7A00A00207C0F0020A30A0020DC
:1036600010B50020FFF700FF0B4B1B78012B0ED18C
:10367000094B9B78DB070AD508490948062212F056
:10368000A3FF002806D0074B01221A7102E0054B68
:1036900001221A7110BDC046A00A0020D30A0020E2
:1036A000F40E00207C0F002010B50020FFF7DCFE98
:1036B0000B4B1B78012B0ED1094B9B789B070AD52E
:1036C00008490948062212F07FFF002806D0074B60
:1036D00001221A7102E0054B01221A7110BDC04689
:1036E000A00A0020DD0A0020EC0E00207C0F002044
:1036F00010B51020FFF7B8FE084B1B78012B03D044
:10370000074B01221A7110BD064B597A0901064B6D
:10371000C9180648102212F0ABFFF4E7A00A0020F7
:103720007C0F0020FC0F0020A30A0020820F002045
:1037300010B52C4B5B78022B03D02A4B1B78032B44
:1037400012D1294B9B7B294A591CD171082B3AD0A5
:1037500011D90C2B2BD0A42B3DD10B20FFF784FECD
:10376000224B00221A741EE00020FFF77DFE1F4B43
:1037700001221A711AE0002B0ED0062B2BD11B4B05
:1037800000221A745A74184A907E987400010D3001
:10379000C0B2FFF769FE06E01420FFF765FE134B89
:1037A000134A12881A83114B5A799A7110BD0D2051
:1037B000FFF75AFE0D48012303740D491130022210
:1037C00012F056FFEFE70C20FFF74EFE074B0022EA
:1037D0001A745A74E7E70020FFF746FE034B0322F2
:1037E0001A71E0E7A00A0020FC0F00207C0F0020E7
:1037F000FC05002010B5822805D800D975E08000AE
:103800003D4B1B589F46F02859D0F52800D06CE05E
:103810000020FFF729FE11E0FFF738FE0EE0002040
:10382000FFF722FE354B00221A7107E00020FFF758
:103830001BFE324B08221A71FFF732FEFFF726FDFE
:1038400010BDFFF759FEF9E70020FFF70DFE2B4BE7
:1038500020221A71F2E72A4B00225A70FFF7B0FEBD
:10386000ECE7FFF7B2FEE9E7FFF7B4FEE6E725482D
:103870002549062212F0FCFE0020FFF7F5FDDDE7EA
:1038800022482149062212F0F3FE0020FFF7ECFD4A
:10389000D4E7FFF7E5FED1E7FFF706FFCEE7FFF736
:1038A00027FFCBE7FFF744FFC8E7194BDA7999798F
:1038B0005879FEF7A1FC0020FFF7D6FDBEE7FFF721
:1038C0004DFEBBE70020FFF7CFFDB7E70020FFF775
:1038D000CBFDB3E70020FFF7C7FDAFE70020FFF700
:1038E000C3FD064B05221A71A8E70020FFF7BCFDB7
:1038F000024B00221A71A1E7287501087C0F0020F5
:10390000A00A0020F40E002001100020EC0E002080
:10391000FC0F0020092802D83030C0B27047373081
:10392000C0B2FBE7F0B5C64600B582B0FEF744FE74
:10393000434B00229A70434B1B78002B37D0424AEE
:10394000424B0093042300216020FEF7A1FB0028D6
:103950000AD13B4C3D4920003330062212F088FE4C
:10396000A37801221343A370374A384B00930423F2
:1039700000216120FEF78CFB00280AD1304C33492E
:1039800020003D30062212F073FEA378022213437A
:10399000A37000222B4B1A70294B9B78032B32D03B
:1039A0000120FEF7D7FD02B080BCB846F0BD264A24
:1039B000274B0093042300216020FEF769FB0028B9
:1039C0000AD11F4C224920003330062212F050FE4B
:1039D000A37801221343A3701B4A1E4B00930423B8
:1039E00000216120FEF754FB00280AD1144C19492C
:1039F00020003D30062212F03BFEA3780222134342
:103A0000A3700122C6E70E4E134C05339846A0441E
:103A10000F27F5782809FFF77DFF20702800384030
:103A2000FFF778FF6070013602344445F1D10B484E
:103A300036233022C2544E21FFF7A8FBB0E7C04620
:103A4000A00A00209C0A0020A30A002010000020E9
:103A50000800002000000020B506002074060020A9
:103A600010B5044870230022C2547121FFF78EFB69
:103A700010BDC04600060020F0B5DE4657464E4653
:103A80004546E0B583B004000D00037800207B2B91
:103A900000D027E16378222B00D023E1A378692BA3
:103AA00000D01FE1E378642B00D01BE12379222BA7
:103AB00000D017E163793A2B00D013E10130772968
:103AC00000D80FE100239A469946002600279B461E
:103AD00037E023799B46303B092B6ED8E0783038AD
:103AE000FDF7AAFF834A844BFDF77AF80090019115
:103AF00060783038FDF7A0FF02000B0000980199B4
:103B0000FCF7A8FC009001915B46303B1800FDF7E4
:103B100093FF7A4A7A4BFDF763F802000B00009896
:103B20000199FCF797FC0022764BFDF759F8FCF75A
:103B300073FCC3B29B460136F6B20134B54200D1E4
:103B4000C8E023782C2BF6D10137FFB2032FC0D069
:103B5000062F6CD123799946303B092B4AD8E0785F
:103B60003038FDF769FF634A634BFDF739F8009081
:103B7000019160783038FDF75FFF02000B0000987C
:103B80000199FCF767FC009001914B46303B18000F
:103B9000FDF752FF594A5A4BFDF722F802000B007D
:103BA00000980199FCF756FC0022564BFDF718F8D7
:103BB000FCF732FCC3B29946BDE7E0783038FDF738
:103BC0003BFF4C4A4C4BFDF70BF80090019160789D
:103BD0003038FDF731FF02000B0000980199FCF727
:103BE00039FC0022474BFCF7FBFFFCF715FCC3B286
:103BF0009B46A0E7E0783038FDF71EFF3D4A3E4B7C
:103C0000FCF7EEFF0090019160783038FDF714FF6B
:103C100002000B0000980199FCF71CFC0022394BB4
:103C2000FCF7DEFFFCF7F8FBC3B2994683E7092FE8
:103C300000D080E723799A46303B092B2DD8E078D5
:103C40003038FDF7F9FE2B4A2B4BFCF7C9FF0090EB
:103C5000019160783038FDF7EFFE02000B0000980C
:103C60000199FCF7F7FB009001915346303B180097
:103C7000FDF7E2FE214A224BFCF7B2FF02000B00E7
:103C800000980199FCF7E6FB00221E4BFCF7A8FF09
:103C9000FCF7C2FBC3B29A464DE7E0783038FDF737
:103CA000CBFE144A144BFCF79BFF00900191607807
:103CB0003038FDF7C1FE02000B0000980199FCF7B7
:103CC000C9FB00220F4BFCF78BFFFCF7A5FBC3B22F
:103CD0009A4630E7524649465846FEF78DFAFFF7B6
:103CE000BFFE012003B0F0BCBB46B246A946A046C9
:103CF000F0BDC0469A9999999999B93F7B14AE47FE
:103D0000E17A843F00E06F4082B00A4B996901225A
:103D10001143996199690A400092009ADA698021F9
:103D200049050A43DA61DB690B400193019B02B04C
:103D30007047C04600100240FEE7FEE7704770473C
:103D400010B503F0A7FF10BD10B5034804F048F903
:103D5000024804F045F910BDCC060020F0330020E5
:103D600010B5034804F0D6F8024804F0D3F810BDAB
:103D7000801000205011002010B5024804F0CAF84D
:103D800010BDC0460C11002010B5024806F076FCAC
:103D900010BDC046280B002010B5034807F0E0FA1C
:103DA000FFF75AF910BDC0469411002010B5024823
:103DB00007F0D6FA10BDC0465019002010B50248D1
:103DC00004F0BEFA10BDC0461C12002010B503005E
:103DD0000C4A0D49521A0D490968002907D00B49B0
:103DE0000868C318934206D8084A136010BD0749F3
:103DF00007480860F3E712F00FFC0C230360012072
:103E00004042F3E700400020000400007C10002046
:103E1000403500207047000010B582B00400164BFA
:103E200002689A4201D002B010BD144B9A698021F9
:103E300009010A439A619B690B400193019B104859
:103E4000104B036010234360002383608022C26014
:103E50008132FF3202618022D20042618361C361FC
:103E600003F096FF002803D1054B63625C62DAE73A
:103E7000FEF746FBF8E7C046002C01400010024068
:103E8000801000201C00024010B586B004001422EF
:103E9000002101A812F0B8FB0D4B22689A4201D014
:103EA00006B010BD0B4B5A69802189020A435A6142
:103EB0005B690B400093009B80235B000193FE3BFA
:103EC00002930593902001A9C00504F09DF8E7E74F
:103ED000002C01400010024000B593B008220021E0
:103EE00010A812F091FB1C22002109A812F08CFBF3
:103EF0002022002101A812F087FB2448244B0360F4
:103F00000023436083603B22C2600361436183619D
:103F100006F058FE00282DD10023109311931B4862
:103F200010A907F059F8002827D16023099300232E
:103F30000A930B930C930D930E930F931348002247
:103F400009A906F0ABFE00281AD1002301930293C1
:103F500003930493059380229201069208930B48E1
:103F600001A907F06FF800280DD10848FFF78CFF72
:103F700013B000BDFEF7C4FACEE7FEF7C1FAD4E7EE
:103F8000FEF7BEFAE1E7FEF7BBFAEEE7C410002049
:103F9000002C014010B50C480C4B0360E1235B0280
:103FA000436000238360C36003610C22426183612C
:103FB000C3610362436207F031FE002800D110BDE7
:103FC000FEF79EFAFBE7C04694110020003801403E
:103FD00010B588B004001422002103A812F014FBCD
:103FE000334B22689A4201D008B010BD314B9A6918
:103FF0008021C9010A439A619A690A400192019A93
:104000005A69802189020A435A615B690B40029315
:10401000029BC023DB000393022304930133069326
:10402000023B0793902003A9C00503F0EDFF22484F
:10403000224B03600023436083608022C2600361DF
:104040004361836180239B01C36103F0A1FE0028CB
:1040500027D1194B63675C6219481A4B0360102320
:104060004360002383608022C260036143618361F7
:1040700080239B01C36103F08BFE002814D1124AF8
:10408000116880239B000B4313600D4B23675C6218
:10409000002200211B2003F021FE1B2003F050FE14
:1040A000A2E7FEF72DFAD4E7FEF72AFAE7E7C046C3
:1040B0000038014000100240501100203000024042
:1040C0000C110020440002400000014010B50A48D5
:1040D0000A4B036008230371063B4371C37100233D
:1040E00043728372C37204F0AFF8002800D110BD90
:1040F000FEF706FAFBE7C0461C120020005C0040F9
:1041000000B583B00C4B02689A4201D003B000BDE9
:104110000A4BDA69802109040A43DA61DB690B4042
:104120000193019B002200211F2003F0D7FD1F20D7
:1041300003F006FEEAE7C046005C004000100240C3
:104140000D488546FFF766FE0C480D490D4A0023D1
:1041500002E0D458C4500433C4188C42F9D30A4A3C
:104160000A4C002301E013600432A242FBD312F098
:1041700059FAFEF79FF9FEE70040002000000020FA
:10418000800A00201C7F0108800A002040350020A2
:10419000FEE770B504000D00110085420DD9281A04
:1041A000FCF74EF8201880B2844200D070BDFF2387
:1041B00098430130FF3080B2F8E7401BFCF740F82D
:1041C000201A80B2A542F1D08442EFD1FF23984358
:1041D000ECE7000010B5E021052003F05BFA0821B0
:1041E0000C2003F06CFA054B0022DA645A649A64DE
:1041F0005B6D002B00D0984710BDC046F81400201E
:1042000010B54E4B5B780A3B022B5DD9C22003F000
:10421000FCF9D52003F0F9F9484B186900280CD0B7
:104220005B78092B5AD00D2B07D0454B98424FD8BD
:10423000C00880B2202103F008F8404B1B6D002B12
:1042400000D098473D4B1B6B5A07D20F5201D9063D
:1042500001D540210A439B0601D580231A43E02162
:10426000052003F05AFA354B1B6B1B063CD5802109
:104270000A2003F024FA314B1B6B1B0739D50821A8
:104280000C2003F007FA2D4BDB79012B36D00221ED
:10429000122003F0FFF92B4C284B5B781A000A3AE6
:1042A000022A31D8284B1C43244B586B431E03333E
:1042B00036D9200003F030FB200003F05BFB1F4BDE
:1042C0003F22FF21995410BDDB2003F09EF9A3E7A4
:1042D0001E4B9C466044C00880B2ABE7C10AC9B21D
:1042E000552003F005F9A8E780210A2003F0D2F950
:1042F000C1E708210C2003F0E2F9C4E702211220F3
:1043000003F0DDF9124CC7E704229343092BCBD10C
:10431000104B1C43002203210A2003F0FEF9C3E7DF
:104320000D49FBF703FFFA239B009C46604480B2D3
:1043300003F0BEFB014BD864BBE7C046F814002075
:104340003B0400007840F00000080008C4FBFFFFB9
:104350007A40F000001E0080F834000010B5064BD3
:104360003F229B5CFF2B00D010BD04493D3A1E202C
:1043700003F076F8F8E7C046F81400203615002060
:1043800010B5FFF7EBFF044B3F22985C8009000259
:10439000013A9B5C184310BDF814002010B5FFF7DC
:1043A000EFFF0400154B5B78012B00D010BD134BC1
:1043B0005B8B1B2B01D0152BF8D1FFF7CFFF0F4BD9
:1043C0003F229B5C313A1A42F0D0012CEED10B4CCB
:1043D000606A012103F0B4F8E36A002B08D0FFF70C
:1043E000BDFF064BDA6A3F215B5C1B075B0F138046
:1043F000024B28225A8332321A76D7E7F81400206B
:1044000000B583B00B4B1B78002B10D0002280210D
:104410002C2003F0A0F903000020002B01D103B0F1
:1044200000BD6B46981D02F0C9FD0020F7E7212072
:10443000F5E7C046F814002070B502F035FF041E01
:1044400001D0200070BD03F0A9FA4021012003F043
:1044500005F9002008F0F2FA03220321022003F0FC
:104460005CF9144BFF203F2298543E3A1A70002208
:1044700000215A701A719A715A71DA715A761A7645
:10448000DA601A619A601A751A64DA645A649A6476
:104490001A655A659A658825ED005A5300255C32E5
:1044A0009D54103298541132995403329954FFF7A5
:1044B000A7FFC6E7F814002000B585B0CE4B1B78E7
:1044C000002B00D194E1FF2812D0CB4B9870FF292C
:1044D00011D0C94BD9705B78073B012B0DD8C64B67
:1044E0005A780D2A00D9A7E19300C44AD3589F46B1
:1044F000C14B9878E9E7D978EBE702F0D0FD0028C6
:10450000EDD076E1212074E1082008F097FABA4B4B
:104510009878EA2815D90001FF2303400220FF30D4
:10452000184308F08BFAB44BD878EA2811D9000167
:10453000FF23034081204000184308F07FFA002049
:1045400057E101300001FF2303400220FF301843F0
:10455000E7E701300001FF230340812040001843BA
:10456000EBE7082008F06AFAA34B9878EA2813D9F9
:104570000001FF230340A248184308F05FFA9E4B56
:10458000D878EA280FD90001FF2303409D4818433B
:1045900008F054FA00202CE101300001FF23034011
:1045A00097481843E9E701300001FF23034095488D
:1045B0001843EDE7082008F041FA8F4B9878EA2875
:1045C00013D90001FF2303408F48184308F036FA3F
:1045D000894BD878EA280FD90001FF2303408B4884
:1045E000184308F02BFA002003E101300001FF23FB
:1045F000034085481843E9E701300001FF230340E9
:1046000082481843EDE77C4BDB781A001532D2B2B2
:10461000012A00D912E1784A927811001431C9B206
:10462000012900D90CE102A8ED3A51424A41027039
:10463000EB3B5A4253414360694608F0E7FA009B5E
:104640005A7801A842709A788270DA78C2701B7822
:10465000037002F079FE082008F0F0F9664B9878B4
:10466000EA2813D90001FF2303406948184308F0E2
:10467000E5F9614BD878EA280FD90001FF23034000
:104680006448184308F0DAF90020B2E00130000174
:10469000FF2303405E481843E9E701300001FF2390
:1046A00003405C481843EDE7082008F0C7F9524B77
:1046B0009878EA2813D90001FF230340564818438D
:1046C00008F0BCF94C4BD878EA280FD90001FF2339
:1046D00003405248184308F0B1F9002089E0013046
:1046E0000001FF2303404C481843E9E70130000173
:1046F000FF23034049481843EDE7092008F09EF9DD
:104700003D4B9878EA2813D90001FF231840444B09
:10471000184308F093F9384BD878EA280FD90001EC
:10472000FF2318403F4B184308F088F9002060E051
:1047300001300301FF201840394B1843E9E70130ED
:104740000301FF201840374B1843EDE7092008F01C
:1047500075F9294B9878EA2813D90001FF231840EE
:10476000314B184308F06AF9234BD878EA280FD95F
:104770000001FF2318402D4B184308F05FF900207B
:1047800037E001300301FF201840274B1843E9E7C9
:1047900001300301FF201840244B1843EDE70920A6
:1047A00008F04CF9144B9878EA2813D90001FF233C
:1047B00018401F4B184308F041F90F4BD878EA28EE
:1047C0000FD90001FF2318401A4B184308F036F99F
:1047D00000200EE001300301FF201840144B184365
:1047E000E9E701300301FF201840124B1843EDE7C1
:1047F000212005B000BDC046F81400204C77010808
:104800000102000002020000010400000204000096
:104810000110000002100000010800000208000062
:104820000188000002880000018100000281000070
:1048300001840000028400000F20DAE70720D8E797
:104840000720D6E770B504000D001600814B1B78D9
:10485000002B00D1F5E0FF2900D1F4E0FF2A00D1C0
:10486000F3E00D2800D9F2E083007B4AD3589F463D
:1048700018201DE00421022002F00CFF0821032073
:1048800002F036FE0220FF3008F0D8F88120400008
:1048900008F0D4F86F4A1378191CDBB2022B00D24F
:1048A000022111706B4B5C7031002800FFF704FE91
:1048B00070BD0421022002F0EDFE2021032002F051
:1048C00017FE0220FF3008F0B9F88120400008F000
:1048D000B5F8DFE70421022002F0DCFE10210320FE
:1048E00002F006FE0022FC21062002F016FF002244
:1048F000F021072002F011FF584808F09FF85848AF
:1049000008F09CF8C6E70421022002F0C3FE102143
:10491000032002F0EDFD0022FC21062002F0FDFE46
:104920002022F021072002F0F8FE4C4808F086F81B
:104930004B4808F083F8ADE70421022002F0AAFEFC
:104940001021032002F0D4FD0022FC21062002F0F9
:10495000E4FE3022F021072002F0DFFE3F4808F09D
:104960006DF83F4808F06AF894E70421022002F04D
:1049700091FE1821032002F0BBFD3A4808F05EF8D2
:10498000394808F05BF885E70421022002F082FE36
:10499000364808F053F8364808F050F87AE7022114
:1049A000032002F0A5FD00220421122002F0B5FE32
:1049B0006021A92002F049FC8021152002F098FD19
:1049C0002C4808F03BF82C4808F038F862E7BA2188
:1049D000032002F08DFD0021552002F089FD002208
:1049E0000421122002F099FE6021A92002F02DFC82
:1049F0008021152002F07CFD204808F01FF8204897
:104A000008F01CF846E70421022002F043FE88214A
:104A1000032002F06DFD1B4808F010F81A4808F05A
:104A20000DF837E70421022002F034FEA021032014
:104A300002F05EFD154808F001F8154807F0FEFF8A
:104A400028E7212034E7072032E7072030E70F204E
:104A50002EE7C046F8140020847701080102000008
:104A60000202000001040000020400000110000026
:104A70000210000001080000020800000188000088
:104A80000288000001810000028100000184000012
:104A9000028400000C4B1B78002B0FD00A4B5B7874
:104AA000002B0DD0002802D0074B9B780370002903
:104AB00008D0054BDB780B70002070472120FCE705
:104AC0002120FAE70020F8E7F814002010B5041EB2
:104AD00007D0012809D184228F21452002F005FE4C
:104AE00003E08021452002F0D5FD014BDC7110BDB3
:104AF000F8140020034B044A904200D910001861BA
:104B00007047C046F8140020F8FF0700014B1869F1
:104B10007047C046F8140020034BFF2292019042D8
:104B200000D91000D8607047F8140020034B044AE5
:104B3000904200D9100098607047C046F8140020D9
:104B40008074D90410B5054B1B6C0120002B00D1DB
:104B500010BD180002F0B2FFFAE7C046F8140020BA
:104B600070B580228021022002F0F5FD002850D08F
:104B70002A4B1B78002B4ED0022007F05FFF082243
:104B80000821022002F0E7FD002804D0234B1B7906
:104B90000024002B25D10021552002F0A9FC012280
:104BA0000321022002F0B9FD1C4D2A7D032313408E
:104BB000FF22FF21C82002F09DFA040003220321F6
:104BC000022002F0AAFD287D01300721FBF734FB0B
:104BD000297508220821022002F0BDFD2871002855
:104BE00005D10E4B9868002806D1200070BD4821E1
:104BF000022002F064FDF4E7094B984200D218004D
:104C00000749FBF793FA80B202F052FF034B186496
:104C1000EBE72124E9E72124E7E7C046F814002068
:104C2000F834000010B5094B1B7E002B0BD1482136
:104C3000022002F02FFD032007F000FF034B0022AB
:104C40001A71002010BDFFF7C5FAF0E7F814002034
:104C500070B5041E00D1E2E0804B1B782120012BAF
:104C600000D8B0E0082208211F3802F074FD0028A7
:104C70000BD17A4B5A7813000A3B022B00D8D0E0B4
:104C800023682130002B00D09DE0744A13001C33B0
:104C900023CC23C323CC23C321681960D368002B02
:104CA00000D1CBE05278012A0AD08A246400022A7B
:104CB0000BD0CA246400032A07D0553CFF3C01E016
:104CC0008A246400072A00D140340821122002F00F
:104CD000E1FC624B5B78032B16D0604BDB68042150
:104CE000A34202D31B1B9B09D9B20F2002F000FC88
:104CF0005A4B5A6B531E033369D8584BDB68072055
:104D00009A4200D99FE05EE0002204210A2002F0CE
:104D100022FD0028E1D0803408214C2002F0CFFC95
:104D200014221F21462002F0F8FCD6E7B42000012F
:104D3000032B12D0402001E0A0208000062B43D19D
:104D4000464B9B78013B591E8B415B425B0A5B02E1
:104D50008021C9008C466344C0188018404B98429B
:104D600000D918003D4B5863800902F037FA3B4BDD
:104D700003221A7008321A76093A5A835B78073B85
:104D8000012B28D83549374BCB180A001C3231CAC1
:104D900031C331CA31C312681A60334BCA58002A72
:104DA00000D0324A2D4B5A62822252011A85872244
:104DB000D2009A5808210A402B310A431A63DB6952
:104DC0000020002B10D070BD092BB9D0C5E7002002
:104DD00002F004FACBE7214BDB69002B04D01F4B18
:104DE0001B8C0020002BEED1FFF70AFA1B4B5B78DF
:104DF00004229343092B0AD0D12002F006FCE320C1
:104E000002F003FC154B51221A760020DBE7082143
:104E1000022002F03FFCE42002F0F7FBECE7072061
:104E2000D1E70E490B001C3361CC61C361CC61C377
:104E300020681860CB68002B00D03AE7074B5A6B0C
:104E4000531E0333C3D8054B5B78012B00D173E7A6
:104E5000022B00D06AE7A02080007EE7F814002033
:104E600000F0FF0F240400002C04000010170020A5
:104E7000044B1B7E0B3BDBB2002045229A42404193
:104E8000C0B27047F8140020044B1B7E002B02D1E7
:104E9000024B588B70470220FCE7C046F8140020F4
:104EA000F0B5CE46474680B583B0FFF7EDFF04006E
:104EB0000200022846D0384BB8215B5819780029E7
:104EC0001FD0354BB0208146B4255E5937781E5827
:104ED000B446F65D0E416146CE5559590E781F58BD
:104EE000B95D8846B8215958097840468840B85578
:104EF00059590D7849465858415DAC269B5D0B4386
:104F000043551D2A24D0042002F041FD0121052033
:104F100002F0C0FB204B9878EA282DD90001FF232E
:104F200003400220FF30184307F088FD1A4BD87861
:104F3000EA2829D90001FF230340812040001843BB
:104F400007F07CFD200003B0C0BCB946B046F0BD00
:104F50006B46D91D202002F0A1FA0F4BB4229958BC
:104F60006A46D27912090A70B8229A586B46DB79E0
:104F70001B075B0F1370C6E701300001FF230340DE
:104F80000220FF301843CFE701300001FF23034028
:104F9000812040001843D3E7F814002010B53A4BA5
:104FA0003A4A1B88934200D06CE0FFF76DFF040083
:104FB00002282BD004282BD1334BD4229A5CDA71EF
:104FC000C4229858002808D004329B5C002B04D0DF
:104FD0002D4AC921525C002A48D12B4BCC229A5829
:104FE000002A02D0C9215B5C1370274BD0229A584B
:104FF000002A02D0CA215B5C1370234BC8229B5845
:10500000234A13405A4253415B421C40200010BDCA
:10501000D12002F0FAFAD52002F0F7FA1A4B3F221B
:10502000FF219954002C1BD11900C923CA5C0132FD
:10503000D2B2CA5493009B189B00D5335B184B62C5
:1050400002220221242002F086FB0028B4D00E4B5D
:1050500002225A8301321A704E321A760224D5E7A0
:10506000094BCA215A5C01325A54E9E7191C934290
:1050700000D9111CC9B28A0052189200054911F0DA
:10508000F7FAAAE72124C1E7F8140020030600007C
:1050900000FFFF00CD15002010B540224021312037
:1050A00002F059FB10BD000010B5144B1B78002B0B
:1050B00022D0124B5C22002199549B79002B16D1EF
:1050C00001F015FFFFF7AEFD0D21082002F0F7FA01
:1050D0000821032002F00CFA094802F058FC0948A4
:1050E00002F01AFC072007F0A9FC002010BD403197
:1050F000012002F0B3FAE3E72120F7E7F8140020DB
:105100008000001F0800001FF8B504000F00160003
:105110001D00264B1B78002B44D00D2844D01028AE
:105120002FD007200C2C2BD10121013002F0B2FA34
:10513000CE2002F06AFAC822FB21032002F0EDFA29
:105140002021052002F0A6FAD12002F05EFA174BCA
:105150009B6E1748184302F012FCFFF79DFF0028D2
:105160001CD0124B5C229C54583A1A701F67703244
:105170009E529D6700222A8000217C329954002093
:10518000F8BD0521082002F085FACE2002F03DFA94
:10519000E822FB21032002F0C0FAD1E7FFF784FFE9
:1051A0002520EDE72120EBE70F20E9E7F8140020A8
:1051B0002019F000002903D0064B6C229B5C0B7079
:1051C000002803D0034B7C229B5C0370014B5C22C4
:1051D000985C7047F8140020F8B50400874B1B78E2
:1051E000002B00D106E1854B7C2200219954844D8F
:1051F000F9E005252800F8BD4021022002F05FFA01
:10520000C22002F002FA7D4B1B6E5B0524D47B4B5F
:105210001B6EDB0428D4794B1B6E9B0429D4202100
:10522000052002F037FA01277F42380002F0AFFB79
:10523000724EB36E7348184302F0A1FB6C23F7540F
:10524000726ED2B2FB21032002F067FAFFF724FF4F
:10525000002818D00224C6E00121082002F01AFA22
:10526000CD2002F0D2F9D2E70421082002F012FA90
:10527000D1E701220321032002F04FFA0821022086
:1052800002F008FACBE7C821023002F003FA002549
:1052900073E080228021022002F05DFA002812D102
:1052A000C021023002F00BFA10221021312002F04E
:1052B00052FA00280AD10A21803002F0EDFA0028C3
:1052C00004D1032559E0802002F026FB4B4B1B6ED6
:1052D00000269B0414D4494B5C229B5C062B25D0F2
:1052E000DB2002F092F9D12002F08FF9434B99793B
:1052F000002976D040231943012002F0AFF970E075
:10530000C22002F082F901220321032002F005FAF3
:105310000821022002F0BEF940224021312002F093
:105320001AFA0028D7D101260124D4E70121082048
:1053300002F0B0F9CD2002F068F9D1E72F4E6C25CC
:10534000705D010001F0ABFE0121082002F0B7F909
:10535000715D0A000C20FFF775FA05000423337015
:10536000DB2002F052F9D12002F04FF9F0200004C6
:1053700002F0D2FA102002F0FDFA204B5C229C547D
:1053800038E71E4B6C22995C0A000C20FFF75AFA92
:105390000500F2E7194E6C25705D010001F07FFEFB
:1053A0000421082002F08BF9715D0A000A20FFF742
:1053B00049FA050004233370DFE70121082002F0D9
:1053C0007EF9F020000402F0A7FA102002F0D2FAD1
:1053D0000025D2E70421082002F071F90025CCE76E
:1053E0000026002E04D0102C06D8A300EB589F46B0
:1053F0000025C2E72125FDE62125FBE6F814002063
:10540000BC770108A019F000F0B5C64600B58CB015
:10541000CA4B1B78042B01D100F078FC052B01D17D
:1054200000F0B9FE032B01D000F0BBFEC34BD86CDB
:10543000002810D1FFF71CFD00282ED1BF4B1B7E8A
:10544000502B01D800F0ADFE00220A92BB4A527EDA
:105450009A4216D117E002F031FB0028EAD0B74B90
:1054600003225A8357321A76FFF702FD002814D11F
:1054700000230A93B14B5A7E5A235A2A01D100F0D5
:10548000D8FBAE4A5376513BDAB2092A01D900F073
:1054900037FC9300AA4AD3589F4600230993A74A92
:1054A000137E527E9A4201D0A44A53760B3BDAB265
:1054B000092A00D9A1E19300A24AD3589F469F4BE5
:1054C0000C221A76FFF73EFB002801D100F069FE9E
:1054D0009A4B00221A640D321A76984B5B7804229C
:1054E0009343092B07D00421242002F034F900282B
:1054F00001D000F056FE914B0E221A76FEF780FE88
:105500008E4B9C2252001A875D78EB1F012B3ED9EF
:105510008A4C208CC31DDB08638701F03FFE638F3C
:105520001A1C802189009BB28B4200D90A1C91B2BF
:10553000824B9A87D86901F0E6FF804B59790029A0
:1055400064D17E4B5B780A3B022B65D97B4B0F22E3
:105550001A767A4B9B6D002B04D09847002801D116
:1055600000F01FFE754B1B6BDB0760D5C52002F0FA
:105570004CF8724B998F5A8F002391425B415B42EA
:105580000222134010336D4A137600F00AFE6B4C72
:105590008423DB000022E2521833E1588B090120FA
:1055A00043400132134041400A40218C0731C90871
:1055B000E06926003C3605968026B600049618362B
:1055C000A61903968426F600A61902963A34019489
:1055D0002C00083C65426C41009407F02FFB00282A
:1055E00007D00D2805D0554B588314221A7600F0A9
:1055F000D8FD524C608FC00080B201F0CFFDA18F6A
:1056000086239B00E01801F07EFF96E740231943B4
:10561000012002F023F894E7FFF73EFD002895D122
:10562000464B25225A83113A1A7600F0BAFDC4205F
:1056300001F0EBFF9DE7482002F06EF90990099B0D
:10564000002B01D100F0ADFD099B5B0646D5099BFF
:105650001B0743D4394B11221A76384B5C78E31F71
:10566000012B48D8354A538F918F168F5A1AB24260
:1056700000DA96B20BAD00232B8030488723DB0085
:10568000C1588B0901277B400122134079400A4011
:10569000018C0731C908C0690595351C8227BF00F8
:1056A000BE4200D93D1CADB20495274D039582261C
:1056B000B600AE190296DF3DFF3D0195083C6542FC
:1056C0006C41009407F0BAFA00280ED00D280CD0D7
:1056D0001A4B588314221A7600F063FD174B0322ED
:1056E0005A8311321A7600F05CFD0BAB198816480C
:1056F00001F009FF0FE0114B9A8F598F1B8F891A08
:10570000994200DD190089B20BAB19800B4BD869A7
:10571000801801F0F8FE094B9A8F0BA909885218DE
:1057200092B29A87598F00238A425B415B420222E0
:1057300013401033014A137600F033FDF8140020B3
:10574000007801082878010810170020482002F08E
:10575000E3F80990099B002B01D100F022FD099B81
:105760001B070FD5B34B13221A76B24B5B6A002B83
:1057700014D0B04B9B79002B21D1AE4B51221A761D
:1057800000F00FFD099B5B0601D500F00AFDA94B57
:1057900003225A8311321A7600F003FDA54B9B7940
:1057A000002B07D1FEF716FDA24B00225A831A7672
:1057B00000F0F7FC4021012001F050FFF2E740210A
:1057C0001943012001F04AFFD7E79A4B5B8B022B6C
:1057D0000AD0984B9B79002B0AD1FEF7FBFC954B26
:1057E00000221A7600F0DDFC924B08225A83F0E783
:1057F0004021012001F032FFEFE78E4B08225A834F
:105800000C321A7600F0CDFC8A4B00229A875A8718
:10581000DB6A002B00D01A800A2002F049F9854B80
:1058200098645B7804229343093B5A1E9341523398
:10583000804A137600F0B5FC7F4802F06DF80A90BC
:105840000A9B002B01D100F0ACFC0A9B5B0409D53C
:105850000A9B9B0606D4774B04225A8356321A764B
:1058600000F09FFC0A9B1B0511D50A9B9B060ED4DA
:10587000704B5B78042293432132092B05D06D4B8A
:105880005A835A221A7600F08CFC213AF7E70A9BD9
:105890009B0606D4674B03225A8357321A7600F0D0
:1058A00080FC322002F004F9624B586454221A76CC
:1058B0000A9B624A13400A93614802F02DF80A9B42
:1058C00018430A900A9B002B0DD00A9B9B0719D402
:1058D0000A9B5B0645D50A9BDB0642D4554B5522F5
:1058E0001A7600F05EFC534B586C02F0E7F8002883
:1058F00001D100F056FC4F4B09225A8351321A76DF
:1059000000F04FFC8020C00102F006F8002806D00D
:10591000484B04225A8356321A7600F042FC002289
:105920000221242001F017FF002806D0414B042259
:105930005A8356321A7600F034FC202001F0ECFF36
:1059400004221100312001F006FF002804D0394B59
:1059500054221A7600F025FC364B53221A7600F0BA
:1059600020FC0A9B1B0104D5324B53221A7600F00F
:1059700018FC344801F0D0FF0A9B18430A902D4BC5
:1059800056221A760A9BDB0220D42A4B5B781A0037
:10599000093A042A04D90A9A920201D5052B1ED18C
:1059A0000A9A520224D40A9A120229D40A9A520755
:1059B0002ED40A3B022B33D80A9B1B0530D51D4B36
:1059C00025225A8335321A7600F0EBFB194B092257
:1059D0005A834E321A76FEF7E1FC00F0E2FB154BDB
:1059E00009225A834E321A76FEF7D8FC00F0D9FB12
:1059F000104B1B225A833C321A76FEF7CFFCD0E3C1
:105A00000C4B15225A8342321A76FEF7C7FCC8E3C4
:105A1000084B1D225A833A321A76FEF7BFFCC0E3C8
:105A20000A9BDB0610D4034B03225A8357321A76A3
:105A3000B7E3C046F814002020480000DFBFFFFF96
:105A4000520800080400F000FEF788FCB44B3F2227
:105A50009A5C0E231A424CD0B14B28225A83B04B89
:105A600057221A76FEF78CFC0100AD4B1B6B9B078F
:105A70000BD4AB4B5B8FC21892B2002A01D100F05D
:105A80009EFC022840D9023881B2A54B5A8F8A1851
:105A900092B25A871B8D0733DB089A4206D9A04A77
:105AA000918F591A89B2538B022B33D09C4CA38F00
:105AB000606AC01801F044FDE36A002B0AD0984CDC
:105AC000628FD2001A80FEF749FC3F23E35C0E226E
:105AD0001A4223D1924B5A78D31F012B2CD9904BC9
