:020000040800F2
:1000000000400020BD220008B51E0008B71E0008F1
:1000100000000000000000000000000000000000E0
:10002000000000000000000000000000B91E0008F1
:100030000000000000000000BB1E0008BD1E0008FC
:100040000D2300080D2300080D2300080D230008D0
:100050000D230008C51E00080D2300080D2300080D
:100060000D2300080D230008DD1E0008F51E000802
:100070000D2300080D2300080D2300080D230008A0
:100080000D2300080D2300080D2300080D23000890
:100090000D2300080D2300080D2300080D23000880
:1000A0000D230008051F00080D230008151F000878
:1000B000291F00080D2300080D230008391F000820
:1000C00010B5064C2378002B07D1054B002B02D02E
:1000D000044800E000BF0123237010BD900D0020F4
:1000E0000000000030500108044B10B5002B03D075
:1000F0000349044800E000BF10BDC04600000000F6
:10010000940D0020305001080023C25C0133002A06
:10011000FBD1581E7047000003B4714649084000E7
:100120004900095E49008E4403BC70470022430821
:100130008B4274D303098B425FD3030A8B4244D3AF
:10014000030B8B4228D3030C8B420DD3FF220902F1
:1001500012BA030C8B4202D31212090265D0030BB0
:100160008B4219D300E0090AC30B8B4201D3CB03A6
:10017000C01A5241830B8B4201D38B03C01A5241E8
:10018000430B8B4201D34B03C01A5241030B8B42EA
:1001900001D30B03C01A5241C30A8B4201D3CB02D5
:1001A000C01A5241830A8B4201D38B02C01A5241BA
:1001B000430A8B4201D34B02C01A5241030A8B42BD
:1001C00001D30B02C01A5241CDD2C3098B4201D3D5
:1001D000CB01C01A524183098B4201D38B01C01A53
:1001E000524143098B4201D34B01C01A52410309CA
:1001F0008B4201D30B01C01A5241C3088B4201D379
:10020000CB00C01A524183088B4201D38B00C01A25
:10021000524143088B4201D34B00C01A5241411A4C
:1002200000D20146524110467047FFE701B5002059
:1002300000F0F0F802BDC0460029F7D076E770471D
:1002400003460B437FD4002243088B4274D3030937
:100250008B425FD3030A8B4244D3030B8B4228D3D8
:10026000030C8B420DD3FF22090212BA030C8B42FE
:1002700002D31212090265D0030B8B4219D300E09E
:10028000090AC30B8B4201D3CB03C01A5241830B23
:100290008B4201D38B03C01A5241430B8B4201D3D3
:1002A0004B03C01A5241030B8B4201D30B03C01AFC
:1002B0005241C30A8B4201D3CB02C01A5241830A76
:1002C0008B4201D38B02C01A5241430A8B4201D3A5
:1002D0004B02C01A5241030A8B4201D30B02C01ACF
:1002E0005241CDD2C3098B4201D3CB01C01A524136
:1002F00083098B4201D38B01C01A524143098B42BF
:1003000001D34B01C01A524103098B4201D30B01A7
:10031000C01A5241C3088B4201D3CB00C01A5241CC
:1003200083088B4201D38B00C01A524143088B4291
:1003300001D34B00C01A5241411A00D2014652412A
:10034000104670475DE0CA0F00D04942031000D349
:100350004042534000229C4603098B422DD3030A9E
:100360008B4212D3FC22890112BA030A8B420CD3AE
:10037000890192118B4208D3890192118B4204D3D7
:1003800089013AD0921100E08909C3098B4201D357
:10039000CB01C01A524183098B4201D38B01C01A91
:1003A000524143098B4201D34B01C01A5241030908
:1003B0008B4201D30B01C01A5241C3088B4201D3B7
:1003C000CB00C01A524183088B4201D38B00C01A64
:1003D0005241D9D243088B4201D34B00C01A52413B
:1003E000411A00D20146634652415B10104601D3C8
:1003F0004042002B00D54942704763465B1000D352
:10040000404201B5002000F005F802BD0029F8D0F7
:1004100016E770477047C04610B590B06B46DC1CBD
:10042000002323700FF0A8FD02F058FC23000AAA55
:100430000121002010F0C4F9002802D12378002BFC
:1004400058D1012010F03AFD02F048FC10F06EFD8A
:1004500000280DD16B46033305AA012110F01CFEC4
:10046000002805D16B4603331B78002B00D0F2E047
:1004700010F0EEFE02F032FC6B46033301AA0121BC
:10048000012010F069FF002805D16B4603331B786B
:10049000002B00D00EE1A14C00220421200005F029
:1004A00083FF00220221200005F07EFF00220121AF
:1004B000200005F079FF80210022C900200005F00E
:1004C00073FF802100220901200005F06DFF8021CB
:1004D00000224901200005F067FF914800230370C6
:1004E000437002308022002114F038F902F058FCE9
:1004F00010B010BD01220421884805F055FF0AAC58
:1005000021792D20684414F045F80100854B18002E
:1005100014F026F82379042B16D1834804222D21C8
:10052000694414F0FBF8002807D17D4B9B78032B1E
:100530000CD17B4B01225A70DAE77B4804222D2133
:10054000694414F03FF901E0072B27D0744B0122D6
:100550005A700AAB5B7D002B27D10AAB1B78002BAE
:1005600064D10AAB9A7812025B7813431BB2042B56
:100570003ED0442B29D0022BBAD16C4813F0F0FFA7
:10058000674B1B78012B4BD1654B01221A70684BCE
:100590001B78012BACD101F0A3F9A9E7654807222C
:1005A0002D21694414F00EF9D0E729216944522025
:1005B0000FF000FD0028D0D10AAB19792B226A4434
:1005C0002D30684410F006F8C7E70AAB1B79072BFB
:1005D00000D08DE7524B1B78022B03D1504B0222E7
:1005E0001A7085E753488022002114F0B7F8F5E728
:1005F000514813F0B5FF4A4B1B78012B0AD1484BE9
:1006000001221A704A4B1B78012B00D070E701F0D1
:1006100067F96DE747488022002114F09FF8EEE764
:1006200044488022002114F099F8ADE7012B0AD04C
:10063000202B0CD020229343402B00D058E7384B7E
:100640001B3A1A7054E7364B05221A7050E7344BA8
:1006500005221A704CE708211630684413F09AFFFF
:100660000100364B180013F07BFF012201212B48BB
:1006700005F09AFE2A4B1B78032B15D1284C032337
:100680002370023B6370A01C08221621694414F0F9
:1006900099F820000A3008221E21694414F092F8CB
:1006A00005AB5B8A638223E725486E22002114F0A4
:1006B00055F8E3E701AA0D236B4409246C449178B3
:1006C00018789070013B59700132A342F7D108218C
:1006D0006B46981D13F05EFF01001A4B180013F0D3
:1006E0003FFF80210122C9000C4805F05DFE0C4B44
:1006F0001B78042B0BD10A4804230370033B43707F
:10070000023008226B46991D14F05CF8F0E60E48A2
:100710007822002114F022F8EDE7C04600040048DA
:10072000AC0D002078500108AF0D0020C05001082A
:10073000EC0F0020AE0D0020A0500108E050010891
:10074000C00D002004510108B60D002010B582B084
:10075000DBB2044C0194049C009400F055FB80B281
:1007600002B010BD9271859430B587B030246D46CB
:100770002C758000091869750021029132310191B0
:10078000203969440091022105A800F057FB80B28E
:1007900007B030BD10B5132806D84400241803480C
:1007A000015500194270837010BDC04690090020A9
:1007B000F0B5DE4657464E464546E0B583B0324B6F
:1007C0009B4632480500203D0400403C3C235B44EE
:1007D00098462F4B9C460121132201935B460093C0
:1007E000E34608E04C46009B0333009360306035DD
:1007F000603443453AD0009B99465B786646F65C88
:100800000027824633003B410B40584243415B4244
:1008100093432833B80023500137082FF2D14B46B9
:100820001B785E46F75C00263B0033410B40584284
:1008300043415B4293432833B0002B500136082ECE
:10084000F2D150464B469B78019EF65C0027A146AC
:1008500033003B410B405C4263415B42934328338E
:10086000BC0003510137082FF2D1BBE79823094A96
:1008700009489B00002108F051FB03B0F0BCBB46C7
:10088000B246A946A046F0BD9009002050010020C4
:10089000DC55010810000020C8120020F0B5C64643
:1008A00000B506000024094DAB5C98466F5CA95D5D
:1008B00043463A002000FFF76DFF0134E4B2142CE8
:1008C000F5D1FFF775FF80BCB846F0BDDC550108D7
:1008D00010B505F0A9FA10BD10B5104B03608223C6
:1008E0005B00436000238360E022D200C2600361AA
:1008F00001224261802292008261D93AFF3AC261AC
:10090000036243628362213AC2620363436307F076
:10091000EDFB431E9841C0B210BDC04600300140FF
:10092000F0B589B02C4B2D4A1A602D4A1368591C1A
:1009300011600020002B01D009B0F0BD264807F05F
:10094000F6FF03000020002BF6D1264B9A69802188
:1009500049010A439A619A690A400192019A5A69C7
:10096000802189020A435A615B690B400293029B12
:100970002023039302270497002405940326069658
:1009800007949025ED0503A9280005F0FBFB402303
:100990000393049705940696079403A9280005F08D
:1009A000F1FB80230393049705940696079403A90B
:1009B000280005F0E7FB00220021192005F04CFA81
:1009C000192005F07BFA0448FFF786FF431E984183
:1009D000404207239843AFE7340E00200030014027
:1009E000300E00200010024000B583B00D4A51695E
:1009F000012319435161526913400193019B002265
:100A000000210A2005F028FA0A2005F057FA0022F2
:100A100000210B2005F020FA0B2005F04FFA03B05F
:100A200000BDC04600100240F0B5C64600B588B013
:100A30001422002103A813F091FE264B5A6980214D
:100A400089020A435A615A690A400192019A5A6915
:100A50008021C9020A435A615B690B400293029BE1
:100A60009025ED0500221021280005F09DFC1A4B71
:100A700098461A4E00221900300005F095FC02231A
:100A8000039388235B0304930024059403A928009F
:100A900005F078FB1023039301270497059406942F
:100AA00003A9280005F06EFB4346039304970594C1
:100AB000069403A9300005F065FB00220021052003
:100AC00005F0CAF9052005F0F9F908B080BCB84670
:100AD000F0BDC04600100240071C000000040048A2
:100AE00000B599B0302200210CA813F037FE102277
:100AF000002107A813F032FE1C220021684613F0E3
:100B00002DFE20230B931F3B13930BA806F0F6FC3E
:100B1000002819D107230793043B08930023099366
:100B20000A93012107A806F0EBFF00280ED1094B1C
:100B300000930023029303930693684607F094F80A
:100B4000002805D119B000BD72B6FEE772B6FEE707
:100B500072B6FEE70300020010B505F049F9FFF791
:100B6000BFFFFFF761FFFFF73FFF01F073FA01F0EE
:100B7000CFFA01F069FB12F06BFE10F0B7FF12F034
:100B8000C3FDFFF749FCFCE772B6FEE7F8B5CE46B9
:100B9000474680B50F1E19D0040000250E4B98461D
:100BA00080235B00994607E023884A46134333803D
:100BB00001350234AF4209D02600208800F069FCDC
:100BC0000128F1D0238842461340F0E70020C0BC42
:100BD000B946B046F8BDC046FFFEFFFF0020704793
:100BE000F8B500281ED028210025002420270DE07C
:100BF0007B1A1600DE4033008A402A432343150047
:100C00001C00013008390E00083607D002780B00AE
:100C1000203BEDD416009E403300EDE70249086802
:100C200000F042FAF8BDC046CC09002010B5034BD5
:100C30001868002100F085FA10BDC046CC090020DC
:100C400010B5FFF7F3FF002010BD000070B588B0AD
:100C50001500042B64D1002A66D00C9B002B65D0B4
:100C600007AC207061700222210031480AF02CF894
:100C70000300A070020A92B2E2702E48217801802F
:100C800061784180FF210B408380C280FB39FFF7F0
:100C90007DFFC4B2002C44D1274B186800F0F0FA55
:100CA000012831D02348002302930A3301931A26E6
:100CB0006E440096053B05AA042100F0F7FB33883B
:100CC000042B29D1C4B21C4E3068012100F039FA3E
:100CD0000C98FFF785FF05AB9A7812025978090442
:100CE0000A43D9780A431B781B061A43A9780902DC
:100CF0006B781B041943EB7819432B781B061943B7
:100D0000306800F0C1FA0CE00A490B4B1868002368
:100D1000042200F02FFAC5E7FFF788FF162001E054
:100D2000072460B208B070BD0724FAE70724F8E78B
:100D300063630000240F0020CC090020F0B58DB0C3
:100D40000400FF252F000740380000F0A2FB08AE8A
:100D500000020743F780270A2F40380000F099FB74
:100D600000020743B780230C1D40280000F091FBD0
:100D7000000205437580240E200000F08AFB00026B
:100D8000204330801E4B18680AAA310000F086FA12
:100D9000002302931433019302336B440093052321
:100DA00006AA0821300000F081FB041E1CD1162386
:100DB0006B441B88042B1AD1124906AB1A780A809F
:100DC0005A784A809A788A80DA78CA801B790B81AF
:100DD0000B4B186800F00EFB40B201280BD1084BFA
:100DE0001868012100F04EFA20000DB0F0BDFFF7A9
:100DF0001DFF1634F8E7FFF719FF1624F4E7C04685
:100E0000CC090020240F002000B583B0002A0ED0AA
:100E1000042B0ED1049B002B0ED000930423FFF76C
:100E200015FF002806D10598FFF788FF02E007208C
:100E300000E0072003B000BD0720FBE7F0B5DE4669
:100E400057464E46C0B586B00E00170005930EAB50
:100E500004CB91461B889A4610AB1B789B460A1E12
:100E600007D03B4D0024035D2B80013402359442B2
:100E7000F9D332000100374809F026FF0300344857
:100E80007200FF2119401152721C52001B0A1352AA
:100E9000B11CFFF77BFE041E06D0200006B0E0BCAC
:100EA000BB46B246A946F0BD2B4B186800F0E8F9E6
:100EB000002840D10236B1B225485B460293534622
:100EC00001934B460093059B3A0000F0EFFA041E95
:100ED000E3D19620400004F0ADFF4B461B88002B69
:100EE00009D01B4A0023F95C1180013302324946C4
:100EF00009889942F7D8184B186800F0C1F9002802
:100F00000AD04B461A880023012A1DD9DBB21049AA
:100F10001148006800F02EF94B461B88002BBCD00E
:100F20000B4A00231188F9540133023249460988DB
:100F30009942F7D8B1E7B21C92B20549064B18683E
:100F4000002300F017F9B5E700220423DEE7C046CE
:100F5000240F002063630000CC090020F8B50400D2
:100F600045682B090F2003401B4E1E4108233340C8
:100F70002E0A0640194F374104263E4033430600EF
:100F80002E40174F374110263E4033432E0B06406C
:100F9000144F374102263E4033432E0C3040124F4F
:100FA0000741012637403B43104FDF403E40A368D6
:100FB0000F4803400F4805406B404B403240100043
:100FC000584000F059FAA3685B0003436268A260CE
:100FD0006360F0B2F8BDC046C0C90600B0C80300E7
:100FE000C0220F0058E4010038D900000AE857EC8D
:100FF000040887005CCE2900F8B5CE46474680B588
:1010000007000E0091460025002401239846310078
:101010002141434619404A463800FFF79FFFA04050
:101020000543EDB20134082CF1D12800C0BCB9460B
:10103000B046F8BDF8B5CE46474680B580460F00AD
:101040001600182400250A4B99463900E140C9B220
:1010500032004046FFF7D0FFA0400543083CA4B251
:101060004C45F2D12800C0BCB946B046F8BDC046D8
:10107000F8FF000070B50C00008800F0D9F9002CD2
:101080000FD0002201264100C30B450B6B40050B1E
:101090006B40800A434033401943080001329442B8
:1010A000F1D100F0C5F970BDF0B5DE4657464E46A9
:1010B0004546E0B580469446002202800025002681
:1010C0002F24073292461932934601271CE05A46D4
:1010D000501A814618004A46904081466046C840F2
:1010E00001004A46114317E05A46521A1800904030
:1010F00081466046C84001004A46114339406D00B0
:101100000D43023C611C13D0611E52465140080041
:101110002038DCD41900C140394076000E4321004C
:101120005246514008002038DED41900C140E5E79E
:1011300043465E609D60F0BCBB46B246A946A046F1
:10114000F0BD0023038043608360012900D08370D9
:10115000704710B5028051400022FFF76BFF10BDB1
:1011600070B50500140051400122FFF763FF4440B1
:101170002C8070BDF0B5DE4657464E464546E0B57C
:1011800085B006000391934602939046002A4ED004
:101190000D0000270F24344B9A46082399460197E7
:1011A000002200213000FFF727FF2B88584080B233
:1011B000288073681A092240514611410A004946A5
:1011C0000A40190A21408C462849674639418C4615
:1011D0000421674639400A43210019408C462449BE
:1011E000674639418C461021674639400A43190B3E
:1011F00021408C461F49674639418C46022167468B
:1012000039400A431B0C23401B49194101230B4061
:101210001A431A4BD3401B028022520013405840FD
:101220002880019B0133019302354345B8DB029DC1
:10123000002D12D05B465F00039B9C466744002450
:10124000002200213000FFF789FE0300A340388808
:10125000584038800134AC42F2DB05B0F0BCBB46EC
:10126000B246A946A046F0BDC0C90600B0C80300FA
:10127000C0220F0058E4010038D900000AE857ECFA
:10128000807870478170704710B58378002B02D04A
:10129000FFF766FF10BDFFF75CFFFBE7F0B5DE462A
:1012A00057464E464546E0B583B001900C00914646
:1012B0008A790B881B061A438B881B061B0C1A4362
:1012C0004B881B04FF2109040B401A439046182643
:1012D0000F25424B9B4608239A464146F140C9B22E
:1012E0000022019F3800FFF787FE2388584080B214
:1012F00020807B681A092A40594611410A0051464C
:101300000A40190A29408C463549674639418C46BE
:101310000421674639400A43290019408C46314967
:10132000674639418C461021674639400A43190BFC
:1013300029408C462C49674639418C460221674634
:1013400039400A431B0C2B402849194101230B400B
:101350001A43274BD3401B028022520013405840AF
:101360002080083E023433000833B6D14021019F6B
:101370003800FFF77FFE0400FF252E0006403000F6
:1013800000F087F8000206434B46DE80260A2E4016
:10139000300000F07EF8000206434B469E80230C8E
:1013A0001D40280000F075F8000205434B465D80A3
:1013B000240E200000F06DF8000220434B461880F8
:1013C0000023042249463800FFF7D4FE012003B071
:1013D000F0BCBB46B246A946A046F0BDC0C9060057
:1013E000B0C80300C0220F0058E4010038D9000043
:1013F0000AE857EC70B506008D790B881B061D4373
:101400008B881B061B0C1D434B881B04FF221204F8
:1014100013401D436021FFF72DFE04000022002130
:101420003000FFF707FE6040401B4342584170BD4B
:10143000030040080A4A10405B000A4A1340184360
:101440008308094A13408000084A104003431809E2
:10145000074A10401B01074A134018437047C04613
:1014600055555555AAAAAAAA33333333CCCCCCCC84
:101470000F0F0F0FF0F0F0F0030C4340180A584024
:10148000030943409808584043084340012018404E
:101490007047030C4340180A58400309434098081A
:1014A000584043084340012098437047F0B5DE465A
:1014B00057464E464546E0B58FB080460C00029137
:1014C0000592039318AB04CB91461B8804935548AF
:1014D0004822002113F042F9201E35DD002301339C
:1014E0008342FCDB00250024002708239B464D4E49
:1014F000073B9A46019005E015001C000137019B4F
:101500009F4217DA7B004246D25A5B46591B53462C
:101510008B40013B1340AB40305D03433355631CAC
:101520000A41F15C0A43F2546A1C072AE4DD073DD4
:101530000234E3E7029BDA009C4662440732D21091
:10154000002301339342FCDB364A07920299CB0019
:101550008C46634406A90B81099290239B000B8261
:101560004B460B9333230C932F4B049A53430D9309
:1015700007A801F02BFC040002F004F801F042FD82
:101580000228F9D0283883B207229A429B411C4096
:1015900063B298464B4618880921FEF7C7FD80B212
:1015A000039A904206D9D300944663444A46138076
:1015B000012398464B46188808280DD90921FEF7C3
:1015C000B5FD84B2002100220025164F0820A24656
:1015D000A346059B9C460CE0124B1B78059A1370A2
:1015E000012415E022001D0063465E5401318B4545
:1015F0000DDD6B1CFE5C841AA6407C5D1441264305
:10160000F6B2541C072CEDDD073A0235ECE75446E0
:101610004B461C8040460FB0F0BCBB46B246A946C4
:10162000A046F0BDA40F0020F834000010B500F073
:10163000A5F8002800D110BD00F094FB0120FAE7C6
:1016400010B5204B1A68D369DB0600D410BD1023F7
:1016500013621C4807F074FE1B4B5B78002B15D1FE
:10166000194B02225A70184B1B78002B16D0012BF5
:1016700021D1164B1B685B6880214942C91AC9B247
:10168000134800F07BF800F06DFB14E0022BEAD069
:101690000F490C48802208F00DFCD7E70B4B1B6864
:1016A0005B6880214942C91AC9B2094C2000FFF782
:1016B000BDFF023C207006490248802208F0FAFB78
:1016C000C4E7C04698130020EC0F002054130020FC
:1016D000EE0F002010B50D4B5B78002B0DD10B4B9E
:1016E00001225A70094B1B78002B09D0012B06D11F
:1016F00000F044F800F036FB01E0012BF2D010BD01
:10170000FFF794FF014B1870F9E7C046EC0F00207B
:1017100010B50A00024B0100180007F0B7FD10BD1C
:101720009813002010B50A00402904D001000020C1
:1017300010F09EFA10BD0132F8E7000010B50D4B15
:101740005B78022B09D0032B0BD00022012B02D196
:10175000FFF7E8FF0122100010BDFFF7D9FF0122BB
:10176000F9E7054B09220100180011F005F90122E3
:10177000F1E7C046EC0F00209C280020F0B5CE46D3
:10178000474680B5002950D0020000231478E02C91
:1017900009D00133DBB201329942F7D10020C0BC3D
:1017A000B946B046F0BD5A1CD2B2875C224A1770C7
:1017B0009A1CD2B291423AD00333DBB20124002208
:1017C00091461D4DA846AC460DE046463255D71908
:1017D000FFB20134E4B201E0012291465A1CD2B2B8
:1017E000994226D013005A1ED2B22E78A64210D0AB
:1017F000825CD02AF0D04E46002EE6D00132D2B222
:1018000066463255D719FFB20134E4B20022914640
:10181000E4E7825C084B1A55D8786428BFD01A7860
:101820009B5CBB42BBD00520B9E70800B7E70020AE
:10183000B5E70020B3E7C04600120020F0B5D64659
:101840004F464646C0B5244BDB78002B04D1E0BCA4
:10185000BA46B146A846F0BD204C802200212000A7
:1018600012F07CFFE02323701B4B1D780021002326
:101870000024194A944610229246184A91461600AE
:10188000D02290460BE04A1CD2B24746B7540231F0
:10189000C9B2013870540133DBB2AB4212D8200018
:1018A0009D4203D06246D05C0419E4B2020030329B
:1018B0005746BA43D2B2002AE5D00131C9B24A46EE
:1018C0005054E8E7044B0022DA700131C9B20348F2
:1018D000FFF734FFBBE7C046801100200011002055
:1018E00010B588B0FFF7ACF9364A00239370033285
:1018F000354B0093042300216020FEF727FF0028CA
:1019000045D1304C304920003330062212F05AFFC6
:10191000A37801221343A3702C4A2B4B009304237A
:1019200000216120FEF712FF002846D1254C2649F0
:1019300020003D30062212F045FFA3780222134317
:10194000A370032B1ED1122303AA01210020FEF74E
:101950000BFF1F4C102203A9200012F033FF1223AB
:1019600003AA02210020FEF7FFFE20001030102203
:1019700003A912F027FF134B9B78002B02D1114BC8
:1019800080229A700120FFF729F908B010BD0F4A94
:10199000104B0093042300216020FEF7D7FE00289F
:1019A000BAD1084C0B4920003330062212F00AFF4E
:1019B000A37801221343A370AEE7024B9B78032B5D
:1019C000D9D1C0E7AC0D002008000020AF0D0020E9
:1019D000BF0D002000000020064B821D1A70064A31
:1019E0005178597091789970D278DA7000221A7112
:1019F00058717047801100200012002010B500209F
:101A0000FFF7EAFF014B00229A7010BD8011002001
:101A100030B587B0114B9B78DB0711D56C46104B66
:101A2000220023CB23C223CB23C21720FFF7D4FFEE
:101A30000C48831F5A79210012F0C4FE07B030BD54
:101A400094236A4613800120FFF7C6FF0548831FD1
:101A50005A79694612F0B6FEF0E7C046980E0020AB
:101A60002C5101088611002030B587B0134B9B78AC
:101A7000DB0711D56C46124B220023CB23C223CBAC
:101A800023C21720FFF7A8FF0E48831F5A792100B1
:101A900012F098FE07B030BD6C460B4B220003CB12
:101AA00003C21B8813800920FFF796FF0548831F98
:101AB0005A79210012F086FEECE7C046980E00200D
:101AC00044510108861100205C51010830B585B0F1
:101AD000134B9B78DB0711D56C46124B220003CBCE
:101AE00003C21B8813800920FFF776FF0E48831F6F
:101AF0005A79210012F066FE05B030BD6C460B4BE2
:101B0000220023CB23C21B7813700C20FFF764FF45
:101B10000548831F5A79210012F054FEECE7C046B5
:101B2000980E0020485001088611002068510108D5
:101B300010B50020FFF750FF10BD10B50020FFF7D3
:101B40004BFF10BD70B51F4B5B78002B05D01D4BB4
:101B50001B78012B08D0032B1BD00120FFF73CFF83
:101B6000194B00229A7170BD164B9B78002BF4D054
:101B7000154C200009301549042212F023FE0720DD
:101B8000FFF72AFF04232372033BA3710F33E37192
:101B9000E9E70D4C0B4D20000930A91C082212F07A
:101BA00011FE2000113029000A31082212F00AFE2D
:101BB0001320FFF711FF0123A3711F33E371103BC3
:101BC0002372D0E7AC0D002080110020AF0D002063
:101BD00010B50020FFF700FF0B4B1B78012B0ED137
:101BE000094B9B78DB070AD508490948062212F001
:101BF00095FD002806D0074B01221A7102E0054B23
:101C000001221A7110BDC046AC0D0020DF0D00206E
:101C1000F81000208011002010B50020FFF7DCFE36
:101C20000B4B1B78012B0ED1094B9B789B070AD5D8
:101C300008490948062212F071FD002806D0074B1A
:101C400001221A7102E0054B01221A7110BDC04633
:101C5000AC0D0020E90D0020F010002080110020C4
:101C600010B51020FFF7B8FE084B1B78012B03D0EE
:101C7000074B01221A7110BD064B597A0901064B18
:101C8000C9180648102212F09DFDF4E7AC0D0020A3
:101C90008011002000120020AF0D002086110020CE
:101CA00010B52C4B5B78022B03D02A4B1B78032BEF
:101CB00012D1294B9B7B294A591CD171082B3AD050
:101CC00011D90C2B2BD0A42B3DD10B20FFF784FE78
:101CD000224B00221A741EE00020FFF77DFE1F4BEE
:101CE00001221A711AE0002B0ED0062B2BD11B4BB0
:101CF00000221A745A74184A907E987400010D30AC
:101D0000C0B2FFF769FE06E01420FFF765FE134B33
:101D1000134A12881A83114B5A799A7110BD0D20FB
:101D2000FFF75AFE0D48012303740D4911300222BA
:101D300012F048FDEFE70C20FFF74EFE074B0022A4
:101D40001A745A74E7E70020FFF746FE034B03229C
:101D50001A71E0E7AC0D0020001200208011002075
:101D6000D009002010B5822805D800D975E0800080
:101D70003D4B1B589F46F02859D0F52800D06CE009
:101D80000020FFF729FE11E0FFF738FE0EE00020EB
:101D9000FFF722FE354B00221A7107E00020FFF703
:101DA0001BFE324B08221A71FFF732FEFFF746FD89
:101DB00010BDFFF759FEF9E70020FFF70DFE2B4B92
:101DC00020221A71F2E72A4B00225A70FFF7B0FE68
:101DD000ECE7FFF7B2FEE9E7FFF7B4FEE6E72548D8
:101DE0002549062212F0EEFC0020FFF7F5FDDDE7A5
:101DF00022482149062212F0E5FC0020FFF7ECFD05
:101E0000D4E7FFF7E5FED1E7FFF706FFCEE7FFF7E0
:101E100027FFCBE7FFF744FFC8E7194BDA79997939
:101E20005879FEF73BFD0020FFF7D6FDBEE7FFF730
:101E30004DFEBBE70020FFF7CFFDB7E70020FFF71F
:101E4000CBFDB3E70020FFF7C7FDAFE70020FFF7AA
:101E5000C3FD064B05221A71A8E70020FFF7BCFD61
:101E6000024B00221A71A1E7DC5601088011002004
:101E7000AC0D0020F810002005120020F01000200A
:101E80000012002082B00A4B996901221143996126
:101E900099690A400092009ADA69802149050A434B
:101EA000DA61DB690B400193019B02B07047C046C9
:101EB00000100240FEE7FEE77047704710B503F0E0
:101EC000A7FF10BD10B5034804F048F9024804F01C
:101ED00045F910BDDC0900207435002010B5034819
:101EE00004F0D6F8024804F0D3F810BD84120020A4
:101EF0005413002010B5024804F0CAF810BDC046C3
:101F00001013002010B5024806F076FC10BDC04644
:101F1000340E002010B5034807F0E0FAFFF790FBFD
:101F200010BDC0469813002010B5024807F0D6FA3D
:101F300010BDC046541B002010B5024804F0BEFA84
:101F400010BDC0462014002010B503000C4A0D49F6
:101F5000521A0D490968002907D00B490868C318AF
:101F6000934206D8084A136010BD07490748086025
:101F7000F3E712F0FBFB0C23036001204042F3E780
:101F8000004000200004000080120020C83600201D
:101F90007047000010B582B00400164B02689A42E8
:101FA00001D002B010BD144B9A69802109010A4387
:101FB0009A619B690B400193019B1048104B036091
:101FC00010234360002383608022C2608132FF328D
:101FD00002618022D20042618361C36103F096FFF7
:101FE000002803D1054B63625C62DAE7FEF7CCFDA3
:101FF000F8E7C046002C0140001002408412002087
:102000001C00024010B586B004001422002101A873
:1020100012F0A4FB0D4B22689A4201D006B010BD0D
:102020000B4B5A69802189020A435A615B690B4054
:102030000093009B80235B000193FE3B029305937A
:10204000902001A9C00504F09DF8E7E7002C0140AD
:102050000010024000B593B00822002110A812F031
:102060007DFB1C22002109A812F078FB2022002110
:1020700001A812F073FB2448244B03600023436043
:1020800083603B22C26003614361836106F058FEB6
:1020900000282DD10023109311931B4810A907F09D
:1020A00059F8002827D16023099300230A930B9342
:1020B0000C930D930E930F931348002209A906F079
:1020C000ABFE00281AD100230193029303930493DB
:1020D000059380229201069208930B4801A907F00C
:1020E0006FF800280DD10848FFF78CFF13B000BD32
:1020F000FEF74AFDCEE7FEF747FDD4E7FEF744FDC5
:10210000E1E7FEF741FDEEE7C8120020002C014098
:1021100010B50C480C4B0360E1235B0243600023C5
:102120008360C36003610C2242618361C361036207
:10213000436207F031FE002800D110BDFEF724FDF8
:10214000FBE7C046981300200038014010B588B066
:1021500004001422002103A812F000FB334B226874
:102160009A4201D008B010BD314B9A698021C90153
:102170000A439A619A690A400192019A5A69802138
:1021800089020A435A615B690B400293029BC02398
:10219000DB0003930223049301330693023B07936E
:1021A000902003A9C00503F0EDFF2248224B0360F5
:1021B0000023436083608022C260036143618361C6
:1021C00080239B01C36103F0A1FE002827D1194B96
:1021D00063675C6219481A4B036010234360002355
:1021E00083608022C26003614361836180239B011D
:1021F000C36103F08BFE002814D1124A11688023BA
:102200009B000B4313600D4B23675C62002200218F
:102210001B2003F021FE1B2003F050FEA2E7FEF777
:10222000B3FCD4E7FEF7B0FCE7E7C0460038014056
:102230000010024054130020300002401013002010
:10224000440002400000014010B50A480A4B0360F8
:1022500008230371063B4371C371002343728372E9
:10226000C37204F0AFF8002800D110BDFEF78CFC5B
:10227000FBE7C04620140020005C004000B583B09E
:102280000C4B02689A4201D003B000BD0A4BDA69D8
:10229000802109040A43DA61DB690B400193019B49
:1022A000002200211F2003F0D7FD1F2003F006FEAF
:1022B000EAE7C046005C0040001002400D48854639
:1022C000FFF766FE0C480D490D4A002302E0D45882
:1022D000C4500433C4188C42F9D30A4A0A4C002370
:1022E00001E013600432A242FBD312F045FAFEF77C
:1022F00033FCFEE70040002000000020900D00208D
:10230000D0600108900D0020C4360020FEE770B5B3
:1023100004000D00110085420DD9281AFDF790FF29
:10232000201880B2844200D070BDFF239843013052
:10233000FF3080B2F8E7401BFDF782FF201A80B221
:10234000A542F1D08442EFD1FF239843ECE700008F
:1023500010B5E021052003F05BFA08210C2003F002
:102360006CFA054B0022DA645A649A645B6D002BA8
:1023700000D0984710BDC046FC16002010B54E4B4B
:102380005B780A3B022B5DD9C22003F0FCF9D52013
:1023900003F0F9F9484B186900280CD05B78092B39
:1023A0005AD00D2B07D0454B98424FD8C00880B269
:1023B000202103F008F8404B1B6D002B00D09847FC
:1023C0003D4B1B6B5A07D20F5201D90601D5402154
:1023D0000A439B0601D580231A43E021052003F020
:1023E0005AFA354B1B6B1B063CD580210A2003F0A3
:1023F00024FA314B1B6B1B0739D508210C2003F045
:1024000007FA2D4BDB79012B36D00221122003F085
:10241000FFF92B4C284B5B781A000A3A022A31D874
:10242000284B1C43244B586B431E033336D92000E2
:1024300003F030FB200003F05BFB1F4B3F22FF212A
:10244000995410BDDB2003F09EF9A3E71E4B9C4678
:102450006044C00880B2ABE7C10AC9B2552003F09E
:1024600005F9A8E780210A2003F0D2F9C1E7082185
:102470000C2003F0E2F9C4E70221122003F0DDF999
:10248000124CC7E704229343092BCBD1104B1C43BA
:10249000002203210A2003F0FEF9C3E70D49FDF7EE
:1024A00045FEFA239B009C46604480B203F0BEFBCD
:1024B000014BD864BBE7C046FC1600203B0400007B
:1024C0007840F00000080008C4FBFFFF7A40F000ED
:1024D000001E0080F834000010B5064B3F229B5CC4
:1024E000FF2B00D010BD04493D3A1E2003F076F8C2
:1024F000F8E7C046FC1600203A17002010B5FFF799
:10250000EBFF044B3F22985C80090002013A9B5C80
:10251000184310BDFC16002010B5FFF7EFFF0400B4
:10252000154B5B78012B00D010BD134B5B8B1B2B25
:1025300001D0152BF8D1FFF7CFFF0F4B3F229B5C4B
:10254000313A1A42F0D0012CEED10B4C606A0121D5
:1025500003F0B4F8E36A002B08D0FFF7BDFF064B89
:10256000DA6A3F215B5C1B075B0F1380024B28225A
:102570005A8332321A76D7E7FC16002000B583B0B2
:102580000B4B1B78002B10D0002280212C2003F055
:10259000A0F903000020002B01D103B000BD6B4661
:1025A000981D02F0C9FD0020F7E72120F5E7C0469D
:1025B000FC16002070B502F035FF041E01D020008B
:1025C00070BD03F0A9FA4021012003F005F90020B5
:1025D00008F0F2FA03220321022003F05CF9144B05
:1025E000FF203F2298543E3A1A70002200215A7070
:1025F0001A719A715A71DA715A761A76DA601A611A
:102600009A601A751A64DA645A649A641A655A658B
:102610009A658825ED005A5300255C329D5410328E
:1026200098541132995403329954FFF7A7FFC6E723
:10263000FC16002000B585B0CE4B1B78002B00D1D6
:1026400094E1FF2812D0CB4B9870FF2911D0C94BD1
:10265000D9705B78073B012B0DD8C64B5A780D2AF1
:1026600000D9A7E19300C44AD3589F46C14B98783C
:10267000E9E7D978EBE702F0D0FD0028EDD076E16C
:10268000212074E1082008F097FABA4B9878EA28DC
:1026900015D90001FF2303400220FF30184308F042
:1026A0008BFAB44BD878EA2811D90001FF230340F4
:1026B00081204000184308F07FFA002057E10130E4
:1026C0000001FF2303400220FF301843E7E70130F9
:1026D0000001FF230340812040001843EBE708205E
:1026E00008F06AFAA34B9878EA2813D90001FF236F
:1026F0000340A248184308F05FFA9E4BD878EA28B6
:102700000FD90001FF2303409D48184308F054FAF5
:1027100000202CE101300001FF23034097481843BB
:10272000E9E701300001FF23034095481843EDE736
:10273000082008F041FA8F4B9878EA2813D9000155
:10274000FF2303408F48184308F036FA894BD878A6
:10275000EA280FD90001FF2303408B48184308F0F3
:102760002BFA002003E101300001FF2303408548DC
:102770001843E9E701300001FF2303408248184372
:10278000EDE77C4BDB781A001532D2B2012A00D972
:1027900012E1784A927811001431C9B2012900D9A6
:1027A0000CE102A8ED3A51424A410270EB3B5A4219
:1027B00053414360694608F0E7FA009B5A7801A844
:1027C00042709A788270DA78C2701B78037002F0D7
:1027D00079FE082008F0F0F9664B9878EA2813D9BA
:1027E0000001FF2303406948184308F0E5F9614BF5
:1027F000D878EA280FD90001FF2303406448184322
:1028000008F0DAF90020B2E001300001FF230340B4
:102810005E481843E9E701300001FF2303405C48AC
:102820001843EDE7082008F0C7F9524B9878EA28DA
:1028300013D90001FF2303405648184308F0BCF9A0
:102840004C4BD878EA280FD90001FF2303405248A7
:10285000184308F0B1F9002089E001300001FF239E
:1028600003404C481843E9E701300001FF230340CF
:1028700049481843EDE7092008F09EF93D4B987848
:10288000EA2813D90001FF231840444B184308F0ED
:1028900093F9384BD878EA280FD90001FF23184064
:1028A0003F4B184308F088F9002060E00130030135
:1028B000FF201840394B1843E9E701300301FF209E
:1028C0001840374B1843EDE7092008F075F9294BFC
:1028D0009878EA2813D90001FF231840314B184398
:1028E00008F06AF9234BD878EA280FD90001FF23B2
:1028F00018402D4B184308F05FF9002037E00130F5
:102900000301FF201840274B1843E9E7013003017A
:10291000FF201840244B1843EDE7092008F04CF93C
:10292000144B9878EA2813D90001FF2318401F4B55
:10293000184308F041F90F4BD878EA280FD9000165
:10294000FF2318401A4B184308F036F900200EE018
:1029500001300301FF201840144B1843E9E7013010
:102960000301FF201840124B1843EDE7212005B06A
:1029700000BDC046FC1600200059010801020000FD
:102980000202000001040000020400000110000027
:102990000210000001080000020800000188000089
:1029A0000288000001810000028100000184000013
:1029B000028400000F20DAE70720D8E70720D6E7D7
:1029C00070B504000D001600814B1B78002B00D160
:1029D000F5E0FF2900D1F4E0FF2A00D1F3E00D2853
:1029E00000D9F2E083007B4AD3589F4618201DE0AF
:1029F0000421022002F00CFF0821032002F036FE21
:102A00000220FF3008F0D8F88120400008F0D4F808
:102A10006F4A1378191CDBB2022B00D2022111700D
:102A20006B4B5C7031002800FFF704FE70BD042181
:102A3000022002F0EDFE2021032002F017FE02200A
:102A4000FF3008F0B9F88120400008F0B5F8DFE762
:102A50000421022002F0DCFE1021032002F006FE19
:102A60000022FC21062002F016FF0022F0210720A0
:102A700002F011FF584808F09FF8584808F09CF8F9
:102A8000C6E70421022002F0C3FE1021032002F059
:102A9000EDFD0022FC21062002F0FDFE2022F021A7
:102AA000072002F0F8FE4C4808F086F84B4808F082
:102AB00083F8ADE70421022002F0AAFE10210320D2
:102AC00002F0D4FD0022FC21062002F0E4FE3022B8
:102AD000F021072002F0DFFE3F4808F06DF83F4884
:102AE00008F06AF894E70421022002F091FE182110
:102AF000032002F0BBFD3A4808F05EF8394808F0C0
:102B00005BF885E70421022002F082FE364808F0D7
:102B100053F8364808F050F87AE70221032002F013
:102B2000A5FD00220421122002F0B5FE6021A9209B
:102B300002F049FC8021152002F098FD2C4808F095
:102B40003BF82C4808F038F862E7BA21032002F07D
:102B50008DFD0021552002F089FD00220421122064
:102B600002F099FE6021A92002F02DFC80211520A1
:102B700002F07CFD204808F01FF8204808F01CF8FF
:102B800046E70421022002F043FE8821032002F0E0
:102B90006DFD1B4808F010F81A4808F00DF837E7EB
:102BA0000421022002F034FEA021032002F05EFD89
:102BB000154808F001F8154807F0FEFF28E7212026
:102BC00034E7072032E7072030E70F202EE7C04622
:102BD000FC16002038590108010200000202000022
:102BE00001040000020400000110000002100000B7
:102BF00001080000020800000188000002880000AF
:102C000001810000028100000184000002840000B4
:102C10000C4B1B78002B0FD00A4B5B78002B0DD090
:102C2000002802D0074B9B780370002908D0054B81
:102C3000DB780B70002070472120FCE72120FAE7A9
:102C40000020F8E7FC16002010B5041E07D001286C
:102C500009D184228F21452002F005FE03E0802166
:102C6000452002F0D5FD014BDC7110BDFC160020A3
:102C7000034B044A904200D9100018617047C046C7
:102C8000FC160020F8FF0700014B18697047C0468A
:102C9000FC160020034BFF229201904200D9100045
:102CA000D8607047FC160020034B044A904200D9BC
:102CB000100098607047C046FC1600208074D9044C
:102CC00010B5054B1B6C0120002B00D110BD180066
:102CD00002F0B2FFFAE7C046FC16002070B5802271
:102CE0008021022002F0F5FD002850D02A4B1B78ED
:102CF000002B4ED0022007F05FFF0822082102209F
:102D000002F0E7FD002804D0234B1B790024002BA0
:102D100025D10021552002F0A9FC01220321022027
:102D200002F0B9FD1C4D2A7D03231340FF22FF2131
:102D3000C82002F09DFA040003220321022002F0C1
:102D4000AAFD287D01300721FDF776FA29750822B2
:102D50000821022002F0BDFD2871002805D10E4B8C
:102D60009868002806D1200070BD4821022002F09A
:102D700064FDF4E7094B984200D218000749FDF7BB
:102D8000D5F980B202F052FF034B1864EBE721241F
:102D9000E9E72124E7E7C046FC160020F8340000EC
:102DA00010B5094B1B7E002B0BD14821022002F0ED
:102DB0002FFD032007F000FF034B00221A710020B3
:102DC00010BDFFF7C5FAF0E7FC16002070B5041E31
:102DD00000D1E2E0804B1B782120012B00D8B0E02D
:102DE000082208211F3802F074FD00280BD17A4B0D
:102DF0005A7813000A3B022B00D8D0E02368213018
:102E0000002B00D09DE0744A13001C3323CC23C355
:102E100023CC23C321681960D368002B00D1CBE0F9
:102E20005278012A0AD08A246400022A0BD0CA24CC
:102E30006400032A07D0553CFF3C01E08A2464006B
:102E4000072A00D140340821122002F0E1FC624B35
:102E50005B78032B16D0604BDB680421A34202D3BE
:102E60001B1B9B09D9B20F2002F000FC5A4B5A6B76
:102E7000531E033369D8584BDB6807209A4200D9A8
:102E80009FE05EE0002204210A2002F022FD0028DB
:102E9000E1D0803408214C2002F0CFFC14221F2105
:102EA000462002F0F8FCD6E7B4200001032B12D034
:102EB000402001E0A0208000062B43D1464B9B78A8
:102EC000013B591E8B415B425B0A5B028021C900BA
:102ED0008C466344C0188018404B984200D91800B3
:102EE0003D4B5863800902F037FA3B4B03221A70BE
:102EF00008321A76093A5A835B78073B012B28D8A7
:102F00003549374BCB180A001C3231CA31C331CA9C
:102F100031C312681A60334BCA58002A00D0324AB3
:102F20002D4B5A62822252011A858722D2009A586A
:102F300008210A402B310A431A63DB690020002B69
:102F400010D070BD092BB9D0C5E7002002F004FAFB
:102F5000CBE7214BDB69002B04D01F4B1B8C0020DF
:102F6000002BEED1FFF70AFA1B4B5B780422934348
:102F7000092B0AD0D12002F006FCE32002F003FC6A
:102F8000154B51221A760020DBE70821022002F0BF
:102F90003FFCE42002F0F7FBECE70720D1E70E4905
:102FA0000B001C3361CC61C361CC61C32068186025
:102FB000CB68002B00D03AE7074B5A6B531E033304
:102FC000C3D8054B5B78012B00D173E7022B00D0EF
:102FD0006AE7A02080007EE7FC16002000F0FF0FCB
:102FE000240400002C04000014190020044B1B7E54
:102FF0000B3BDBB2002045229A424041C0B27047F1
:10300000FC160020044B1B7E002B02D1024B588B78
:1030100070470220FCE7C046FC160020F0B5CE4603
:10302000474680B583B0FFF7EDFF04000200022899
:1030300046D0384BB8215B58197800291FD0354B42
:10304000B0208146B4255E5937781E58B446F65DE7
:103050000E416146CE5559590E781F58B95D8846C4
:10306000B8215958097840468840B85559590D78C3
:1030700049465858415DAC269B5D0B4343551D2A7C
:1030800024D0042002F041FD0121052002F0C0FB04
:10309000204B9878EA282DD90001FF230340022015
:1030A000FF30184307F088FD1A4BD878EA2829D951
:1030B0000001FF23034081204000184307F07CFDFE
:1030C000200003B0C0BCB946B046F0BD6B46D91D68
:1030D000202002F0A1FA0F4BB42299586A46D27907
:1030E00012090A70B8229A586B46DB791B075B0FEE
:1030F0001370C6E701300001FF2303400220FF30B8
:103100001843CFE701300001FF2303408120400036
:103110001843D3E7FC16002010B53A4B3A4A1B88F7
:10312000934200D06CE0FFF76DFF040002282BD023
:1031300004282BD1334BD4229A5CDA71C4229858DC
:10314000002808D004329B5C002B04D02D4AC921F2
:10315000525C002A48D12B4BCC229A58002A02D02C
:10316000C9215B5C1370274BD0229A58002A02D0E9
:10317000CA215B5C1370234BC8229B58234A13401F
:103180005A4253415B421C40200010BDD12002F046
:10319000FAFAD52002F0F7FA1A4B3F22FF21995490
:1031A000002C1BD11900C923CA5C0132D2B2CA5407
:1031B00093009B189B00D5335B184B6202220221BF
:1031C000242002F086FB0028B4D00E4B02225A8342
:1031D00001321A704E321A760224D5E7094BCA2101
:1031E0005A5C01325A54E9E7191C934200D9111C68
:1031F000C9B28A0052189200054911F0E3FAAAE711
:103200002124C1E7FC1600200306000000FFFF0098
:10321000D117002010B540224021312002F059FB87
:1032200010BD000010B5144B1B78002B22D0124BA0
:103230005C22002199549B79002B16D101F015FFD7
:10324000FFF7AEFD0D21082002F0F7FA0821032058
:1032500002F00CFA094802F058FC094802F01AFC86
:10326000072007F0A9FC002010BD4031012002F02A
:10327000B3FAE3E72120F7E7FC1600208000001FE7
:103280000800001FF8B504000F0016001D00264BB3
:103290001B78002B44D00D2844D010282FD00720B5
:1032A0000C2C2BD10121013002F0B2FACE2002F019
:1032B0006AFAC822FB21032002F0EDFA2021052042
:1032C00002F0A6FAD12002F05EFA174B9B6E174867
:1032D000184302F012FCFFF79DFF00281CD0124B90
:1032E0005C229C54583A1A701F6770329E529D6738
:1032F00000222A8000217C3299540020F8BD05214B
:10330000082002F085FACE2002F03DFAE822FB21E7
:10331000032002F0C0FAD1E7FFF784FF2520EDE794
:103320002120EBE70F20E9E7FC1600202019F00030
:10333000002903D0064B6C229B5C0B70002803D045
:10334000034B7C229B5C0370014B5C22985C7047B2
:10335000FC160020F8B50400874B1B78002B00D129
:1033600006E1854B7C2200219954844DF9E0052526
:103370002800F8BD4021022002F05FFAC22002F0CE
:1033800002FA7D4B1B6E5B0524D47B4B1B6EDB046A
:1033900028D4794B1B6E9B0429D42021052002F0F0
:1033A00037FA01277F42380002F0AFFB724EB36E4E
:1033B0007348184302F0A1FB6C23F754726ED2B22B
:1033C000FB21032002F067FAFFF724FF002818D042
:1033D0000224C6E00121082002F01AFACD2002F0F2
:1033E000D2F9D2E70421082002F012FAD1E7012233
:1033F0000321032002F04FFA0821022002F008FA0C
:10340000CBE7C821023002F003FA002573E08022E6
:103410008021022002F05DFA002812D1C021023082
:1034200002F00BFA10221021312002F052FA00288B
:103430000AD10A21803002F0EDFA002804D10325D8
:1034400059E0802002F026FB4B4B1B6E00269B04AC
:1034500014D4494B5C229B5C062B25D0DB2002F068
:1034600092F9D12002F08FF9434B9979002976D057
:1034700040231943012002F0AFF970E0C22002F0AE
:1034800082F901220321032002F005FA082102201B
:1034900002F0BEF940224021312002F01AFA002841
:1034A000D7D101260124D4E70121082002F0B0F988
:1034B000CD2002F068F9D1E72F4E6C25705D010038
:1034C00001F0ABFE0121082002F0B7F9715D0A009E
:1034D0000C20FFF775FA050004233370DB2002F09F
:1034E00052F9D12002F04FF9F020000402F0D2FA94
:1034F000102002F0FDFA204B5C229C5438E71E4B52
:103500006C22995C0A000C20FFF75AFA0500F2E7DA
:10351000194E6C25705D010001F07FFE042108202A
:1035200002F08BF9715D0A000A20FFF749FA0500E5
:1035300004233370DFE70121082002F07EF9F02038
:10354000000402F0A7FA102002F0D2FA0025D2E718
:103550000421082002F071F90025CCE70026002E96
:1035600004D0102C06D8A300EB589F460025C2E7D4
:103570002125FDE62125FBE6FC16002070590108F7
:10358000A019F000F0B5C64600B58CB0CA4B1B7848
:10359000042B01D100F078FC052B01D100F0B9FE1D
:1035A000032B01D000F0BBFEC34BD86C002810D118
:1035B000FFF71CFD00282ED1BF4B1B7E502B01D8DE
:1035C00000F0ADFE00220A92BB4A527E9A4216D10A
:1035D00017E002F031FB0028EAD0B74B03225A83F0
:1035E00057321A76FFF702FD002814D100230A9300
:1035F000B14B5A7E5A235A2A01D100F0D8FBAE4A69
:103600005376513BDAB2092A01D900F037FC930016
:10361000AA4AD3589F4600230993A74A137E527E95
:103620009A4201D0A44A53760B3BDAB2092A00D958
:10363000A1E19300A24AD3589F469F4B0C221A76D1
:10364000FFF73EFB002801D100F069FE9A4B0022F3
:103650001A640D321A76984B5B7804229343092B37
:1036600007D00421242002F034F9002801D000F012
:1036700056FE914B0E221A76FEF780FE8E4B9C2250
:1036800052001A875D78EB1F012B3ED98A4C208CA3
:10369000C31DDB08638701F03FFE638F1A1C802186
:1036A00089009BB28B4200D90A1C91B2824B9A8747
:1036B000D86901F0E6FF804B5979002964D17E4B2F
:1036C0005B780A3B022B65D97B4B0F221A767A4B2B
:1036D0009B6D002B04D09847002801D100F01FFEFD
:1036E000754B1B6BDB0760D5C52002F04CF8724BA5
:1036F000998F5A8F002391425B415B420222134013
:1037000010336D4A137600F00AFE6B4C8423DB0005
:103710000022E2521833E1588B0901204340013264
:10372000134041400A40218C0731C908E069260056
:103730003C3605968026B60004961836A6190396E0
:103740008426F600A61902963A3401942C00083C0F
:1037500065426C41009407F02FFB002807D00D282C
:1037600005D0554B588314221A7600F0D8FD524CE0
:10377000608FC00080B201F0CFFDA18F86239B0037
:10378000E01801F07EFF96E740231943012002F084
:1037900023F894E7FFF73EFD002895D1464B2522FC
:1037A0005A83113A1A7600F0BAFDC42001F0EBFFFB
:1037B0009DE7482002F06EF90990099B002B01D18A
:1037C00000F0ADFD099B5B0646D5099B1B0743D462
:1037D000394B11221A76384B5C78E31F012B48D8FD
:1037E000354A538F918F168F5A1AB24200DA96B229
:1037F0000BAD00232B8030488723DB00C1588B0999
:1038000001277B400122134079400A40018C073197
:10381000C908C0690595351C8227BF00BE4200D982
:103820003D1CADB20495274D03958226B600AE1916
:103830000296DF3DFF3D0195083C65426C410094D6
:1038400007F0BAFA00280ED00D280CD01A4B588376
:1038500014221A7600F063FD174B03225A831132AB
:103860001A7600F05CFD0BAB1988164801F009FFD1
:103870000FE0114B9A8F598F1B8F891A994200DDE7
:10388000190089B20BAB19800B4BD869801801F075
:10389000F8FE094B9A8F0BA90988521892B29A87A1
:1038A000598F00238A425B415B420222134010334E
:1038B000014A137600F033FDFC160020B4590108CC
:1038C000DC59010814190020482002F0E3F809909F
:1038D000099B002B01D100F022FD099B1B070FD58E
:1038E000B34B13221A76B24B5B6A002B14D0B04B49
:1038F0009B79002B21D1AE4B51221A7600F00FFD9F
:10390000099B5B0601D500F00AFDA94B03225A83EF
:1039100011321A7600F003FDA54B9B79002B07D1DD
:10392000FEF716FDA24B00225A831A7600F0F7FC30
:103930004021012001F050FFF2E74021194301200E
:1039400001F04AFFD7E79A4B5B8B022B0AD0984BCA
:103950009B79002B0AD1FEF7FBFC954B00221A76CF
:1039600000F0DDFC924B08225A83F0E74021012051
:1039700001F032FFEFE78E4B08225A830C321A76A1
:1039800000F0CDFC8A4B00229A875A87DB6A002B15
:1039900000D01A800A2002F049F9854B98645B78C0
:1039A00004229343093B5A1E93415233804A1376B3
:1039B00000F0B5FC7F4802F06DF80A900A9B002BDE
:1039C00001D100F0ACFC0A9B5B0409D50A9B9B0665
:1039D00006D4774B04225A8356321A7600F09FFCA5
:1039E0000A9B1B0511D50A9B9B060ED4704B5B7876
:1039F000042293432132092B05D06D4B5A835A225E
:103A00001A7600F08CFC213AF7E70A9B9B0606D455
:103A1000674B03225A8357321A7600F080FC32201B
:103A200002F004F9624B586454221A760A9B624AE7
:103A300013400A93614802F02DF80A9B18430A903C
:103A40000A9B002B0DD00A9B9B0719D40A9B5B068F
:103A500045D50A9BDB0642D4554B55221A7600F019
:103A60005EFC534B586C02F0E7F8002801D100F0DF
:103A700056FC4F4B09225A8351321A7600F04FFC04
:103A80008020C00102F006F8002806D0484B04222E
:103A90005A8356321A7600F042FC0022022124207A
:103AA00001F017FF002806D0414B04225A835632FA
:103AB0001A7600F034FC202001F0ECFF0422110003
:103AC000312001F006FF002804D0394B54221A7629
:103AD00000F025FC364B53221A7600F020FC0A9B9E
:103AE0001B0104D5324B53221A7600F018FC3448DF
:103AF00001F0D0FF0A9B18430A902D4B56221A76EC
:103B00000A9BDB0220D42A4B5B781A00093A042A6C
:103B100004D90A9A920201D5052B1ED10A9A5202A3
:103B200024D40A9A120229D40A9A52072ED40A3BA4
:103B3000022B33D80A9B1B0530D51D4B25225A83F7
:103B400035321A7600F0EBFB194B09225A834E32BC
:103B50001A76FEF7E1FC00F0E2FB154B09225A83CE
:103B60004E321A76FEF7D8FC00F0D9FB104B1B2220
:103B70005A833C321A76FEF7CFFCD0E30C4B152269
:103B80005A8342321A76FEF7C7FCC8E3084B1D225F
:103B90005A833A321A76FEF7BFFCC0E30A9BDB0673
:103BA00010D4034B03225A8357321A76B7E3C04628
:103BB000FC16002020480000DFBFFFFF520800086D
:103BC0000400F000FEF788FCB44B3F229A5C0E2301
:103BD0001A424CD0B14B28225A83B04B57221A7646
:103BE000FEF78CFC0100AD4B1B6B9B070BD4AB4B62
:103BF0005B8FC21892B2002A01D100F09EFC02280D
:103C000040D9023881B2A54B5A8F8A1892B25A878E
:103C10001B8D0733DB089A4206D9A04A918F591AA7
:103C200089B2538B022B33D09C4CA38F606AC0188F
:103C300001F044FDE36A002B0AD0984C628FD20059
:103C40001A80FEF749FC3F23E35C0E221A4223D17F
:103C5000924B5A78D31F012B2CD9904B5B780422BE
:103C60009343092B5DD18D4B54321A7657E3FEF7FF
:103C700033FC8A4B3F229B5CDB07AED5874B363A41
:103C80005A83AAE7022BBED9844A023B5387BAE77C
:103C9000130001225A83C7E7FEF71EFC7F4BD96A47
:103CA0003F229B5C1B075B0F373AD21A0B889B1A8B
:103CB0000B80CDE7794B5C8B022C03D0774B5A22DB
:103CC0001A762CE30BA800230380744D8623DB00B7
:103CD000EB5A0733DB08698F083A56427241039268
:103CE0008822D200AA5A02926D4AAA5801920090E4
:103CF0006C4AAA58686A07F06BF9002801D100F0F5
:103D00000AFC152801D100F0EBFB6449664B674AB9
:103D10008A1870CA70C370CA70C312681A60488368
:103D20009BE75E4B5B8B022BC8D15C4B59221A760A
:103D30005A4B9B79002B06D1FEF70AFB574B00220A
:103D40005A831A76EBE24021012001F045FDF3E7AA
:103D5000322001F06BFF514D6864FEF7CFFB060087
:103D600007906B8FC3189BB26B872A8D0732D508DB
:103D7000AB4201D800F0E6FB484A9046978FEC1B17
:103D8000A4B2506AC019210001F098FC4246938FFA
:103D9000E3189387079BA34201D800F0DDFB791B52
:103DA000711889B2002001F089FC00F0D5FB3B4B73
:103DB0009B79002B09D1FEF7CBFA384B5B8B022B9A
:103DC00008D0364B00221A76A9E24021012001F0EA
:103DD00003FDF0E7314B08225A83F2E7344801F043
:103DE00059FE0A900A9B002B17D00A9BDB0402D5D0
:103DF0002A4B53221A760A9B5B0404D5274B0422D4
:103E00005A8356321A760A9B002B00DB87E2234B3B
:103E100025225A8335321A7681E2204B986C01F0C4
:103E20000BFF002800D17AE21C4B25225A83353241
:103E30001A7674E2C020C00001F02CFE0A900A9BA2
:103E4000002B00D16BE20A9B9B0508D5134B5B8BC3
:103E5000023B5A1E93415933104A13765FE20A9B84
:103E60005B0505D50D4B1D225A833D321A7656E26D
:103E70000A4B03225A8357321A7650E2074B082224
:103E80005A8352321A764AE2044A5C23D15C1029E2
:103E900000D944E28B00074AD3589F46FC16002005
:103EA000340400002C040000181700202404000033
:103EB00000500080045A01088020400101F0EAFD12
:103EC0000B900B9B002B00D129E20B9BDB0400D451
:103ED00025E20220FFF73EFABE4801F0DBFD0B9021
:103EE0000B9B002B00D11AE20B9BDB052FD40B9B05
:103EF0001B0504D5B84B7C229B5C002B3DD00B9B53
:103F00001B0142D5B44B6C229B5CFF2B39D10B9B20
:103F1000DB0600D527E30B9BDB0000D4FFE1AE4BB3
:103F20006C229B5C002B00D0F9E1AB4B1B6E5B0558
:103F300000D4F4E10AAC2100212001F06DFB2378CC
:103F4000012B00D8EBE10320FFF704FAE7E10AA90F
:103F5000242001F061FB02AB20229B181B781B0977
:103F60001A1CDBB2022B00D9022202AB20215B1803
:103F70001A70994B4C315A54B9E70120FFF7EAF90E
:103F8000CDE10520FFF7E6F9C9E10B9BDB06C2D5C1
:103F9000914B6C229B5CFF2B00D1E4E28F4801F037
:103FA00079FD0B900B9B1B0205D40B9B5B0202D48B
:103FB0000B9BDB020AD5DB2001F0E5FBD12001F0F1
:103FC000E2FB0821022001F023FCA8E1824B1B6EDA
:103FD0009B0437D4804CA56F01F0A9F92880742385
:103FE000E35A0733DB08A26F1288191C9BB2934275
:103FF00000D9111C89B2784C206F01F05FFBA36FD0
:104000001A88022A04D9744B6C215B5C002B1ED0E9
:10401000714B9A6F1388191C022B00D902215B1A6D
:1040200013806D4B996F0A88D2000A807C2201218F
:1040300099549B79002B00D171E13F31012001F0AF
:10404000CBFB6CE1BA21032001F010FBC2E7624B0D
:10405000196F634806F038FE0028D9D0DB2001F044
:1040600092FBD12001F08FFB0821022001F0D0FB50
:1040700055E15C4801F00EFD0B900B9B002B00D12D
:104080004DE10B9B1B0504D40B9BDB0605D40B9B5E
:1040900045E10120FFF75EF941E1B020000401F0A5
:1040A000F9FC0B9B18430B900B9B1B0202D40B9B40
:1040B000DB0206D5DB2001F066FBD12001F063FBBB
:1040C0002DE1454CA56F01F032F928807423E35AA5
:1040D0000733DB08A26F1288191C9BB2934200D9E8
:1040E000111C89B23C4C206F01F0E8FAA26F1388D2
:1040F000191C022B00D902215B1A1380364A916FDA
:104100000B88DB000B807C230121D15407E136486A
:1041100001F0C0FC0B900B9B002B00D1FFE00B9B30
:104120001B0507D40B9BDB0100D4F8E00620FFF74A
:1041300011F9F4E00120FFF70DF9F0E08120000112
:1041400001F0A8FC0B900B9B002B00D1E7E00B9B30
:104150001B0532D40B9BDB0600D4E0E0F02000040A
:1041600001F098FC0B9B18430B901B4B9C6F01F0CC
:10417000DEF820800B9B1B020AD40B9BDB0207D4CA
:104180000B9B5B0204D4144B9A6F1388022B2DD81F
:10419000114CA36F00221A80DB2001F0F4FAD12029
:1041A00001F0F1FA5C23E35C0F2B0AD00220FFF749
:1041B000D1F8102001F0A9FCB1E00120FFF7CAF806
:1041C000ADE005496533CA5A8B6F096F0C20FFF7C4
:1041D00059F8EEE710090018FC1600201008F00846
:1041E000636300001008000800080001023B138010
:1041F000B84A7423D35A0733DB08926F1288191C0C
:104200009BB2934200D9111C89B2B24C206F01F0CD
:1042100055FAA26F1388DB0013807C230122E2543D
:104220007DE0AD4801F036FC0B900B9B002B76D067
:104230000B9BDB0526D40B9B1B0539D40B9B1B0169
:104240003ED5A44B6C229B5CFF2B35D10B9BDB0630
:1042500000D58AE10B9BDB0061D59E4B6C229B5CF9
:10426000002B5CD19B4B1B6E5B0558D50AAC210023
:10427000212001F0D1F92378092B50D90E20FFF726
:1042800069F84CE00AA9242001F0C6F902AB20220B
:104290009B181B781B091A1CDBB2022B00D90222C7
:1042A00002AB20215B181A708A4B4C315A54C2E77A
:1042B0000120FFF74FF832E00520FFF74BF82EE022
:1042C0000B9BDB06C6D5834B6C229B5CFF2B00D17E
:1042D0004BE1804B9B6F00221A80DB2001F053FAE8
:1042E000D12001F050FA1AE07C4801F0D3FB0B908A
:1042F0000B9B002B13D00B9B1B0506D40B9B9B0128
:104300000DD50F20FFF726F809E00120FFF722F86E
:1043100005E0704B80229B5C013B012B03D90CB064
:1043200080BCB846F0BDF020000301F0B3FB0028CC
:10433000F5D0430306D5674BA42201219954243AB2
:1043400001319954830306D5624BA6220121995469
:10435000263A01319954C30306D55E4BA8220121A8
:104360009954283A013199540003D8D5594BA222C7
:10437000012199541E3A9B5C002BD0D0643A1F3126
:10438000012001F0A6FA002817D080228421022003
:1043900001F081FA052001F04DFD4E4B86229C5C18
:1043A000002C12D14B4B90229D5C002D4ED104224B
:1043B0008421022001F06FFAB1E7002204210220DB
:1043C00001F069FA00F051FEE7E70BAD280000F0BC
:1043D000ECFE29783F4AA323D15409021C3BD05C50
:1043E00000020133D35C03252B409B0103438A2049
:1043F000125A002A01D1374A1152364A8A20105ADD
:10440000C218914202DAC31A99421DDC314BA42230
:1044100001259D54243A01359D542E4B8C229B5CE2
:10442000002BBFD02B4B01329B5C002B01D1002C09
:10443000B8D1284D8E23EB5C04229A40D2B2FDF70E
:1044400066FF8A23E852ADE70024E6E70BAE3000B2
:1044500000F0B3FE31781F48A523C1540902143B74
:10446000C25C12020133C35C032633409B01134339
:104470009422825A002A02D1020094201152154A35
:104480009420105AC218914202DAC31A994207DCEA
:10449000104BA62201249C54263A01349C542C0033
:1044A0000C4B96229B5C002B00D180E7094B01321C
:1044B0009B5C002B02D1002C00D078E7054C9823A0
:1044C000E35C04229A40D2B2FDF721FF9423E0522C
:1044D0006DE7C046FC160020100900180008000215
:1044E000234B8722D2009B589B0701D5FFF70DFC79
:1044F0001F4B204A9A581388590701D0FFF705FC33
:104500000F2B01D9103B1380002801D0FFF7FDFBD2
:104510002000FFF7FAFB164B8722D2009B589B071F
:1045200008D4134B134A9A5813885907E8D020002F
:10453000FFF7EBFB2000FFF7E8FB0D4B00225A874B
:10454000FFF772FB0A4CA38F606AC018310001F0BC
:10455000B5F8A38FF318A387054B3F22FF21995489
:1045600015321A76DBE60B9BD9E60B9BD7E6C046E5
:10457000FC1600203404000010B5FFF703F8FEF726
:1045800041FD0400FEF732FD002801D0022CF4D0DA
:10459000044B1A7E0023502191425B415B421C4038
:1045A000200010BDFC16002000B589B00190C900A4
:1045B000684601810392DB0003820A9B05930B9BF3
:1045C00006930C9B079301A8FEF700FC002801D07E
:1045D00009B000BDFFF7D0FFFAE70000F0B589B0E1
:1045E000040005930EAB1F781C4B1B78012B33D9AD
:1045F0001A4B5B782120062B01D009B0F0BD174D76
:104600000023A9302B5401382B5406A803700E0A3E
:1046100046708170C2700471E979D422A954D33AEA
:10462000EA712A00D5320334A40302940193C03501
:10463000009514330521FFF7B7FF0028DDD1074BA4
:10464000C4220599995004329F5404320F9999500D
:10465000043210999950D0E72120CEE7FC160020B3
:10466000F0B589B004000D0016001F00354A12781D
:10467000012A59D9334B5B78012B57D1002858D0E8
:10468000002958D0002E58D0002F58D00420FF30D9
:1046900006F092FA0121052001F0CFF801942B7861
:1046A000D9003278521869460A81E3180393282307
:1046B0000B8205970E9B0793042204210A2001F028
:1046C00008F9C00083231843069001A8FEF77EFB7B
:1046D00000282CD1043001F0DDF9042001F008FAA3
:1046E000184BAC22002199543378002B10D0287835
:1046F000215CA43AD31A994021542978635C30781C
:10470000121A134163542B78E15C0E4BAC2299547E
:104710000C4BB0229C5004329D5004329E50043207
:104720009F50FFF729FF02E0212000E0212009B07F
:10473000F0BD0720FBE70720F9E70720F7E7072090
:10474000F5E7C046FC16002010B5054CFEF71AFF31
:10475000FEF758FC237E502BF8D80228F6D010BD67
:10476000FC16002030B585B0089C0A9D0295099D75
:1047700001950094FFF718FF002801D005B030BD67
:10478000FFF7E2FF002CF9D023880733DB082380F2
:10479000F4E7000010B586B004000D480078012849
:1047A00014D90B4B5B782120072B01D006B010BD2C
:1047B000A2235B0102930323019300920B002200CA
:1047C00000210A386844FFF7CDFFEFE72120EDE72D
:1047D000FC160020F0B583B007000C0001921D000C
:1047E00008220821022001F074F8002800D1AAE074
:1047F0005B4B1B78012B00D8A7E0594B5B78013B42
:10480000012B00D9A3E0002C00D1A2E0002D00D1A3
:10481000A1E0089B013300D19FE0262F00D16CE07E
:104820000726522F66D17537FEF74AFA0028FBD0CB
:1048300004220421242001F04CF80028F8D1484B30
:1048400000221A6483321A635C62019A1A85DD625F
:10485000089A5A631000A0239B009C466044414B79
:10486000984200D91800800900F076FD3C4BDB68C7
:10487000002B44D13A4B1B69002B07D03A4A934294
:1048800050D8DB0898B2202100F09DFDFDF776FDA1
:10489000042001F0FFF8042001F02AF9304B597987
:1048A000002944D10021232000F0E0FE380000F070
:1048B0006AFF2E4B0121089A9A4204D92C49100014
:1048C000FBF734FC81B2082001F0A4F8032600288D
:1048D0000DD0234B997900292FD1214B03221A7037
:1048E0004E321A764F3A5A83FFF72EFF0600042005
:1048F00001F00BF9300003B0F0BDC62794E70821A2
:10490000122000F085FF164BDB688A22520004213A
:10491000934203D3153BFF3B9B09D9B20F2000F014
:10492000A5FEA7E7134A9818C00880B2ABE740235A
:104930001943012000F050FFB4E740231943012040
:1049400000F04AFFC9E72126D4E72126D2E7212635
:10495000D0E70726CEE70726CCE70726CAE7C046FA
:10496000FC16002000F0FF0F3B040000EF69000080
:10497000F8340000C4FBFFFFF0B58BB007000E0059
:1049800001921D003A4B1B78012B00D86EE0384B8A
:104990005B782124072B02D020000BB0F0BD3548F6
:1049A00006F00AF9324B8822D20010219952002ECB
:1049B00041D10B224023134308930397F30002AA2B
:1049C0001381019B0593ED001582109B0793A22391
:1049D0005B01099303A8FEF7F9F9041EDCD1FFF788
:1049E000CBFD041E2AD01D2C09D8234BE340DB0746
:1049F00005D5109B1B880733DA085F2B22D91C4B87
:104A00009878EA2824D90001FF2303401B48184363
:104A100006F0D2F8164BD878EA2820D90001FF23F7
:104A200003401748184306F0C7F8114B8822D200FC
:104A300000219952B0E70A220023BCE7FFF784FE69
:104A40000400D0E70C20801A800801F0F3F9D6E7C3
:104A500001300001FF23034008481843D8E7013024
:104A60000001FF23034006481843DCE7212493E7B5
:104A7000FC1600200310000000022020011000009E
:104A80000210000000B585B00B000092020000216A
:104A90000F206844FFF770FF05B000BDF0B5C646B3
:104AA00000B588B004000D00160001930EAB04CBD6
:104AB00090461F887F4B1B78002B00D1F2E07D4B86
:104AC00000225C215A549A665A66430543D5002D4C
:104AD00000D1E9E02B78042B08D00720072B43D125
:104AE000102230210A2000F0D6FE04E000223021FE
:104AF0000A2000F0D0FE691C0A2202A80FF062FE14
:104B0000022229000B310A2002AB9C4660440FF0C0
:104B100059FE2B78042B1AD06B7B0422134302AA74
:104B200013736B7B0422934302AA537393730F2175
:104B3000100000F0D7FD5F4B5A6EC8210A435A6639
:104B4000996E982252050A439A660C2504E06B7B05
:104B500004229343E3E70D25230509D5731E9E41E7
:104B6000764211203040073008B080BCB846F0BD16
:104B7000E30427D5019E002E00D197E002223100E8
:104B800002A80FF01FFE31000231112202AB981C67
:104B90000FF018FE002302AAD3741375152110001C
:104BA00000F0BBFD434B7D229B5C002B41D00423D6
:104BB0009D43404B5A6EE0210A435A66996E3E4A25
:104BC0000A439A66A30452D43A4B5B6E1B066FD518
:104BD000384B04221A701C6642461A6774229F5290
:104BE000109A9A67002210990A8000217C32995409
:104BF0000132012199542A000C31082000F04BFEAB
:104C00000022E021122000F046FE0821122000F0D0
:104C100014FE02210F2000F029FDE021052000F004
:104C2000F7FD062005F0C8FF0120FEF793FB0020EA
:104C30009AE7123302AA137022335370223393700F
:104C40002233D37022331371223353712333937180
:104C5000BE3BD371223313722233537222339372C9
:104C60002233D3720C21100000F072FD9FE708235D
:104C70009D43104E736EE9221343736680210A2010
:104C800000F0C6FD327D03210A2000F004FE307DD5
:104C900001300721FBF7D0FA3175B36E10221343B0
:104CA000B36691E721205FE707205DE707205BE718
:104CB000052059E7FC16002010000018F0B583B05D
:104CC0000100C54B1B78002B00D175E1002814D0E2
:104CD000C24820220FF076FDBF4B9A229B5C002B2E
:104CE0003AD1BD4B143A9B5C002B47D1BA4B0A32E8
:104CF0009B5C0720002B41D15FE1B74B8222113131
:104D00009954002272315A5401315A54023101200F
:104D100058540A315A540A315A54133901305854EC
:104D200001315A540231FD30585202315A54203266
:104D30006C39FE3800F0CDFD0028CDD0A64B012205
:104D400084215A5403315A54853988201954043027
:104D50001A548D329954BFE79F4B86229B5C002BDF
:104D600000D02CE19C4B0A329B5C002B00D028E148
:104D7000994B0C3A9B5C002B00D024E1964A8A2385
:104D8000D35A9421515A0B439C21525A1343FF2B5F
:104D900000D91AE15439022000F03AFD0321022023
:104DA00000F036FD0822F821032000F074FD0420F5
:104DB00005F002FF884B82229A5C00240F21914269
:104DC0006441E4011201144364B283229B5C002B12
:104DD00000D0A3E0804B01329B5C002B00D0F6E0BA
:104DE000E4B200257C4B86229B5C002B2AD07A4EB5
:104DF0008723F15C09018C27F35D19438D23F35C54
:104E0000DB0019438E23F25C5200883B13401943A8
:104E1000C9B26B46D971332000F028FCF35D002B3A
:104E20000BD16D4B8A229B5AFF2B00D1A6E06A4B17
:104E30008A22995C342000F019FC04231C4380234F
:104E4000DB021D43644B90229B5C002B2AD0624EF8
:104E50009123F15C09019627F35D19439723F35CD5
:104E6000DB0019439823F25C5200923B1340194334
:104E7000C9B26B46D971372000F0F8FBF35D002B07
:104E80000BD1554B94229B5AFF2B00D180E0524B03
:104E90009422995C382000F0E9FB02231C43802314
:104EA0009B021D434C4B9A229B5C002B48D08821CF
:104EB000022000F0ADFC002000F08FF9464E9B234D
:104EC000F15C09019E27F35D19439F23F35CDB002E
:104ED0001943A023F25C52009A3B13401943C9B214
:104EE0006B46D9713B2000F0C1FBF35D002B04D071
:104EF000394B84229B5C002B0AD0374B9C229B5A57
:104F0000FF2B4FD0344B9C22995C3C2000F0AEFB31
:104F100001231C4380235B021D4311E008231C4333
:104F2000E4B22D4B84229B5C002B24D02A4B002220
:104F30008A215A520A315A5208315A5280252D0379
:104F40000120404200F0E1FD280000F0A3FD280010
:104F500000F0CEFD2100322000F088FB0422CF219A
:104F6000022000F098FC1C4B8022012199547B3ACE
:104F70001A70002021E080252D0333E76B46DE1DEB
:104F8000300000F012F9144B31788A2299524EE722
:104F90006B46DE1D300000F010F90F4B3178942283
:104FA000995274E76B46DE1D300000F00EF90A4B93
:104FB00031789C229952A5E7212003B0F0BD07204B
:104FC000FBE70720F9E70720F7E70720F5E70823C5
:104FD0001C43E4B2AAE7C046FC1600207E1700205E
:104FE000034B80229B5C01209842804140427047E5
:104FF000FC16002010B5104B1B782120052B00D08B
:1050000010BD0D4B80220021995404311F3800F04F
:10501000FFFBF020000300F078FDC22000F0B3FB9E
:1050200003220321022000F036FC00F01EF80520C8
:1050300005F0C2FD0020E3E7FC16002070B50D006E
:105040001600C4B2200000F057FC002805D0320042
:105050002900200000F01FFC70BD0720FCE710B500
:10506000C0B200F01DFC002010BD10B580228021D0
:10507000022000F02EFC002809D01022102131203F
:1050800000F027FC01235840C0B2C00010BD8030A2
:1050900000F033FD802000F0FDFC8021022000F0B4
:1050A000CCFB0A21802000F0B5FC802000F02DFD13
:1050B000E3E7F0B583B00600019117001D008024DE
:1050C0002402200000F0E6FC200000F011FD30007A
:1050D00000F059FB3900200000F09CFC200000F09B
:1050E00014FD002D03D02900019800F095FA00204E
:1050F00003B0F0BD10B582B0020007212C2000F0F3
:10510000CAFB6B46DC1D230064222521DF20FFF74C
:10511000D0FF207802B010BD10B5FFF7EBFF4400C0
:105120000419E400241AA4B2800005300A21FAF719
:10513000FDFF201880B210BD10B582B004008021A0
:105140002C2000F07AFB80212C2000F061FB6B46C4
:10515000073306226C21D620FFF7ABFF6B46DB79C5
:105160001B096A46D371002C1CD0802280210120AB
:1051700000F0AFFB00280CD06B4607331B780022F1
:10518000042B00D905329B1A6A46D37196231B0162
:1051900001E0E1231B016A460732127864214A4389
:1051A0009B182380002002B010BD10B503000A2216
:1051B0002521D320FFF77DFF10BD10B503000A2283
:1051C0002521D920FFF775FF10BD10B503000A2275
:1051D0002521DE20FFF76DFF10BD30B583B0040040
:1051E000F8212F2000F014FB6B46DD1D2B0004225C
:1051F0003021DD20FFF75DFF2A7806231340042BC2
:1052000007D1002807D1002C01D0D208227003B0AA
:1052100030BD0320FBE70320F9E730B583B005007C
:105220000C006B46D91D042000F0F6F9FF2C08D0C5
:10523000032C19D86B46DA1DDB7903218B431C4301
:105240001470FF2D09D0072D10D86B46DA1DDB79BD
:1052500030218B432D012B4313706B46D9790420E9
:1052600000F004FA03B030BD0720FBE70720F9E7A0
:10527000F8B504000F0010001E0025003835EDB20F
:10528000012D43D8FF292ED07021FF2A01D00F23F2
:10529000194370223A400F2303401A432A2000F09A
:1052A000FAFA320003210A2000F0F5FA184D28001E
:1052B00000F0F0FB280000F01BFC200000F063FA77
:1052C0000A21144800F0A6FB1D24430502D4113C1A
:1052D00080000CD4C020400100F0DCFB0C4800F042
:1052E00014FC2000F8BD0021FF2AD0D1D9E7802589
:1052F000AD000A21280000F08DFB28400400631E49
:105300009C4164420B239C430C34E3E70724E8E709
:10531000000600200004002010B50400C1B22320C4
:1053200000F0A4F9210A222000F0A0F910BD30B548
:1053300083B06B46DD1D29001F2000F06DF9287831
:1053400080092870040229001E2000F065F92878E1
:10535000204303B030BD000070B5040080235B0221
:1053600098421CD33F348023DB039C4214D2A4090F
:105370000025A10101220C4B19600121122000F02F
:105380008AFA210AC9B2102000F070F9E1B21120A6
:1053900000F06CF9280070BD044C0725E9E7010016
:1053A00000220025E7E7C046401B0020FFFF000069
:1053B00010B50400010A132000F058F9E1B21420DE
:1053C00000F054F910BD10B50C00FFF7F1FF2200FA
:1053D000E021122000F05FFA002C01D0002010BD67
:1053E000E02000F0D0F9F9E710B582B00400002306
:1053F0006A46D371D11D3F2000F00EF96B46DB7970
:105400000722190091430A000020282905D1002C09
:1054100005D0213A13402370013002B010BD0120A5
:10542000FBE7000010B5902001221021C00500F01C
:10543000BBFFC12000F0A7F90421012000F016F9FC
:105440000020FFF7D1FF00282CD000F059FA00F01F
:1054500091FB1A4B00221A601821012000F0EDF98F
:1054600010221021042000F01BFAFFF7FEFD041E9D
:105470001ED10020FFF750FEE1221201904292411E
:105480005242D2018021012000F005FA4821022079
:1054900000F0BEF90120404200F037FB00F03CFB79
:1054A000200010BD064877210FF0C6F82424F7E746
:1054B0000348B3210FF0C0F8F2E7C046401B0020BC
:1054C0007851010870B50378002B1FD043789A1EDD
:1054D000022A28D80421C91A4901C9B2782485783A
:1054E0006B1E062B25D8C378032B24D80722521B0A
:1054F000DB0013431943C9B2092000F0B7F82200BA
:105500007821032000F0C7F9002070BD4378DA1E2F
:10551000032A0AD80621C91A4901C9B2C378002B47
:1055200005D07024DBE70720EFE70720EDE7072031
:10553000EBE70720E9E70720E7E7000010B50C4A92
:10554000137801331370BFF34F8F0A4A8023202151
:10555000D150BFF34F8FBFF36F8FBFF34F8FBFF3A8
:105560006F8F902000221039C00500F01DFF10BD84
:10557000AC31002000E100E010B5902001221021A4
:10558000C00500F011FF054A1378013BDBB2137030
:10559000002B02D1024B20221A6010BDAC3100203A
:1055A00000E100E000B583B06B46D87107330122FB
:1055B000002118000EF050F903B000BD70B50500D1
:1055C0000C1E0AD0002803D00A0000210FF0C6F8F4
:1055D0002200290000200EF03FF970BD70B50500D3
:1055E0000E00141E01D1002070BDFFF7A7FF6B064F
:1055F0000CD44020284300220121FFF7D3FF2100D3
:105600003000FFF7DBFFFFF7B7FFECE700220021D8
:10561000FB20FFF7C7FFECE710B50122FFF7DEFF25
:1056200010BD70B505000E00141E01D1002070BD24
:10563000FFF784FF6B0613D4402328009843012210
:105640000021FFF7AFFF2200002130000EF004F927
:10565000FFF792FF22003100280000F0BBFAE5E7D7
:1056600001220021FB20FFF79DFFE5E700B583B095
:105670006B46D971073301221900FFF7D2FF03B03F
:1056800000BD70B505000C0080239B00994213D823
:10569000002901D1200070BDFFF750FF0122002139
:1056A0008020FFF77FFF2200002128000EF0D4F8B1
:1056B000FFF762FF0024EDE70724EBE770B5050074
:1056C0000C1E01D1002070BDFFF738FF0022012120
:1056D0009F20FFF767FF21002800FFF76FFFFFF70C
:1056E0004BFFEFE770B505000C00302913D80029F7
:1056F00001D1200070BDFFF721FF01220021A02071
:10570000FFF750FF2200002128000EF0A5F8FFF758
:1057100033FF0024EDE70724EBE770B505000C002C
:10572000212913D8002901D1200070BDFFF706FF01
:1057300001220021A820FFF735FF220000212800C8
:105740000EF08AF8FFF718FF0024EDE70724EBE7D7
:1057500070B505000C000C2913D8002901D12000D8
:1057600070BDFFF7EBFE01220021AC20FFF71AFF0E
:105770002200002128000EF06FF8FFF7FDFE002444
:10578000EDE70724EBE710B50400FFF7D7FEC020D4
:10579000204301220121FFF705FFFFF7EDFE200066
:1057A00000F02AFA002010BD70B504000D00FFF7CC
:1057B000C5FE00220021FC20FFF7F4FE402020431C
:1057C00000220121FFF7EEFE01212800FFF7F6FE7F
:1057D000FFF7D2FE002070BD30B583B004006B46E9
:1057E000DD1DD971FFF7AAFE01220021FC20FFF781
:1057F000D9FE012200212000FFF7D4FE0122002162
:1058000028000EF029F8FFF7B7FE002003B030BDE6
:1058100030B583B004000D006B46D91DFFF7FCFEC8
:10582000002803D16B46D9790D4201D103B030BDB8
:10583000A9432000FFF71AFFF8E730B583B0040052
:105840000D006B46D91DFFF7E7FE002809D16B4616
:1058500007331B78290019438B4202D02000FFF741
:1058600005FF03B030BD70B582B006000D00140016
:105870006B46D91DFFF7D0FE00280AD16B460733CF
:105880001B781900A94321438B4202D03000FFF757
:10589000EDFE02B070BD10B50A40FFF7E4FF10BD89
:1058A00070B582B005000E0014006B46D91DFFF7DD
:1058B0007BFF00280BD16B4607331B781900B143DF
:1058C000344021438B4202D02800FFF785FF02B00D
:1058D00070BD30B583B00D00140000236A46D3714B
:1058E000D11DFFF799FE6B46D8792840001B434233
:1058F0005841C0B203B030BDC043C0B2C009704708
:10590000034B00225A601A609A60DA607047C04602
:10591000441B002070B582B001235B420193002537
:105920009026F60501AC0FE0042221001A20FFF7B3
:1059300055FE63781B02A2781204134322781343A6
:10594000E278120613431D430221300000F026FDC9
:105950000128E9D0124A137801331370BFF34F8F37
:10596000104980232020C850BFF34F8FBFF36F8FA3
:10597000BFF34F8FBFF36F8F0B498B682B438B6047
:105980001378013BDBB21370002B02D1054B2022B0
:105990001A60054B986800F0F7F802B070BDC04679
:1059A000AC31002000E100E0441B002010B5FFF7FF
:1059B000B1FF044B5B68002B02D0024B5B68984739
:1059C00010BDC046441B0020F8B5114BDD680A002D
:1059D000424015404D40DA688243DA60DA680A4393
:1059E000DA600024FF261F0002E00134042C0DD0F1
:1059F000E3002A00DA401642F7D0F968D940C9B26C
:105A000020001630C0B2FFF731FEEEE7F8BDC04609
:105A1000441B0020F0B5C64600B5050088460800C6
:105A200000F004F90600184F01E0002C09D1BC6811
:105A30002C40300000F000F90028F6D04346002B3F
:105A4000F3D0114B98682840104A11780131117039
:105A5000BFF34F8F0E4C802120256550BFF34F8F31
:105A6000BFF36F8FBFF34F8FBFF36F8F9968814381
:105A700099601378013BDBB21370002B01D1202217
:105A8000226080BCB846F0BD441B0020AC31002031
:105A900000E100E010B50200124B9B6818401A426A
:105AA0001ED0114A137801331370BFF34F8F0F4983
:105AB00080232024CC50BFF34F8FBFF36F8FBFF3F1
:105AC0004F8FBFF36F8F07498B6883438B601378C9
:105AD000013BDBB21370002B02D1044B20221A6071
